{
	"data": {
		"bytecode": {
			"linkReferences": {},
			"object": "60806040523480156200001157600080fd5b506040516200524238038062005242833981810160405281019062000037919062000119565b826000806101000a81548173ffffffffffffffffffffffffffffffffffffffff021916908373ffffffffffffffffffffffffffffffffffffffff16021790555081600160006101000a81548173ffffffffffffffffffffffffffffffffffffffff021916908373ffffffffffffffffffffffffffffffffffffffff16021790555080600260006101000a81548173ffffffffffffffffffffffffffffffffffffffff021916908373ffffffffffffffffffffffffffffffffffffffff160217905550505050620001bd565b6000815190506200011381620001a3565b92915050565b6000806000606084860312156200012f57600080fd5b60006200013f8682870162000102565b9350506020620001528682870162000102565b9250506040620001658682870162000102565b9150509250925092565b60006200017c8262000183565b9050919050565b600073ffffffffffffffffffffffffffffffffffffffff82169050919050565b620001ae816200016f565b8114620001ba57600080fd5b50565b61507580620001cd6000396000f3fe60806040526004361061019c5760003560e01c8063452a9320116100ec578063d33219b41161008a578063ddf0b00911610064578063ddf0b009146105b1578063deaaa7cc146105da578063e23a9a5214610605578063fe0d94c1146106425761019c565b8063d33219b41461051e578063da35c66414610549578063da95691a146105745761019c565b80637bdbe4d0116100c65780637bdbe4d01461048857806391500671146104b3578063b58131b0146104dc578063b9a61961146105075761019c565b8063452a93201461041d5780634634c61f14610448578063760fbc13146104715761019c565b806320606b7011610159578063328dd98211610133578063328dd9821461034c5780633932abb11461038c5780633e4f49e6146103b757806340e58ee5146103f45761019c565b806320606b70146102cd57806321f43e42146102f857806324bc1a64146103215761019c565b8063013cf08b146101a157806302a251a3146101e657806306fdde03146102115780630a0879031461023c57806315373e3d1461026757806317977c6114610290575b600080fd5b3480156101ad57600080fd5b506101c860048036038101906101c391906133a1565b61065e565b6040516101dd99989796959493929190614b00565b60405180910390f35b3480156101f257600080fd5b506101fb6106e6565b6040516102089190614a35565b60405180910390f35b34801561021d57600080fd5b506102266106f0565b6040516102339190614758565b60405180910390f35b34801561024857600080fd5b50610251610729565b60405161025e9190614707565b60405180910390f35b34801561027357600080fd5b5061028e6004803603810190610289919061342f565b61074f565b005b34801561029c57600080fd5b506102b760048036038101906102b291906131ba565b61075e565b6040516102c49190614a35565b60405180910390f35b3480156102d957600080fd5b506102e2610776565b6040516102ef919061462b565b60405180910390f35b34801561030457600080fd5b5061031f600480360381019061031a91906131e3565b61079a565b005b34801561032d57600080fd5b50610336610925565b6040516103439190614a35565b60405180910390f35b34801561035857600080fd5b50610373600480360381019061036e91906133a1565b6109d6565b60405161038394939291906145ca565b60405180910390f35b34801561039857600080fd5b506103a1610cb3565b6040516103ae9190614a35565b60405180910390f35b3480156103c357600080fd5b506103de60048036038101906103d991906133a1565b610cbc565b6040516103eb919061473d565b60405180910390f35b34801561040057600080fd5b5061041b600480360381019061041691906133a1565b610e9f565b005b34801561042957600080fd5b50610432611229565b60405161043f91906143f7565b60405180910390f35b34801561045457600080fd5b5061046f600480360381019061046a919061346b565b61124f565b005b34801561047d57600080fd5b50610486611438565b005b34801561049457600080fd5b5061049d61150c565b6040516104aa9190614a35565b60405180910390f35b3480156104bf57600080fd5b506104da60048036038101906104d591906131e3565b611515565b005b3480156104e857600080fd5b506104f161169b565b6040516104fe9190614a35565b60405180910390f35b34801561051357600080fd5b5061051c61174c565b005b34801561052a57600080fd5b5061053361185e565b6040516105409190614722565b60405180910390f35b34801561055557600080fd5b5061055e611882565b60405161056b9190614a35565b60405180910390f35b34801561058057600080fd5b5061059b6004803603810190610596919061321f565b611888565b6040516105a89190614a35565b60405180910390f35b3480156105bd57600080fd5b506105d860048036038101906105d391906133a1565b611e47565b005b3480156105e657600080fd5b506105ef612192565b6040516105fc919061462b565b60405180910390f35b34801561061157600080fd5b5061062c600480360381019061062791906133f3565b6121b6565b6040516106399190614a1a565b60405180910390f35b61065c600480360381019061065791906133a1565b612264565b005b60046020528060005260406000206000915090508060000154908060010160009054906101000a900473ffffffffffffffffffffffffffffffffffffffff169080600201549080600701549080600801549080600901549080600a01549080600b0160009054906101000a900460ff169080600b0160019054906101000a900460ff16905089565b6000614380905090565b6040518060400160405280601481526020017f537573686920476f7665726e6f7220416c70686100000000000000000000000081525081565b600160009054906101000a900473ffffffffffffffffffffffffffffffffffffffff1681565b61075a3383836124ad565b5050565b60056020528060005260406000206000915090505481565b7f8cad95687ba82c2ce50e74f7b754645e5117c3a5bec8151c0726d5857980a86681565b600260009054906101000a900473ffffffffffffffffffffffffffffffffffffffff1673ffffffffffffffffffffffffffffffffffffffff163373ffffffffffffffffffffffffffffffffffffffff161461082a576040517f08c379a0000000000000000000000000000000000000000000000000000000008152600401610821906147da565b60405180910390fd5b60008054906101000a900473ffffffffffffffffffffffffffffffffffffffff1673ffffffffffffffffffffffffffffffffffffffff16630825f38f60008054906101000a900473ffffffffffffffffffffffffffffffffffffffff1660008560405160200161089a91906143f7565b604051602081830303815290604052856040518563ffffffff1660e01b81526004016108c9949392919061443b565b600060405180830381600087803b1580156108e357600080fd5b505af11580156108f7573d6000803e3d6000fd5b505050506040513d6000823e3d601f19601f820116820180604052508101906109209190613360565b505050565b60006019600160009054906101000a900473ffffffffffffffffffffffffffffffffffffffff1673ffffffffffffffffffffffffffffffffffffffff166318160ddd6040518163ffffffff1660e01b815260040160206040518083038186803b15801561099157600080fd5b505afa1580156109a5573d6000803e3d6000fd5b505050506040513d601f19601f820116820180604052508101906109c991906133ca565b816109d057fe5b04905090565b60608060608060006004600087815260200190815260200160002090508060030181600401826005018360060183805480602002602001604051908101604052809291908181526020018280548015610a8457602002820191906000526020600020905b8160009054906101000a900473ffffffffffffffffffffffffffffffffffffffff1673ffffffffffffffffffffffffffffffffffffffff1681526020019060010190808311610a3a575b5050505050935082805480602002602001604051908101604052809291908181526020018280548015610ad657602002820191906000526020600020905b815481526020019060010190808311610ac2575b5050505050925081805480602002602001604051908101604052809291908181526020016000905b82821015610bba578382906000526020600020018054600181600116156101000203166002900480601f016020809104026020016040519081016040528092919081815260200182805460018160011615610100020316600290048015610ba65780601f10610b7b57610100808354040283529160200191610ba6565b820191906000526020600020905b815481529060010190602001808311610b8957829003601f168201915b505050505081526020019060010190610afe565b50505050915080805480602002602001604051908101604052809291908181526020016000905b82821015610c9d578382906000526020600020018054600181600116156101000203166002900480601f016020809104026020016040519081016040528092919081815260200182805460018160011615610100020316600290048015610c895780601f10610c5e57610100808354040283529160200191610c89565b820191906000526020600020905b815481529060010190602001808311610c6c57829003601f168201915b505050505081526020019060010190610be1565b5050505090509450945094509450509193509193565b60006001905090565b60008160035410158015610cd05750600082115b610d0f576040517f08c379a0000000000000000000000000000000000000000000000000000000008152600401610d06906147fa565b60405180910390fd5b600060046000848152602001908152602001600020905080600b0160009054906101000a900460ff1615610d47576002915050610e9a565b80600701544311610d5c576000915050610e9a565b80600801544311610d71576001915050610e9a565b80600a01548160090154111580610d925750610d8b610925565b8160090154105b15610da1576003915050610e9a565b600081600201541415610db8576004915050610e9a565b80600b0160019054906101000a900460ff1615610dd9576007915050610e9a565b610e84816002015460008054906101000a900473ffffffffffffffffffffffffffffffffffffffff1673ffffffffffffffffffffffffffffffffffffffff1663c1a287e26040518163ffffffff1660e01b815260040160206040518083038186803b158015610e4757600080fd5b505afa158015610e5b573d6000803e3d6000fd5b505050506040513d601f19601f82011682018060405250810190610e7f91906133ca565b612736565b4210610e94576006915050610e9a565b60059150505b919050565b6000610eaa82610cbc565b9050600780811115610eb857fe5b816007811115610ec457fe5b1415610f05576040517f08c379a0000000000000000000000000000000000000000000000000000000008152600401610efc9061499a565b60405180910390fd5b6000600460008481526020019081526020016000209050600260009054906101000a900473ffffffffffffffffffffffffffffffffffffffff1673ffffffffffffffffffffffffffffffffffffffff163373ffffffffffffffffffffffffffffffffffffffff1614806110585750610f7b61169b565b600160009054906101000a900473ffffffffffffffffffffffffffffffffffffffff1673ffffffffffffffffffffffffffffffffffffffff1663782d6fe18360010160009054906101000a900473ffffffffffffffffffffffffffffffffffffffff16610fe943600161278b565b6040518363ffffffff1660e01b815260040161100692919061449a565b60206040518083038186803b15801561101e57600080fd5b505afa158015611032573d6000803e3d6000fd5b505050506040513d601f19601f8201168201806040525081019061105691906133ca565b105b611097576040517f08c379a000000000000000000000000000000000000000000000000000000000815260040161108e906148da565b60405180910390fd5b600181600b0160006101000a81548160ff02191690831515021790555060005b81600301805490508110156111ec5760008054906101000a900473ffffffffffffffffffffffffffffffffffffffff1673ffffffffffffffffffffffffffffffffffffffff1663591fcdfe83600301838154811061111157fe5b9060005260206000200160009054906101000a900473ffffffffffffffffffffffffffffffffffffffff1684600401848154811061114b57fe5b906000526020600020015485600501858154811061116557fe5b9060005260206000200186600601868154811061117e57fe5b9060005260206000200187600201546040518663ffffffff1660e01b81526004016111ad959493929190614569565b600060405180830381600087803b1580156111c757600080fd5b505af11580156111db573d6000803e3d6000fd5b5050505080806001019150506110b7565b507f789cf55be980739dad1d0699b93b58e806b51c9d96619bfa8fe0a28abaa7b30c8360405161121c9190614a35565b60405180910390a1505050565b600260009054906101000a900473ffffffffffffffffffffffffffffffffffffffff1681565b60007f8cad95687ba82c2ce50e74f7b754645e5117c3a5bec8151c0726d5857980a8666040518060400160405280601481526020017f537573686920476f7665726e6f7220416c706861000000000000000000000000815250805190602001206112b76127db565b306040516020016112cb9493929190614646565b60405160208183030381529060405280519060200120905060007f8e25870c07e0b0b3884c78da52790939a455c275406c44ae8b434b692fb916ee878760405160200161131a9392919061468b565b604051602081830303815290604052805190602001209050600082826040516020016113479291906143c0565b60405160208183030381529060405280519060200120905060006001828888886040516000815260200160405260405161138494939291906146c2565b6020604051602081039080840390855afa1580156113a6573d6000803e3d6000fd5b505050602060405103519050600073ffffffffffffffffffffffffffffffffffffffff168173ffffffffffffffffffffffffffffffffffffffff161415611422576040517f08c379a00000000000000000000000000000000000000000000000000000000081526004016114199061495a565b60405180910390fd5b61142d818a8a6124ad565b505050505050505050565b600260009054906101000a900473ffffffffffffffffffffffffffffffffffffffff1673ffffffffffffffffffffffffffffffffffffffff163373ffffffffffffffffffffffffffffffffffffffff16146114c8576040517f08c379a00000000000000000000000000000000000000000000000000000000081526004016114bf906149fa565b60405180910390fd5b6000600260006101000a81548173ffffffffffffffffffffffffffffffffffffffff021916908373ffffffffffffffffffffffffffffffffffffffff160217905550565b6000600a905090565b600260009054906101000a900473ffffffffffffffffffffffffffffffffffffffff1673ffffffffffffffffffffffffffffffffffffffff163373ffffffffffffffffffffffffffffffffffffffff16146115a5576040517f08c379a000000000000000000000000000000000000000000000000000000000815260040161159c9061485a565b60405180910390fd5b60008054906101000a900473ffffffffffffffffffffffffffffffffffffffff1673ffffffffffffffffffffffffffffffffffffffff16633a66f90160008054906101000a900473ffffffffffffffffffffffffffffffffffffffff1660008560405160200161161591906143f7565b604051602081830303815290604052856040518563ffffffff1660e01b8152600401611644949392919061443b565b602060405180830381600087803b15801561165e57600080fd5b505af1158015611672573d6000803e3d6000fd5b505050506040513d601f19601f820116820180604052508101906116969190613337565b505050565b60006064600160009054906101000a900473ffffffffffffffffffffffffffffffffffffffff1673ffffffffffffffffffffffffffffffffffffffff166318160ddd6040518163ffffffff1660e01b815260040160206040518083038186803b15801561170757600080fd5b505afa15801561171b573d6000803e3d6000fd5b505050506040513d601f19601f8201168201806040525081019061173f91906133ca565b8161174657fe5b04905090565b600260009054906101000a900473ffffffffffffffffffffffffffffffffffffffff1673ffffffffffffffffffffffffffffffffffffffff163373ffffffffffffffffffffffffffffffffffffffff16146117dc576040517f08c379a00000000000000000000000000000000000000000000000000000000081526004016117d39061477a565b60405180910390fd5b60008054906101000a900473ffffffffffffffffffffffffffffffffffffffff1673ffffffffffffffffffffffffffffffffffffffff16630e18b6816040518163ffffffff1660e01b8152600401600060405180830381600087803b15801561184457600080fd5b505af1158015611858573d6000803e3d6000fd5b50505050565b60008054906101000a900473ffffffffffffffffffffffffffffffffffffffff1681565b60035481565b600061189261169b565b600160009054906101000a900473ffffffffffffffffffffffffffffffffffffffff1673ffffffffffffffffffffffffffffffffffffffff1663782d6fe1336118dc43600161278b565b6040518363ffffffff1660e01b81526004016118f9929190614412565b60206040518083038186803b15801561191157600080fd5b505afa158015611925573d6000803e3d6000fd5b505050506040513d601f19601f8201168201806040525081019061194991906133ca565b11611989576040517f08c379a00000000000000000000000000000000000000000000000000000000081526004016119809061493a565b60405180910390fd5b8451865114801561199b575083518651145b80156119a8575082518651145b6119e7576040517f08c379a00000000000000000000000000000000000000000000000000000000081526004016119de906148ba565b60405180910390fd5b600086511415611a2c576040517f08c379a0000000000000000000000000000000000000000000000000000000008152600401611a239061491a565b60405180910390fd5b611a3461150c565b86511115611a77576040517f08c379a0000000000000000000000000000000000000000000000000000000008152600401611a6e9061487a565b60405180910390fd5b6000600560003373ffffffffffffffffffffffffffffffffffffffff1673ffffffffffffffffffffffffffffffffffffffff16815260200190815260200160002054905060008114611b86576000611ace82610cbc565b905060016007811115611add57fe5b816007811115611ae957fe5b1415611b2a576040517f08c379a0000000000000000000000000000000000000000000000000000000008152600401611b219061497a565b60405180910390fd5b60006007811115611b3757fe5b816007811115611b4357fe5b1415611b84576040517f08c379a0000000000000000000000000000000000000000000000000000000008152600401611b7b9061483a565b60405180910390fd5b505b6000611b9943611b94610cb3565b612736565b90506000611bae82611ba96106e6565b612736565b9050600360008154809291906001019190505550611bca6129ba565b604051806101a0016040528060035481526020013373ffffffffffffffffffffffffffffffffffffffff168152602001600081526020018b81526020018a815260200189815260200188815260200184815260200183815260200160008152602001600081526020016000151581526020016000151581525090508060046000836000015181526020019081526020016000206000820151816000015560208201518160010160006101000a81548173ffffffffffffffffffffffffffffffffffffffff021916908373ffffffffffffffffffffffffffffffffffffffff160217905550604082015181600201556060820151816003019080519060200190611cd4929190612a3c565b506080820151816004019080519060200190611cf1929190612ac6565b5060a0820151816005019080519060200190611d0e929190612b13565b5060c0820151816006019080519060200190611d2b929190612b73565b5060e082015181600701556101008201518160080155610120820151816009015561014082015181600a015561016082015181600b0160006101000a81548160ff02191690831515021790555061018082015181600b0160016101000a81548160ff021916908315150217905550905050806000015160056000836020015173ffffffffffffffffffffffffffffffffffffffff1673ffffffffffffffffffffffffffffffffffffffff168152602001908152602001600020819055507f7d84a6263ae0d98d3329bd7b46bb4e8d6f98cd35a7adb45c274c8b7fd5ebd5e08160000151338c8c8c8c89898e604051611e2b99989796959493929190614a50565b60405180910390a1806000015194505050505095945050505050565b60046007811115611e5457fe5b611e5d82610cbc565b6007811115611e6857fe5b14611ea8576040517f08c379a0000000000000000000000000000000000000000000000000000000008152600401611e9f9061479a565b60405180910390fd5b60006004600083815260200190815260200160002090506000611f684260008054906101000a900473ffffffffffffffffffffffffffffffffffffffff1673ffffffffffffffffffffffffffffffffffffffff16636a42b8f86040518163ffffffff1660e01b815260040160206040518083038186803b158015611f2b57600080fd5b505afa158015611f3f573d6000803e3d6000fd5b505050506040513d601f19601f82011682018060405250810190611f6391906133ca565b612736565b905060005b826003018054905081101561214a5761213d836003018281548110611f8e57fe5b9060005260206000200160009054906101000a900473ffffffffffffffffffffffffffffffffffffffff16846004018381548110611fc857fe5b9060005260206000200154856005018481548110611fe257fe5b906000526020600020018054600181600116156101000203166002900480601f0160208091040260200160405190810160405280929190818152602001828054600181600116156101000203166002900480156120805780601f1061205557610100808354040283529160200191612080565b820191906000526020600020905b81548152906001019060200180831161206357829003601f168201915b505050505086600601858154811061209457fe5b906000526020600020018054600181600116156101000203166002900480601f0160208091040260200160405190810160405280929190818152602001828054600181600116156101000203166002900480156121325780601f1061210757610100808354040283529160200191612132565b820191906000526020600020905b81548152906001019060200180831161211557829003601f168201915b5050505050866127e8565b8080600101915050611f6d565b508082600201819055507f9a2e42fd6722813d69113e7d0079d3d940171428df7373df9c7f7617cfda28928382604051612185929190614b8d565b60405180910390a1505050565b7f8e25870c07e0b0b3884c78da52790939a455c275406c44ae8b434b692fb916ee81565b6121be612bd3565b60046000848152602001908152602001600020600c0160008373ffffffffffffffffffffffffffffffffffffffff1673ffffffffffffffffffffffffffffffffffffffff1681526020019081526020016000206040518060600160405290816000820160009054906101000a900460ff161515151581526020016000820160019054906101000a900460ff16151515158152602001600182015481525050905092915050565b6005600781111561227157fe5b61227a82610cbc565b600781111561228557fe5b146122c5576040517f08c379a00000000000000000000000000000000000000000000000000000000081526004016122bc906147ba565b60405180910390fd5b6000600460008381526020019081526020016000209050600181600b0160016101000a81548160ff02191690831515021790555060005b81600301805490508110156124715760008054906101000a900473ffffffffffffffffffffffffffffffffffffffff1673ffffffffffffffffffffffffffffffffffffffff16630825f38f83600401838154811061235657fe5b906000526020600020015484600301848154811061237057fe5b9060005260206000200160009054906101000a900473ffffffffffffffffffffffffffffffffffffffff168560040185815481106123aa57fe5b90600052602060002001548660050186815481106123c457fe5b906000526020600020018760060187815481106123dd57fe5b9060005260206000200188600201546040518763ffffffff1660e01b815260040161240c959493929190614569565b6000604051808303818588803b15801561242557600080fd5b505af1158015612439573d6000803e3d6000fd5b50505050506040513d6000823e3d601f19601f820116820180604052508101906124639190613360565b5080806001019150506122fc565b507f712ae1383f79ac853f8d882153778e0260ef8f03b504e2866e0593e04d2b291f826040516124a19190614a35565b60405180910390a15050565b600160078111156124ba57fe5b6124c383610cbc565b60078111156124ce57fe5b1461250e576040517f08c379a0000000000000000000000000000000000000000000000000000000008152600401612505906149ba565b60405180910390fd5b6000600460008481526020019081526020016000209050600081600c0160008673ffffffffffffffffffffffffffffffffffffffff1673ffffffffffffffffffffffffffffffffffffffff1681526020019081526020016000209050600015158160000160009054906101000a900460ff161515146125c2576040517f08c379a00000000000000000000000000000000000000000000000000000000081526004016125b99061481a565b60405180910390fd5b6000600160009054906101000a900473ffffffffffffffffffffffffffffffffffffffff1673ffffffffffffffffffffffffffffffffffffffff1663782d6fe18785600701546040518363ffffffff1660e01b815260040161262592919061449a565b60206040518083038186803b15801561263d57600080fd5b505afa158015612651573d6000803e3d6000fd5b505050506040513d601f19601f8201168201806040525081019061267591906133ca565b905083156126985761268b836009015482612736565b83600901819055506126af565b6126a683600a015482612736565b83600a01819055505b60018260000160006101000a81548160ff021916908315150217905550838260000160016101000a81548160ff0219169083151502179055508082600101819055507f877856338e13f63d0c36822ff0ef736b80934cd90574a3a5bc9262c39d217c468686868460405161272694939291906144c3565b60405180910390a1505050505050565b600080828401905083811015612781576040517f08c379a00000000000000000000000000000000000000000000000000000000081526004016127789061489a565b60405180910390fd5b8091505092915050565b6000828211156127d0576040517f08c379a00000000000000000000000000000000000000000000000000000000081526004016127c7906149da565b60405180910390fd5b818303905092915050565b6000804690508091505090565b60008054906101000a900473ffffffffffffffffffffffffffffffffffffffff1673ffffffffffffffffffffffffffffffffffffffff1663f2b06537868686868660405160200161283d959493929190614508565b604051602081830303815290604052805190602001206040518263ffffffff1660e01b815260040161286f919061462b565b60206040518083038186803b15801561288757600080fd5b505afa15801561289b573d6000803e3d6000fd5b505050506040513d601f19601f820116820180604052508101906128bf919061330e565b156128ff576040517f08c379a00000000000000000000000000000000000000000000000000000000081526004016128f6906148fa565b60405180910390fd5b60008054906101000a900473ffffffffffffffffffffffffffffffffffffffff1673ffffffffffffffffffffffffffffffffffffffff16633a66f90186868686866040518663ffffffff1660e01b8152600401612960959493929190614508565b602060405180830381600087803b15801561297a57600080fd5b505af115801561298e573d6000803e3d6000fd5b505050506040513d601f19601f820116820180604052508101906129b29190613337565b505050505050565b604051806101a0016040528060008152602001600073ffffffffffffffffffffffffffffffffffffffff1681526020016000815260200160608152602001606081526020016060815260200160608152602001600081526020016000815260200160008152602001600081526020016000151581526020016000151581525090565b828054828255906000526020600020908101928215612ab5579160200282015b82811115612ab45782518260006101000a81548173ffffffffffffffffffffffffffffffffffffffff021916908373ffffffffffffffffffffffffffffffffffffffff16021790555091602001919060010190612a5c565b5b509050612ac29190612bf8565b5090565b828054828255906000526020600020908101928215612b02579160200282015b82811115612b01578251825591602001919060010190612ae6565b5b509050612b0f9190612c33565b5090565b828054828255906000526020600020908101928215612b62579160200282015b82811115612b61578251829080519060200190612b51929190612c50565b5091602001919060010190612b33565b5b509050612b6f9190612cd0565b5090565b828054828255906000526020600020908101928215612bc2579160200282015b82811115612bc1578251829080519060200190612bb1929190612cf4565b5091602001919060010190612b93565b5b509050612bcf9190612d74565b5090565b6040518060600160405280600015158152602001600015158152602001600081525090565b5b80821115612c2f57600081816101000a81549073ffffffffffffffffffffffffffffffffffffffff021916905550600101612bf9565b5090565b5b80821115612c4c576000816000905550600101612c34565b5090565b828054600181600116156101000203166002900490600052602060002090601f016020900481019282601f10612c9157805160ff1916838001178555612cbf565b82800160010185558215612cbf579182015b82811115612cbe578251825591602001919060010190612ca3565b5b509050612ccc9190612c33565b5090565b5b80821115612cf05760008181612ce79190612d98565b50600101612cd1565b5090565b828054600181600116156101000203166002900490600052602060002090601f016020900481019282601f10612d3557805160ff1916838001178555612d63565b82800160010185558215612d63579182015b82811115612d62578251825591602001919060010190612d47565b5b509050612d709190612c33565b5090565b5b80821115612d945760008181612d8b9190612de0565b50600101612d75565b5090565b50805460018160011615610100020316600290046000825580601f10612dbe5750612ddd565b601f016020900490600052602060002090810190612ddc9190612c33565b5b50565b50805460018160011615610100020316600290046000825580601f10612e065750612e25565b601f016020900490600052602060002090810190612e249190612c33565b5b50565b600081359050612e3781614fcc565b92915050565b600082601f830112612e4e57600080fd5b8135612e61612e5c82614be3565b614bb6565b91508181835260208401935060208101905083856020840282011115612e8657600080fd5b60005b83811015612eb65781612e9c8882612e28565b845260208401935060208301925050600181019050612e89565b5050505092915050565b600082601f830112612ed157600080fd5b8135612ee4612edf82614c0b565b614bb6565b9150818183526020840193506020810190508360005b83811015612f2a5781358601612f10888261307f565b845260208401935060208301925050600181019050612efa565b5050505092915050565b600082601f830112612f4557600080fd5b8135612f58612f5382614c33565b614bb6565b9150818183526020840193506020810190508360005b83811015612f9e5781358601612f848882613127565b845260208401935060208301925050600181019050612f6e565b5050505092915050565b600082601f830112612fb957600080fd5b8135612fcc612fc782614c5b565b614bb6565b91508181835260208401935060208101905083856020840282011115612ff157600080fd5b60005b838110156130215781613007888261317b565b845260208401935060208301925050600181019050612ff4565b5050505092915050565b60008135905061303a81614fe3565b92915050565b60008151905061304f81614fe3565b92915050565b60008135905061306481614ffa565b92915050565b60008151905061307981614ffa565b92915050565b600082601f83011261309057600080fd5b81356130a361309e82614c83565b614bb6565b915080825260208301602083018583830111156130bf57600080fd5b6130ca838284614f62565b50505092915050565b600082601f8301126130e457600080fd5b81516130f76130f282614c83565b614bb6565b9150808252602083016020830185838301111561311357600080fd5b61311e838284614f71565b50505092915050565b600082601f83011261313857600080fd5b813561314b61314682614caf565b614bb6565b9150808252602083016020830185838301111561316757600080fd5b613172838284614f62565b50505092915050565b60008135905061318a81615011565b92915050565b60008151905061319f81615011565b92915050565b6000813590506131b481615028565b92915050565b6000602082840312156131cc57600080fd5b60006131da84828501612e28565b91505092915050565b600080604083850312156131f657600080fd5b600061320485828601612e28565b92505060206132158582860161317b565b9150509250929050565b600080600080600060a0868803121561323757600080fd5b600086013567ffffffffffffffff81111561325157600080fd5b61325d88828901612e3d565b955050602086013567ffffffffffffffff81111561327a57600080fd5b61328688828901612fa8565b945050604086013567ffffffffffffffff8111156132a357600080fd5b6132af88828901612f34565b935050606086013567ffffffffffffffff8111156132cc57600080fd5b6132d888828901612ec0565b925050608086013567ffffffffffffffff8111156132f557600080fd5b61330188828901613127565b9150509295509295909350565b60006020828403121561332057600080fd5b600061332e84828501613040565b91505092915050565b60006020828403121561334957600080fd5b60006133578482850161306a565b91505092915050565b60006020828403121561337257600080fd5b600082015167ffffffffffffffff81111561338c57600080fd5b613398848285016130d3565b91505092915050565b6000602082840312156133b357600080fd5b60006133c18482850161317b565b91505092915050565b6000602082840312156133dc57600080fd5b60006133ea84828501613190565b91505092915050565b6000806040838503121561340657600080fd5b60006134148582860161317b565b925050602061342585828601612e28565b9150509250929050565b6000806040838503121561344257600080fd5b60006134508582860161317b565b92505060206134618582860161302b565b9150509250929050565b600080600080600060a0868803121561348357600080fd5b60006134918882890161317b565b95505060206134a28882890161302b565b94505060406134b3888289016131a5565b93505060606134c488828901613055565b92505060806134d588828901613055565b9150509295509295909350565b60006134ee8383613549565b60208301905092915050565b60006135068383613751565b905092915050565b600061351a838361388e565b905092915050565b600061352e8383614393565b60208301905092915050565b61354381614ec0565b82525050565b61355281614e4e565b82525050565b61356181614e4e565b82525050565b600061357282614d45565b61357c8185614dbb565b935061358783614cdb565b8060005b838110156135b857815161359f88826134e2565b97506135aa83614d87565b92505060018101905061358b565b5085935050505092915050565b60006135d082614d50565b6135da8185614dcc565b9350836020820285016135ec85614ceb565b8060005b85811015613628578484038952815161360985826134fa565b945061361483614d94565b925060208a019950506001810190506135f0565b50829750879550505050505092915050565b600061364582614d5b565b61364f8185614ddd565b93508360208202850161366185614cfb565b8060005b8581101561369d578484038952815161367e858261350e565b945061368983614da1565b925060208a01995050600181019050613665565b50829750879550505050505092915050565b60006136ba82614d66565b6136c48185614dee565b93506136cf83614d0b565b8060005b838110156137005781516136e78882613522565b97506136f283614dae565b9250506001810190506136d3565b5085935050505092915050565b61371681614e60565b82525050565b61372581614e60565b82525050565b61373481614e6c565b82525050565b61374b61374682614e6c565b614fa4565b82525050565b600061375c82614d71565b6137668185614dff565b9350613776818560208601614f71565b61377f81614fae565b840191505092915050565b600061379582614d71565b61379f8185614e10565b93506137af818560208601614f71565b6137b881614fae565b840191505092915050565b6000815460018116600081146137e057600181146138065761384a565b607f60028304166137f18187614e10565b955060ff19831686526020860193505061384a565b600282046138148187614e10565b955061381f85614d1b565b60005b8281101561384157815481890152600182019150602081019050613822565b80880195505050505b505092915050565b61385b81614ed2565b82525050565b61386a81614ef6565b82525050565b61387981614f1a565b82525050565b61388881614f2c565b82525050565b600061389982614d7c565b6138a38185614e21565b93506138b3818560208601614f71565b6138bc81614fae565b840191505092915050565b60006138d282614d7c565b6138dc8185614e32565b93506138ec818560208601614f71565b6138f581614fae565b840191505092915050565b60008154600181166000811461391d576001811461394357613987565b607f600283041661392e8187614e32565b955060ff198316865260208601935050613987565b600282046139518187614e32565b955061395c85614d30565b60005b8281101561397e5781548189015260018201915060208101905061395f565b80880195505050505b505092915050565b600061399c603983614e32565b91507f476f7665726e6f72416c7068613a3a5f5f61636365707441646d696e3a20736560008301527f6e646572206d75737420626520676f7620677561726469616e000000000000006020830152604082019050919050565b6000613a02604483614e32565b91507f476f7665726e6f72416c7068613a3a71756575653a2070726f706f73616c206360008301527f616e206f6e6c792062652071756575656420696620697420697320737563636560208301527f65646564000000000000000000000000000000000000000000000000000000006040830152606082019050919050565b6000613a8e604583614e32565b91507f476f7665726e6f72416c7068613a3a657865637574653a2070726f706f73616c60008301527f2063616e206f6e6c79206265206578656375746564206966206974206973207160208301527f75657565640000000000000000000000000000000000000000000000000000006040830152606082019050919050565b6000613b1a600283614e43565b91507f19010000000000000000000000000000000000000000000000000000000000006000830152600282019050919050565b6000613b5a604c83614e32565b91507f476f7665726e6f72416c7068613a3a5f5f6578656375746553657454696d656c60008301527f6f636b50656e64696e6741646d696e3a2073656e646572206d7573742062652060208301527f676f7620677561726469616e00000000000000000000000000000000000000006040830152606082019050919050565b6000613be6601883614e32565b91507f73657450656e64696e6741646d696e28616464726573732900000000000000006000830152602082019050919050565b6000613c26602983614e32565b91507f476f7665726e6f72416c7068613a3a73746174653a20696e76616c696420707260008301527f6f706f73616c20696400000000000000000000000000000000000000000000006020830152604082019050919050565b6000613c8c602d83614e32565b91507f476f7665726e6f72416c7068613a3a5f63617374566f74653a20766f7465722060008301527f616c726561647920766f746564000000000000000000000000000000000000006020830152604082019050919050565b6000613cf2605983614e32565b91507f476f7665726e6f72416c7068613a3a70726f706f73653a206f6e65206c69766560008301527f2070726f706f73616c207065722070726f706f7365722c20666f756e6420616e60208301527f20616c72656164792070656e64696e672070726f706f73616c000000000000006040830152606082019050919050565b6000613d7e604a83614e32565b91507f476f7665726e6f72416c7068613a3a5f5f717565756553657454696d656c6f6360008301527f6b50656e64696e6741646d696e3a2073656e646572206d75737420626520676f60208301527f7620677561726469616e000000000000000000000000000000000000000000006040830152606082019050919050565b6000613e0a602883614e32565b91507f476f7665726e6f72416c7068613a3a70726f706f73653a20746f6f206d616e7960008301527f20616374696f6e730000000000000000000000000000000000000000000000006020830152604082019050919050565b6000613e70601183614e32565b91507f6164646974696f6e206f766572666c6f770000000000000000000000000000006000830152602082019050919050565b6000613eb0604483614e32565b91507f476f7665726e6f72416c7068613a3a70726f706f73653a2070726f706f73616c60008301527f2066756e6374696f6e20696e666f726d6174696f6e206172697479206d69736d60208301527f61746368000000000000000000000000000000000000000000000000000000006040830152606082019050919050565b6000613f3c602f83614e32565b91507f476f7665726e6f72416c7068613a3a63616e63656c3a2070726f706f7365722060008301527f61626f7665207468726573686f6c6400000000000000000000000000000000006020830152604082019050919050565b6000613fa2604483614e32565b91507f476f7665726e6f72416c7068613a3a5f71756575654f725265766572743a207060008301527f726f706f73616c20616374696f6e20616c72656164792071756575656420617460208301527f20657461000000000000000000000000000000000000000000000000000000006040830152606082019050919050565b600061402e602c83614e32565b91507f476f7665726e6f72416c7068613a3a70726f706f73653a206d7573742070726f60008301527f7669646520616374696f6e7300000000000000000000000000000000000000006020830152604082019050919050565b6000614094603f83614e32565b91507f476f7665726e6f72416c7068613a3a70726f706f73653a2070726f706f73657260008301527f20766f7465732062656c6f772070726f706f73616c207468726573686f6c64006020830152604082019050919050565b60006140fa602f83614e32565b91507f476f7665726e6f72416c7068613a3a63617374566f746542795369673a20696e60008301527f76616c6964207369676e617475726500000000000000000000000000000000006020830152604082019050919050565b6000614160605883614e32565b91507f476f7665726e6f72416c7068613a3a70726f706f73653a206f6e65206c69766560008301527f2070726f706f73616c207065722070726f706f7365722c20666f756e6420616e60208301527f20616c7265616479206163746976652070726f706f73616c00000000000000006040830152606082019050919050565b60006141ec603683614e32565b91507f476f7665726e6f72416c7068613a3a63616e63656c3a2063616e6e6f7420636160008301527f6e63656c2065786563757465642070726f706f73616c000000000000000000006020830152604082019050919050565b6000614252602a83614e32565b91507f476f7665726e6f72416c7068613a3a5f63617374566f74653a20766f74696e6760008301527f20697320636c6f736564000000000000000000000000000000000000000000006020830152604082019050919050565b60006142b8601583614e32565b91507f7375627472616374696f6e20756e646572666c6f7700000000000000000000006000830152602082019050919050565b60006142f8603683614e32565b91507f476f7665726e6f72416c7068613a3a5f5f61626469636174653a2073656e646560008301527f72206d75737420626520676f7620677561726469616e000000000000000000006020830152604082019050919050565b606082016000820151614367600085018261370d565b50602082015161437a602085018261370d565b50604082015161438d6040850182614393565b50505050565b61439c81614ea9565b82525050565b6143ab81614ea9565b82525050565b6143ba81614eb3565b82525050565b60006143cb82613b0d565b91506143d7828561373a565b6020820191506143e7828461373a565b6020820191508190509392505050565b600060208201905061440c6000830184613558565b92915050565b6000604082019050614427600083018561353a565b61443460208301846143a2565b9392505050565b600060a0820190506144506000830187613558565b61445d602083018661387f565b818103604083015261446e81613bd9565b90508181036060830152614482818561378a565b905061449160808301846143a2565b95945050505050565b60006040820190506144af6000830185613558565b6144bc60208301846143a2565b9392505050565b60006080820190506144d86000830187613558565b6144e560208301866143a2565b6144f2604083018561371c565b6144ff60608301846143a2565b95945050505050565b600060a08201905061451d6000830188613558565b61452a60208301876143a2565b818103604083015261453c81866138c7565b90508181036060830152614550818561378a565b905061455f60808301846143a2565b9695505050505050565b600060a08201905061457e6000830188613558565b61458b60208301876143a2565b818103604083015261459d8186613900565b905081810360608301526145b181856137c3565b90506145c060808301846143a2565b9695505050505050565b600060808201905081810360008301526145e48187613567565b905081810360208301526145f881866136af565b9050818103604083015261460c818561363a565b9050818103606083015261462081846135c5565b905095945050505050565b6000602082019050614640600083018461372b565b92915050565b600060808201905061465b600083018761372b565b614668602083018661372b565b61467560408301856143a2565b6146826060830184613558565b95945050505050565b60006060820190506146a0600083018661372b565b6146ad60208301856143a2565b6146ba604083018461371c565b949350505050565b60006080820190506146d7600083018761372b565b6146e460208301866143b1565b6146f1604083018561372b565b6146fe606083018461372b565b95945050505050565b600060208201905061471c6000830184613852565b92915050565b60006020820190506147376000830184613861565b92915050565b60006020820190506147526000830184613870565b92915050565b6000602082019050818103600083015261477281846138c7565b905092915050565b600060208201905081810360008301526147938161398f565b9050919050565b600060208201905081810360008301526147b3816139f5565b9050919050565b600060208201905081810360008301526147d381613a81565b9050919050565b600060208201905081810360008301526147f381613b4d565b9050919050565b6000602082019050818103600083015261481381613c19565b9050919050565b6000602082019050818103600083015261483381613c7f565b9050919050565b6000602082019050818103600083015261485381613ce5565b9050919050565b6000602082019050818103600083015261487381613d71565b9050919050565b6000602082019050818103600083015261489381613dfd565b9050919050565b600060208201905081810360008301526148b381613e63565b9050919050565b600060208201905081810360008301526148d381613ea3565b9050919050565b600060208201905081810360008301526148f381613f2f565b9050919050565b6000602082019050818103600083015261491381613f95565b9050919050565b6000602082019050818103600083015261493381614021565b9050919050565b6000602082019050818103600083015261495381614087565b9050919050565b60006020820190508181036000830152614973816140ed565b9050919050565b6000602082019050818103600083015261499381614153565b9050919050565b600060208201905081810360008301526149b3816141df565b9050919050565b600060208201905081810360008301526149d381614245565b9050919050565b600060208201905081810360008301526149f3816142ab565b9050919050565b60006020820190508181036000830152614a13816142eb565b9050919050565b6000606082019050614a2f6000830184614351565b92915050565b6000602082019050614a4a60008301846143a2565b92915050565b600061012082019050614a66600083018c6143a2565b614a73602083018b61353a565b8181036040830152614a85818a613567565b90508181036060830152614a9981896136af565b90508181036080830152614aad818861363a565b905081810360a0830152614ac181876135c5565b9050614ad060c08301866143a2565b614add60e08301856143a2565b818103610100830152614af081846138c7565b90509a9950505050505050505050565b600061012082019050614b16600083018c6143a2565b614b23602083018b613558565b614b30604083018a6143a2565b614b3d60608301896143a2565b614b4a60808301886143a2565b614b5760a08301876143a2565b614b6460c08301866143a2565b614b7160e083018561371c565b614b7f61010083018461371c565b9a9950505050505050505050565b6000604082019050614ba260008301856143a2565b614baf60208301846143a2565b9392505050565b6000604051905081810181811067ffffffffffffffff82111715614bd957600080fd5b8060405250919050565b600067ffffffffffffffff821115614bfa57600080fd5b602082029050602081019050919050565b600067ffffffffffffffff821115614c2257600080fd5b602082029050602081019050919050565b600067ffffffffffffffff821115614c4a57600080fd5b602082029050602081019050919050565b600067ffffffffffffffff821115614c7257600080fd5b602082029050602081019050919050565b600067ffffffffffffffff821115614c9a57600080fd5b601f19601f8301169050602081019050919050565b600067ffffffffffffffff821115614cc657600080fd5b601f19601f8301169050602081019050919050565b6000819050602082019050919050565b6000819050602082019050919050565b6000819050602082019050919050565b6000819050602082019050919050565b60008190508160005260206000209050919050565b60008190508160005260206000209050919050565b600081519050919050565b600081519050919050565b600081519050919050565b600081519050919050565b600081519050919050565b600081519050919050565b6000602082019050919050565b6000602082019050919050565b6000602082019050919050565b6000602082019050919050565b600082825260208201905092915050565b600082825260208201905092915050565b600082825260208201905092915050565b600082825260208201905092915050565b600082825260208201905092915050565b600082825260208201905092915050565b600082825260208201905092915050565b600082825260208201905092915050565b600081905092915050565b6000614e5982614e89565b9050919050565b60008115159050919050565b6000819050919050565b6000819050614e8482614fbf565b919050565b600073ffffffffffffffffffffffffffffffffffffffff82169050919050565b6000819050919050565b600060ff82169050919050565b6000614ecb82614f3e565b9050919050565b6000614edd82614ee4565b9050919050565b6000614eef82614e89565b9050919050565b6000614f0182614f08565b9050919050565b6000614f1382614e89565b9050919050565b6000614f2582614e76565b9050919050565b6000614f3782614ea9565b9050919050565b6000614f4982614f50565b9050919050565b6000614f5b82614e89565b9050919050565b82818337600083830152505050565b60005b83811015614f8f578082015181840152602081019050614f74565b83811115614f9e576000848401525b50505050565b6000819050919050565b6000601f19601f8301169050919050565b60088110614fc957fe5b50565b614fd581614e4e565b8114614fe057600080fd5b50565b614fec81614e60565b8114614ff757600080fd5b50565b61500381614e6c565b811461500e57600080fd5b50565b61501a81614ea9565b811461502557600080fd5b50565b61503181614eb3565b811461503c57600080fd5b5056fea2646970667358221220872b0b2ddb9ea79cafffc6262db8c86a631735dadf05669c6efa17b11e514d2964736f6c634300060c0033",
			"opcodes": "PUSH1 0x80 PUSH1 0x40 MSTORE CALLVALUE DUP1 ISZERO PUSH3 0x11 JUMPI PUSH1 0x0 DUP1 REVERT JUMPDEST POP PUSH1 0x40 MLOAD PUSH3 0x5242 CODESIZE SUB DUP1 PUSH3 0x5242 DUP4 CODECOPY DUP2 DUP2 ADD PUSH1 0x40 MSTORE DUP2 ADD SWAP1 PUSH3 0x37 SWAP2 SWAP1 PUSH3 0x119 JUMP JUMPDEST DUP3 PUSH1 0x0 DUP1 PUSH2 0x100 EXP DUP2 SLOAD DUP2 PUSH20 0xFFFFFFFFFFFFFFFFFFFFFFFFFFFFFFFFFFFFFFFF MUL NOT AND SWAP1 DUP4 PUSH20 0xFFFFFFFFFFFFFFFFFFFFFFFFFFFFFFFFFFFFFFFF AND MUL OR SWAP1 SSTORE POP DUP2 PUSH1 0x1 PUSH1 0x0 PUSH2 0x100 EXP DUP2 SLOAD DUP2 PUSH20 0xFFFFFFFFFFFFFFFFFFFFFFFFFFFFFFFFFFFFFFFF MUL NOT AND SWAP1 DUP4 PUSH20 0xFFFFFFFFFFFFFFFFFFFFFFFFFFFFFFFFFFFFFFFF AND MUL OR SWAP1 SSTORE POP DUP1 PUSH1 0x2 PUSH1 0x0 PUSH2 0x100 EXP DUP2 SLOAD DUP2 PUSH20 0xFFFFFFFFFFFFFFFFFFFFFFFFFFFFFFFFFFFFFFFF MUL NOT AND SWAP1 DUP4 PUSH20 0xFFFFFFFFFFFFFFFFFFFFFFFFFFFFFFFFFFFFFFFF AND MUL OR SWAP1 SSTORE POP POP POP POP PUSH3 0x1BD JUMP JUMPDEST PUSH1 0x0 DUP2 MLOAD SWAP1 POP PUSH3 0x113 DUP2 PUSH3 0x1A3 JUMP JUMPDEST SWAP3 SWAP2 POP POP JUMP JUMPDEST PUSH1 0x0 DUP1 PUSH1 0x0 PUSH1 0x60 DUP5 DUP7 SUB SLT ISZERO PUSH3 0x12F JUMPI PUSH1 0x0 DUP1 REVERT JUMPDEST PUSH1 0x0 PUSH3 0x13F DUP7 DUP3 DUP8 ADD PUSH3 0x102 JUMP JUMPDEST SWAP4 POP POP PUSH1 0x20 PUSH3 0x152 DUP7 DUP3 DUP8 ADD PUSH3 0x102 JUMP JUMPDEST SWAP3 POP POP PUSH1 0x40 PUSH3 0x165 DUP7 DUP3 DUP8 ADD PUSH3 0x102 JUMP JUMPDEST SWAP2 POP POP SWAP3 POP SWAP3 POP SWAP3 JUMP JUMPDEST PUSH1 0x0 PUSH3 0x17C DUP3 PUSH3 0x183 JUMP JUMPDEST SWAP1 POP SWAP2 SWAP1 POP JUMP JUMPDEST PUSH1 0x0 PUSH20 0xFFFFFFFFFFFFFFFFFFFFFFFFFFFFFFFFFFFFFFFF DUP3 AND SWAP1 POP SWAP2 SWAP1 POP JUMP JUMPDEST PUSH3 0x1AE DUP2 PUSH3 0x16F JUMP JUMPDEST DUP2 EQ PUSH3 0x1BA JUMPI PUSH1 0x0 DUP1 REVERT JUMPDEST POP JUMP JUMPDEST PUSH2 0x5075 DUP1 PUSH3 0x1CD PUSH1 0x0 CODECOPY PUSH1 0x0 RETURN INVALID PUSH1 0x80 PUSH1 0x40 MSTORE PUSH1 0x4 CALLDATASIZE LT PUSH2 0x19C JUMPI PUSH1 0x0 CALLDATALOAD PUSH1 0xE0 SHR DUP1 PUSH4 0x452A9320 GT PUSH2 0xEC JUMPI DUP1 PUSH4 0xD33219B4 GT PUSH2 0x8A JUMPI DUP1 PUSH4 0xDDF0B009 GT PUSH2 0x64 JUMPI DUP1 PUSH4 0xDDF0B009 EQ PUSH2 0x5B1 JUMPI DUP1 PUSH4 0xDEAAA7CC EQ PUSH2 0x5DA JUMPI DUP1 PUSH4 0xE23A9A52 EQ PUSH2 0x605 JUMPI DUP1 PUSH4 0xFE0D94C1 EQ PUSH2 0x642 JUMPI PUSH2 0x19C JUMP JUMPDEST DUP1 PUSH4 0xD33219B4 EQ PUSH2 0x51E JUMPI DUP1 PUSH4 0xDA35C664 EQ PUSH2 0x549 JUMPI DUP1 PUSH4 0xDA95691A EQ PUSH2 0x574 JUMPI PUSH2 0x19C JUMP JUMPDEST DUP1 PUSH4 0x7BDBE4D0 GT PUSH2 0xC6 JUMPI DUP1 PUSH4 0x7BDBE4D0 EQ PUSH2 0x488 JUMPI DUP1 PUSH4 0x91500671 EQ PUSH2 0x4B3 JUMPI DUP1 PUSH4 0xB58131B0 EQ PUSH2 0x4DC JUMPI DUP1 PUSH4 0xB9A61961 EQ PUSH2 0x507 JUMPI PUSH2 0x19C JUMP JUMPDEST DUP1 PUSH4 0x452A9320 EQ PUSH2 0x41D JUMPI DUP1 PUSH4 0x4634C61F EQ PUSH2 0x448 JUMPI DUP1 PUSH4 0x760FBC13 EQ PUSH2 0x471 JUMPI PUSH2 0x19C JUMP JUMPDEST DUP1 PUSH4 0x20606B70 GT PUSH2 0x159 JUMPI DUP1 PUSH4 0x328DD982 GT PUSH2 0x133 JUMPI DUP1 PUSH4 0x328DD982 EQ PUSH2 0x34C JUMPI DUP1 PUSH4 0x3932ABB1 EQ PUSH2 0x38C JUMPI DUP1 PUSH4 0x3E4F49E6 EQ PUSH2 0x3B7 JUMPI DUP1 PUSH4 0x40E58EE5 EQ PUSH2 0x3F4 JUMPI PUSH2 0x19C JUMP JUMPDEST DUP1 PUSH4 0x20606B70 EQ PUSH2 0x2CD JUMPI DUP1 PUSH4 0x21F43E42 EQ PUSH2 0x2F8 JUMPI DUP1 PUSH4 0x24BC1A64 EQ PUSH2 0x321 JUMPI PUSH2 0x19C JUMP JUMPDEST DUP1 PUSH4 0x13CF08B EQ PUSH2 0x1A1 JUMPI DUP1 PUSH4 0x2A251A3 EQ PUSH2 0x1E6 JUMPI DUP1 PUSH4 0x6FDDE03 EQ PUSH2 0x211 JUMPI DUP1 PUSH4 0xA087903 EQ PUSH2 0x23C JUMPI DUP1 PUSH4 0x15373E3D EQ PUSH2 0x267 JUMPI DUP1 PUSH4 0x17977C61 EQ PUSH2 0x290 JUMPI JUMPDEST PUSH1 0x0 DUP1 REVERT JUMPDEST CALLVALUE DUP1 ISZERO PUSH2 0x1AD JUMPI PUSH1 0x0 DUP1 REVERT JUMPDEST POP PUSH2 0x1C8 PUSH1 0x4 DUP1 CALLDATASIZE SUB DUP2 ADD SWAP1 PUSH2 0x1C3 SWAP2 SWAP1 PUSH2 0x33A1 JUMP JUMPDEST PUSH2 0x65E JUMP JUMPDEST PUSH1 0x40 MLOAD PUSH2 0x1DD SWAP10 SWAP9 SWAP8 SWAP7 SWAP6 SWAP5 SWAP4 SWAP3 SWAP2 SWAP1 PUSH2 0x4B00 JUMP JUMPDEST PUSH1 0x40 MLOAD DUP1 SWAP2 SUB SWAP1 RETURN JUMPDEST CALLVALUE DUP1 ISZERO PUSH2 0x1F2 JUMPI PUSH1 0x0 DUP1 REVERT JUMPDEST POP PUSH2 0x1FB PUSH2 0x6E6 JUMP JUMPDEST PUSH1 0x40 MLOAD PUSH2 0x208 SWAP2 SWAP1 PUSH2 0x4A35 JUMP JUMPDEST PUSH1 0x40 MLOAD DUP1 SWAP2 SUB SWAP1 RETURN JUMPDEST CALLVALUE DUP1 ISZERO PUSH2 0x21D JUMPI PUSH1 0x0 DUP1 REVERT JUMPDEST POP PUSH2 0x226 PUSH2 0x6F0 JUMP JUMPDEST PUSH1 0x40 MLOAD PUSH2 0x233 SWAP2 SWAP1 PUSH2 0x4758 JUMP JUMPDEST PUSH1 0x40 MLOAD DUP1 SWAP2 SUB SWAP1 RETURN JUMPDEST CALLVALUE DUP1 ISZERO PUSH2 0x248 JUMPI PUSH1 0x0 DUP1 REVERT JUMPDEST POP PUSH2 0x251 PUSH2 0x729 JUMP JUMPDEST PUSH1 0x40 MLOAD PUSH2 0x25E SWAP2 SWAP1 PUSH2 0x4707 JUMP JUMPDEST PUSH1 0x40 MLOAD DUP1 SWAP2 SUB SWAP1 RETURN JUMPDEST CALLVALUE DUP1 ISZERO PUSH2 0x273 JUMPI PUSH1 0x0 DUP1 REVERT JUMPDEST POP PUSH2 0x28E PUSH1 0x4 DUP1 CALLDATASIZE SUB DUP2 ADD SWAP1 PUSH2 0x289 SWAP2 SWAP1 PUSH2 0x342F JUMP JUMPDEST PUSH2 0x74F JUMP JUMPDEST STOP JUMPDEST CALLVALUE DUP1 ISZERO PUSH2 0x29C JUMPI PUSH1 0x0 DUP1 REVERT JUMPDEST POP PUSH2 0x2B7 PUSH1 0x4 DUP1 CALLDATASIZE SUB DUP2 ADD SWAP1 PUSH2 0x2B2 SWAP2 SWAP1 PUSH2 0x31BA JUMP JUMPDEST PUSH2 0x75E JUMP JUMPDEST PUSH1 0x40 MLOAD PUSH2 0x2C4 SWAP2 SWAP1 PUSH2 0x4A35 JUMP JUMPDEST PUSH1 0x40 MLOAD DUP1 SWAP2 SUB SWAP1 RETURN JUMPDEST CALLVALUE DUP1 ISZERO PUSH2 0x2D9 JUMPI PUSH1 0x0 DUP1 REVERT JUMPDEST POP PUSH2 0x2E2 PUSH2 0x776 JUMP JUMPDEST PUSH1 0x40 MLOAD PUSH2 0x2EF SWAP2 SWAP1 PUSH2 0x462B JUMP JUMPDEST PUSH1 0x40 MLOAD DUP1 SWAP2 SUB SWAP1 RETURN JUMPDEST CALLVALUE DUP1 ISZERO PUSH2 0x304 JUMPI PUSH1 0x0 DUP1 REVERT JUMPDEST POP PUSH2 0x31F PUSH1 0x4 DUP1 CALLDATASIZE SUB DUP2 ADD SWAP1 PUSH2 0x31A SWAP2 SWAP1 PUSH2 0x31E3 JUMP JUMPDEST PUSH2 0x79A JUMP JUMPDEST STOP JUMPDEST CALLVALUE DUP1 ISZERO PUSH2 0x32D JUMPI PUSH1 0x0 DUP1 REVERT JUMPDEST POP PUSH2 0x336 PUSH2 0x925 JUMP JUMPDEST PUSH1 0x40 MLOAD PUSH2 0x343 SWAP2 SWAP1 PUSH2 0x4A35 JUMP JUMPDEST PUSH1 0x40 MLOAD DUP1 SWAP2 SUB SWAP1 RETURN JUMPDEST CALLVALUE DUP1 ISZERO PUSH2 0x358 JUMPI PUSH1 0x0 DUP1 REVERT JUMPDEST POP PUSH2 0x373 PUSH1 0x4 DUP1 CALLDATASIZE SUB DUP2 ADD SWAP1 PUSH2 0x36E SWAP2 SWAP1 PUSH2 0x33A1 JUMP JUMPDEST PUSH2 0x9D6 JUMP JUMPDEST PUSH1 0x40 MLOAD PUSH2 0x383 SWAP5 SWAP4 SWAP3 SWAP2 SWAP1 PUSH2 0x45CA JUMP JUMPDEST PUSH1 0x40 MLOAD DUP1 SWAP2 SUB SWAP1 RETURN JUMPDEST CALLVALUE DUP1 ISZERO PUSH2 0x398 JUMPI PUSH1 0x0 DUP1 REVERT JUMPDEST POP PUSH2 0x3A1 PUSH2 0xCB3 JUMP JUMPDEST PUSH1 0x40 MLOAD PUSH2 0x3AE SWAP2 SWAP1 PUSH2 0x4A35 JUMP JUMPDEST PUSH1 0x40 MLOAD DUP1 SWAP2 SUB SWAP1 RETURN JUMPDEST CALLVALUE DUP1 ISZERO PUSH2 0x3C3 JUMPI PUSH1 0x0 DUP1 REVERT JUMPDEST POP PUSH2 0x3DE PUSH1 0x4 DUP1 CALLDATASIZE SUB DUP2 ADD SWAP1 PUSH2 0x3D9 SWAP2 SWAP1 PUSH2 0x33A1 JUMP JUMPDEST PUSH2 0xCBC JUMP JUMPDEST PUSH1 0x40 MLOAD PUSH2 0x3EB SWAP2 SWAP1 PUSH2 0x473D JUMP JUMPDEST PUSH1 0x40 MLOAD DUP1 SWAP2 SUB SWAP1 RETURN JUMPDEST CALLVALUE DUP1 ISZERO PUSH2 0x400 JUMPI PUSH1 0x0 DUP1 REVERT JUMPDEST POP PUSH2 0x41B PUSH1 0x4 DUP1 CALLDATASIZE SUB DUP2 ADD SWAP1 PUSH2 0x416 SWAP2 SWAP1 PUSH2 0x33A1 JUMP JUMPDEST PUSH2 0xE9F JUMP JUMPDEST STOP JUMPDEST CALLVALUE DUP1 ISZERO PUSH2 0x429 JUMPI PUSH1 0x0 DUP1 REVERT JUMPDEST POP PUSH2 0x432 PUSH2 0x1229 JUMP JUMPDEST PUSH1 0x40 MLOAD PUSH2 0x43F SWAP2 SWAP1 PUSH2 0x43F7 JUMP JUMPDEST PUSH1 0x40 MLOAD DUP1 SWAP2 SUB SWAP1 RETURN JUMPDEST CALLVALUE DUP1 ISZERO PUSH2 0x454 JUMPI PUSH1 0x0 DUP1 REVERT JUMPDEST POP PUSH2 0x46F PUSH1 0x4 DUP1 CALLDATASIZE SUB DUP2 ADD SWAP1 PUSH2 0x46A SWAP2 SWAP1 PUSH2 0x346B JUMP JUMPDEST PUSH2 0x124F JUMP JUMPDEST STOP JUMPDEST CALLVALUE DUP1 ISZERO PUSH2 0x47D JUMPI PUSH1 0x0 DUP1 REVERT JUMPDEST POP PUSH2 0x486 PUSH2 0x1438 JUMP JUMPDEST STOP JUMPDEST CALLVALUE DUP1 ISZERO PUSH2 0x494 JUMPI PUSH1 0x0 DUP1 REVERT JUMPDEST POP PUSH2 0x49D PUSH2 0x150C JUMP JUMPDEST PUSH1 0x40 MLOAD PUSH2 0x4AA SWAP2 SWAP1 PUSH2 0x4A35 JUMP JUMPDEST PUSH1 0x40 MLOAD DUP1 SWAP2 SUB SWAP1 RETURN JUMPDEST CALLVALUE DUP1 ISZERO PUSH2 0x4BF JUMPI PUSH1 0x0 DUP1 REVERT JUMPDEST POP PUSH2 0x4DA PUSH1 0x4 DUP1 CALLDATASIZE SUB DUP2 ADD SWAP1 PUSH2 0x4D5 SWAP2 SWAP1 PUSH2 0x31E3 JUMP JUMPDEST PUSH2 0x1515 JUMP JUMPDEST STOP JUMPDEST CALLVALUE DUP1 ISZERO PUSH2 0x4E8 JUMPI PUSH1 0x0 DUP1 REVERT JUMPDEST POP PUSH2 0x4F1 PUSH2 0x169B JUMP JUMPDEST PUSH1 0x40 MLOAD PUSH2 0x4FE SWAP2 SWAP1 PUSH2 0x4A35 JUMP JUMPDEST PUSH1 0x40 MLOAD DUP1 SWAP2 SUB SWAP1 RETURN JUMPDEST CALLVALUE DUP1 ISZERO PUSH2 0x513 JUMPI PUSH1 0x0 DUP1 REVERT JUMPDEST POP PUSH2 0x51C PUSH2 0x174C JUMP JUMPDEST STOP JUMPDEST CALLVALUE DUP1 ISZERO PUSH2 0x52A JUMPI PUSH1 0x0 DUP1 REVERT JUMPDEST POP PUSH2 0x533 PUSH2 0x185E JUMP JUMPDEST PUSH1 0x40 MLOAD PUSH2 0x540 SWAP2 SWAP1 PUSH2 0x4722 JUMP JUMPDEST PUSH1 0x40 MLOAD DUP1 SWAP2 SUB SWAP1 RETURN JUMPDEST CALLVALUE DUP1 ISZERO PUSH2 0x555 JUMPI PUSH1 0x0 DUP1 REVERT JUMPDEST POP PUSH2 0x55E PUSH2 0x1882 JUMP JUMPDEST PUSH1 0x40 MLOAD PUSH2 0x56B SWAP2 SWAP1 PUSH2 0x4A35 JUMP JUMPDEST PUSH1 0x40 MLOAD DUP1 SWAP2 SUB SWAP1 RETURN JUMPDEST CALLVALUE DUP1 ISZERO PUSH2 0x580 JUMPI PUSH1 0x0 DUP1 REVERT JUMPDEST POP PUSH2 0x59B PUSH1 0x4 DUP1 CALLDATASIZE SUB DUP2 ADD SWAP1 PUSH2 0x596 SWAP2 SWAP1 PUSH2 0x321F JUMP JUMPDEST PUSH2 0x1888 JUMP JUMPDEST PUSH1 0x40 MLOAD PUSH2 0x5A8 SWAP2 SWAP1 PUSH2 0x4A35 JUMP JUMPDEST PUSH1 0x40 MLOAD DUP1 SWAP2 SUB SWAP1 RETURN JUMPDEST CALLVALUE DUP1 ISZERO PUSH2 0x5BD JUMPI PUSH1 0x0 DUP1 REVERT JUMPDEST POP PUSH2 0x5D8 PUSH1 0x4 DUP1 CALLDATASIZE SUB DUP2 ADD SWAP1 PUSH2 0x5D3 SWAP2 SWAP1 PUSH2 0x33A1 JUMP JUMPDEST PUSH2 0x1E47 JUMP JUMPDEST STOP JUMPDEST CALLVALUE DUP1 ISZERO PUSH2 0x5E6 JUMPI PUSH1 0x0 DUP1 REVERT JUMPDEST POP PUSH2 0x5EF PUSH2 0x2192 JUMP JUMPDEST PUSH1 0x40 MLOAD PUSH2 0x5FC SWAP2 SWAP1 PUSH2 0x462B JUMP JUMPDEST PUSH1 0x40 MLOAD DUP1 SWAP2 SUB SWAP1 RETURN JUMPDEST CALLVALUE DUP1 ISZERO PUSH2 0x611 JUMPI PUSH1 0x0 DUP1 REVERT JUMPDEST POP PUSH2 0x62C PUSH1 0x4 DUP1 CALLDATASIZE SUB DUP2 ADD SWAP1 PUSH2 0x627 SWAP2 SWAP1 PUSH2 0x33F3 JUMP JUMPDEST PUSH2 0x21B6 JUMP JUMPDEST PUSH1 0x40 MLOAD PUSH2 0x639 SWAP2 SWAP1 PUSH2 0x4A1A JUMP JUMPDEST PUSH1 0x40 MLOAD DUP1 SWAP2 SUB SWAP1 RETURN JUMPDEST PUSH2 0x65C PUSH1 0x4 DUP1 CALLDATASIZE SUB DUP2 ADD SWAP1 PUSH2 0x657 SWAP2 SWAP1 PUSH2 0x33A1 JUMP JUMPDEST PUSH2 0x2264 JUMP JUMPDEST STOP JUMPDEST PUSH1 0x4 PUSH1 0x20 MSTORE DUP1 PUSH1 0x0 MSTORE PUSH1 0x40 PUSH1 0x0 KECCAK256 PUSH1 0x0 SWAP2 POP SWAP1 POP DUP1 PUSH1 0x0 ADD SLOAD SWAP1 DUP1 PUSH1 0x1 ADD PUSH1 0x0 SWAP1 SLOAD SWAP1 PUSH2 0x100 EXP SWAP1 DIV PUSH20 0xFFFFFFFFFFFFFFFFFFFFFFFFFFFFFFFFFFFFFFFF AND SWAP1 DUP1 PUSH1 0x2 ADD SLOAD SWAP1 DUP1 PUSH1 0x7 ADD SLOAD SWAP1 DUP1 PUSH1 0x8 ADD SLOAD SWAP1 DUP1 PUSH1 0x9 ADD SLOAD SWAP1 DUP1 PUSH1 0xA ADD SLOAD SWAP1 DUP1 PUSH1 0xB ADD PUSH1 0x0 SWAP1 SLOAD SWAP1 PUSH2 0x100 EXP SWAP1 DIV PUSH1 0xFF AND SWAP1 DUP1 PUSH1 0xB ADD PUSH1 0x1 SWAP1 SLOAD SWAP1 PUSH2 0x100 EXP SWAP1 DIV PUSH1 0xFF AND SWAP1 POP DUP10 JUMP JUMPDEST PUSH1 0x0 PUSH2 0x4380 SWAP1 POP SWAP1 JUMP JUMPDEST PUSH1 0x40 MLOAD DUP1 PUSH1 0x40 ADD PUSH1 0x40 MSTORE DUP1 PUSH1 0x14 DUP2 MSTORE PUSH1 0x20 ADD PUSH32 0x537573686920476F7665726E6F7220416C706861000000000000000000000000 DUP2 MSTORE POP DUP2 JUMP JUMPDEST PUSH1 0x1 PUSH1 0x0 SWAP1 SLOAD SWAP1 PUSH2 0x100 EXP SWAP1 DIV PUSH20 0xFFFFFFFFFFFFFFFFFFFFFFFFFFFFFFFFFFFFFFFF AND DUP2 JUMP JUMPDEST PUSH2 0x75A CALLER DUP4 DUP4 PUSH2 0x24AD JUMP JUMPDEST POP POP JUMP JUMPDEST PUSH1 0x5 PUSH1 0x20 MSTORE DUP1 PUSH1 0x0 MSTORE PUSH1 0x40 PUSH1 0x0 KECCAK256 PUSH1 0x0 SWAP2 POP SWAP1 POP SLOAD DUP2 JUMP JUMPDEST PUSH32 0x8CAD95687BA82C2CE50E74F7B754645E5117C3A5BEC8151C0726D5857980A866 DUP2 JUMP JUMPDEST PUSH1 0x2 PUSH1 0x0 SWAP1 SLOAD SWAP1 PUSH2 0x100 EXP SWAP1 DIV PUSH20 0xFFFFFFFFFFFFFFFFFFFFFFFFFFFFFFFFFFFFFFFF AND PUSH20 0xFFFFFFFFFFFFFFFFFFFFFFFFFFFFFFFFFFFFFFFF AND CALLER PUSH20 0xFFFFFFFFFFFFFFFFFFFFFFFFFFFFFFFFFFFFFFFF AND EQ PUSH2 0x82A JUMPI PUSH1 0x40 MLOAD PUSH32 0x8C379A000000000000000000000000000000000000000000000000000000000 DUP2 MSTORE PUSH1 0x4 ADD PUSH2 0x821 SWAP1 PUSH2 0x47DA JUMP JUMPDEST PUSH1 0x40 MLOAD DUP1 SWAP2 SUB SWAP1 REVERT JUMPDEST PUSH1 0x0 DUP1 SLOAD SWAP1 PUSH2 0x100 EXP SWAP1 DIV PUSH20 0xFFFFFFFFFFFFFFFFFFFFFFFFFFFFFFFFFFFFFFFF AND PUSH20 0xFFFFFFFFFFFFFFFFFFFFFFFFFFFFFFFFFFFFFFFF AND PUSH4 0x825F38F PUSH1 0x0 DUP1 SLOAD SWAP1 PUSH2 0x100 EXP SWAP1 DIV PUSH20 0xFFFFFFFFFFFFFFFFFFFFFFFFFFFFFFFFFFFFFFFF AND PUSH1 0x0 DUP6 PUSH1 0x40 MLOAD PUSH1 0x20 ADD PUSH2 0x89A SWAP2 SWAP1 PUSH2 0x43F7 JUMP JUMPDEST PUSH1 0x40 MLOAD PUSH1 0x20 DUP2 DUP4 SUB SUB DUP2 MSTORE SWAP1 PUSH1 0x40 MSTORE DUP6 PUSH1 0x40 MLOAD DUP6 PUSH4 0xFFFFFFFF AND PUSH1 0xE0 SHL DUP2 MSTORE PUSH1 0x4 ADD PUSH2 0x8C9 SWAP5 SWAP4 SWAP3 SWAP2 SWAP1 PUSH2 0x443B JUMP JUMPDEST PUSH1 0x0 PUSH1 0x40 MLOAD DUP1 DUP4 SUB DUP2 PUSH1 0x0 DUP8 DUP1 EXTCODESIZE ISZERO DUP1 ISZERO PUSH2 0x8E3 JUMPI PUSH1 0x0 DUP1 REVERT JUMPDEST POP GAS CALL ISZERO DUP1 ISZERO PUSH2 0x8F7 JUMPI RETURNDATASIZE PUSH1 0x0 DUP1 RETURNDATACOPY RETURNDATASIZE PUSH1 0x0 REVERT JUMPDEST POP POP POP POP PUSH1 0x40 MLOAD RETURNDATASIZE PUSH1 0x0 DUP3 RETURNDATACOPY RETURNDATASIZE PUSH1 0x1F NOT PUSH1 0x1F DUP3 ADD AND DUP3 ADD DUP1 PUSH1 0x40 MSTORE POP DUP2 ADD SWAP1 PUSH2 0x920 SWAP2 SWAP1 PUSH2 0x3360 JUMP JUMPDEST POP POP POP JUMP JUMPDEST PUSH1 0x0 PUSH1 0x19 PUSH1 0x1 PUSH1 0x0 SWAP1 SLOAD SWAP1 PUSH2 0x100 EXP SWAP1 DIV PUSH20 0xFFFFFFFFFFFFFFFFFFFFFFFFFFFFFFFFFFFFFFFF AND PUSH20 0xFFFFFFFFFFFFFFFFFFFFFFFFFFFFFFFFFFFFFFFF AND PUSH4 0x18160DDD PUSH1 0x40 MLOAD DUP2 PUSH4 0xFFFFFFFF AND PUSH1 0xE0 SHL DUP2 MSTORE PUSH1 0x4 ADD PUSH1 0x20 PUSH1 0x40 MLOAD DUP1 DUP4 SUB DUP2 DUP7 DUP1 EXTCODESIZE ISZERO DUP1 ISZERO PUSH2 0x991 JUMPI PUSH1 0x0 DUP1 REVERT JUMPDEST POP GAS STATICCALL ISZERO DUP1 ISZERO PUSH2 0x9A5 JUMPI RETURNDATASIZE PUSH1 0x0 DUP1 RETURNDATACOPY RETURNDATASIZE PUSH1 0x0 REVERT JUMPDEST POP POP POP POP PUSH1 0x40 MLOAD RETURNDATASIZE PUSH1 0x1F NOT PUSH1 0x1F DUP3 ADD AND DUP3 ADD DUP1 PUSH1 0x40 MSTORE POP DUP2 ADD SWAP1 PUSH2 0x9C9 SWAP2 SWAP1 PUSH2 0x33CA JUMP JUMPDEST DUP2 PUSH2 0x9D0 JUMPI INVALID JUMPDEST DIV SWAP1 POP SWAP1 JUMP JUMPDEST PUSH1 0x60 DUP1 PUSH1 0x60 DUP1 PUSH1 0x0 PUSH1 0x4 PUSH1 0x0 DUP8 DUP2 MSTORE PUSH1 0x20 ADD SWAP1 DUP2 MSTORE PUSH1 0x20 ADD PUSH1 0x0 KECCAK256 SWAP1 POP DUP1 PUSH1 0x3 ADD DUP2 PUSH1 0x4 ADD DUP3 PUSH1 0x5 ADD DUP4 PUSH1 0x6 ADD DUP4 DUP1 SLOAD DUP1 PUSH1 0x20 MUL PUSH1 0x20 ADD PUSH1 0x40 MLOAD SWAP1 DUP2 ADD PUSH1 0x40 MSTORE DUP1 SWAP3 SWAP2 SWAP1 DUP2 DUP2 MSTORE PUSH1 0x20 ADD DUP3 DUP1 SLOAD DUP1 ISZERO PUSH2 0xA84 JUMPI PUSH1 0x20 MUL DUP3 ADD SWAP2 SWAP1 PUSH1 0x0 MSTORE PUSH1 0x20 PUSH1 0x0 KECCAK256 SWAP1 JUMPDEST DUP2 PUSH1 0x0 SWAP1 SLOAD SWAP1 PUSH2 0x100 EXP SWAP1 DIV PUSH20 0xFFFFFFFFFFFFFFFFFFFFFFFFFFFFFFFFFFFFFFFF AND PUSH20 0xFFFFFFFFFFFFFFFFFFFFFFFFFFFFFFFFFFFFFFFF AND DUP2 MSTORE PUSH1 0x20 ADD SWAP1 PUSH1 0x1 ADD SWAP1 DUP1 DUP4 GT PUSH2 0xA3A JUMPI JUMPDEST POP POP POP POP POP SWAP4 POP DUP3 DUP1 SLOAD DUP1 PUSH1 0x20 MUL PUSH1 0x20 ADD PUSH1 0x40 MLOAD SWAP1 DUP2 ADD PUSH1 0x40 MSTORE DUP1 SWAP3 SWAP2 SWAP1 DUP2 DUP2 MSTORE PUSH1 0x20 ADD DUP3 DUP1 SLOAD DUP1 ISZERO PUSH2 0xAD6 JUMPI PUSH1 0x20 MUL DUP3 ADD SWAP2 SWAP1 PUSH1 0x0 MSTORE PUSH1 0x20 PUSH1 0x0 KECCAK256 SWAP1 JUMPDEST DUP2 SLOAD DUP2 MSTORE PUSH1 0x20 ADD SWAP1 PUSH1 0x1 ADD SWAP1 DUP1 DUP4 GT PUSH2 0xAC2 JUMPI JUMPDEST POP POP POP POP POP SWAP3 POP DUP2 DUP1 SLOAD DUP1 PUSH1 0x20 MUL PUSH1 0x20 ADD PUSH1 0x40 MLOAD SWAP1 DUP2 ADD PUSH1 0x40 MSTORE DUP1 SWAP3 SWAP2 SWAP1 DUP2 DUP2 MSTORE PUSH1 0x20 ADD PUSH1 0x0 SWAP1 JUMPDEST DUP3 DUP3 LT ISZERO PUSH2 0xBBA JUMPI DUP4 DUP3 SWAP1 PUSH1 0x0 MSTORE PUSH1 0x20 PUSH1 0x0 KECCAK256 ADD DUP1 SLOAD PUSH1 0x1 DUP2 PUSH1 0x1 AND ISZERO PUSH2 0x100 MUL SUB AND PUSH1 0x2 SWAP1 DIV DUP1 PUSH1 0x1F ADD PUSH1 0x20 DUP1 SWAP2 DIV MUL PUSH1 0x20 ADD PUSH1 0x40 MLOAD SWAP1 DUP2 ADD PUSH1 0x40 MSTORE DUP1 SWAP3 SWAP2 SWAP1 DUP2 DUP2 MSTORE PUSH1 0x20 ADD DUP3 DUP1 SLOAD PUSH1 0x1 DUP2 PUSH1 0x1 AND ISZERO PUSH2 0x100 MUL SUB AND PUSH1 0x2 SWAP1 DIV DUP1 ISZERO PUSH2 0xBA6 JUMPI DUP1 PUSH1 0x1F LT PUSH2 0xB7B JUMPI PUSH2 0x100 DUP1 DUP4 SLOAD DIV MUL DUP4 MSTORE SWAP2 PUSH1 0x20 ADD SWAP2 PUSH2 0xBA6 JUMP JUMPDEST DUP3 ADD SWAP2 SWAP1 PUSH1 0x0 MSTORE PUSH1 0x20 PUSH1 0x0 KECCAK256 SWAP1 JUMPDEST DUP2 SLOAD DUP2 MSTORE SWAP1 PUSH1 0x1 ADD SWAP1 PUSH1 0x20 ADD DUP1 DUP4 GT PUSH2 0xB89 JUMPI DUP3 SWAP1 SUB PUSH1 0x1F AND DUP3 ADD SWAP2 JUMPDEST POP POP POP POP POP DUP2 MSTORE PUSH1 0x20 ADD SWAP1 PUSH1 0x1 ADD SWAP1 PUSH2 0xAFE JUMP JUMPDEST POP POP POP POP SWAP2 POP DUP1 DUP1 SLOAD DUP1 PUSH1 0x20 MUL PUSH1 0x20 ADD PUSH1 0x40 MLOAD SWAP1 DUP2 ADD PUSH1 0x40 MSTORE DUP1 SWAP3 SWAP2 SWAP1 DUP2 DUP2 MSTORE PUSH1 0x20 ADD PUSH1 0x0 SWAP1 JUMPDEST DUP3 DUP3 LT ISZERO PUSH2 0xC9D JUMPI DUP4 DUP3 SWAP1 PUSH1 0x0 MSTORE PUSH1 0x20 PUSH1 0x0 KECCAK256 ADD DUP1 SLOAD PUSH1 0x1 DUP2 PUSH1 0x1 AND ISZERO PUSH2 0x100 MUL SUB AND PUSH1 0x2 SWAP1 DIV DUP1 PUSH1 0x1F ADD PUSH1 0x20 DUP1 SWAP2 DIV MUL PUSH1 0x20 ADD PUSH1 0x40 MLOAD SWAP1 DUP2 ADD PUSH1 0x40 MSTORE DUP1 SWAP3 SWAP2 SWAP1 DUP2 DUP2 MSTORE PUSH1 0x20 ADD DUP3 DUP1 SLOAD PUSH1 0x1 DUP2 PUSH1 0x1 AND ISZERO PUSH2 0x100 MUL SUB AND PUSH1 0x2 SWAP1 DIV DUP1 ISZERO PUSH2 0xC89 JUMPI DUP1 PUSH1 0x1F LT PUSH2 0xC5E JUMPI PUSH2 0x100 DUP1 DUP4 SLOAD DIV MUL DUP4 MSTORE SWAP2 PUSH1 0x20 ADD SWAP2 PUSH2 0xC89 JUMP JUMPDEST DUP3 ADD SWAP2 SWAP1 PUSH1 0x0 MSTORE PUSH1 0x20 PUSH1 0x0 KECCAK256 SWAP1 JUMPDEST DUP2 SLOAD DUP2 MSTORE SWAP1 PUSH1 0x1 ADD SWAP1 PUSH1 0x20 ADD DUP1 DUP4 GT PUSH2 0xC6C JUMPI DUP3 SWAP1 SUB PUSH1 0x1F AND DUP3 ADD SWAP2 JUMPDEST POP POP POP POP POP DUP2 MSTORE PUSH1 0x20 ADD SWAP1 PUSH1 0x1 ADD SWAP1 PUSH2 0xBE1 JUMP JUMPDEST POP POP POP POP SWAP1 POP SWAP5 POP SWAP5 POP SWAP5 POP SWAP5 POP POP SWAP2 SWAP4 POP SWAP2 SWAP4 JUMP JUMPDEST PUSH1 0x0 PUSH1 0x1 SWAP1 POP SWAP1 JUMP JUMPDEST PUSH1 0x0 DUP2 PUSH1 0x3 SLOAD LT ISZERO DUP1 ISZERO PUSH2 0xCD0 JUMPI POP PUSH1 0x0 DUP3 GT JUMPDEST PUSH2 0xD0F JUMPI PUSH1 0x40 MLOAD PUSH32 0x8C379A000000000000000000000000000000000000000000000000000000000 DUP2 MSTORE PUSH1 0x4 ADD PUSH2 0xD06 SWAP1 PUSH2 0x47FA JUMP JUMPDEST PUSH1 0x40 MLOAD DUP1 SWAP2 SUB SWAP1 REVERT JUMPDEST PUSH1 0x0 PUSH1 0x4 PUSH1 0x0 DUP5 DUP2 MSTORE PUSH1 0x20 ADD SWAP1 DUP2 MSTORE PUSH1 0x20 ADD PUSH1 0x0 KECCAK256 SWAP1 POP DUP1 PUSH1 0xB ADD PUSH1 0x0 SWAP1 SLOAD SWAP1 PUSH2 0x100 EXP SWAP1 DIV PUSH1 0xFF AND ISZERO PUSH2 0xD47 JUMPI PUSH1 0x2 SWAP2 POP POP PUSH2 0xE9A JUMP JUMPDEST DUP1 PUSH1 0x7 ADD SLOAD NUMBER GT PUSH2 0xD5C JUMPI PUSH1 0x0 SWAP2 POP POP PUSH2 0xE9A JUMP JUMPDEST DUP1 PUSH1 0x8 ADD SLOAD NUMBER GT PUSH2 0xD71 JUMPI PUSH1 0x1 SWAP2 POP POP PUSH2 0xE9A JUMP JUMPDEST DUP1 PUSH1 0xA ADD SLOAD DUP2 PUSH1 0x9 ADD SLOAD GT ISZERO DUP1 PUSH2 0xD92 JUMPI POP PUSH2 0xD8B PUSH2 0x925 JUMP JUMPDEST DUP2 PUSH1 0x9 ADD SLOAD LT JUMPDEST ISZERO PUSH2 0xDA1 JUMPI PUSH1 0x3 SWAP2 POP POP PUSH2 0xE9A JUMP JUMPDEST PUSH1 0x0 DUP2 PUSH1 0x2 ADD SLOAD EQ ISZERO PUSH2 0xDB8 JUMPI PUSH1 0x4 SWAP2 POP POP PUSH2 0xE9A JUMP JUMPDEST DUP1 PUSH1 0xB ADD PUSH1 0x1 SWAP1 SLOAD SWAP1 PUSH2 0x100 EXP SWAP1 DIV PUSH1 0xFF AND ISZERO PUSH2 0xDD9 JUMPI PUSH1 0x7 SWAP2 POP POP PUSH2 0xE9A JUMP JUMPDEST PUSH2 0xE84 DUP2 PUSH1 0x2 ADD SLOAD PUSH1 0x0 DUP1 SLOAD SWAP1 PUSH2 0x100 EXP SWAP1 DIV PUSH20 0xFFFFFFFFFFFFFFFFFFFFFFFFFFFFFFFFFFFFFFFF AND PUSH20 0xFFFFFFFFFFFFFFFFFFFFFFFFFFFFFFFFFFFFFFFF AND PUSH4 0xC1A287E2 PUSH1 0x40 MLOAD DUP2 PUSH4 0xFFFFFFFF AND PUSH1 0xE0 SHL DUP2 MSTORE PUSH1 0x4 ADD PUSH1 0x20 PUSH1 0x40 MLOAD DUP1 DUP4 SUB DUP2 DUP7 DUP1 EXTCODESIZE ISZERO DUP1 ISZERO PUSH2 0xE47 JUMPI PUSH1 0x0 DUP1 REVERT JUMPDEST POP GAS STATICCALL ISZERO DUP1 ISZERO PUSH2 0xE5B JUMPI RETURNDATASIZE PUSH1 0x0 DUP1 RETURNDATACOPY RETURNDATASIZE PUSH1 0x0 REVERT JUMPDEST POP POP POP POP PUSH1 0x40 MLOAD RETURNDATASIZE PUSH1 0x1F NOT PUSH1 0x1F DUP3 ADD AND DUP3 ADD DUP1 PUSH1 0x40 MSTORE POP DUP2 ADD SWAP1 PUSH2 0xE7F SWAP2 SWAP1 PUSH2 0x33CA JUMP JUMPDEST PUSH2 0x2736 JUMP JUMPDEST TIMESTAMP LT PUSH2 0xE94 JUMPI PUSH1 0x6 SWAP2 POP POP PUSH2 0xE9A JUMP JUMPDEST PUSH1 0x5 SWAP2 POP POP JUMPDEST SWAP2 SWAP1 POP JUMP JUMPDEST PUSH1 0x0 PUSH2 0xEAA DUP3 PUSH2 0xCBC JUMP JUMPDEST SWAP1 POP PUSH1 0x7 DUP1 DUP2 GT ISZERO PUSH2 0xEB8 JUMPI INVALID JUMPDEST DUP2 PUSH1 0x7 DUP2 GT ISZERO PUSH2 0xEC4 JUMPI INVALID JUMPDEST EQ ISZERO PUSH2 0xF05 JUMPI PUSH1 0x40 MLOAD PUSH32 0x8C379A000000000000000000000000000000000000000000000000000000000 DUP2 MSTORE PUSH1 0x4 ADD PUSH2 0xEFC SWAP1 PUSH2 0x499A JUMP JUMPDEST PUSH1 0x40 MLOAD DUP1 SWAP2 SUB SWAP1 REVERT JUMPDEST PUSH1 0x0 PUSH1 0x4 PUSH1 0x0 DUP5 DUP2 MSTORE PUSH1 0x20 ADD SWAP1 DUP2 MSTORE PUSH1 0x20 ADD PUSH1 0x0 KECCAK256 SWAP1 POP PUSH1 0x2 PUSH1 0x0 SWAP1 SLOAD SWAP1 PUSH2 0x100 EXP SWAP1 DIV PUSH20 0xFFFFFFFFFFFFFFFFFFFFFFFFFFFFFFFFFFFFFFFF AND PUSH20 0xFFFFFFFFFFFFFFFFFFFFFFFFFFFFFFFFFFFFFFFF AND CALLER PUSH20 0xFFFFFFFFFFFFFFFFFFFFFFFFFFFFFFFFFFFFFFFF AND EQ DUP1 PUSH2 0x1058 JUMPI POP PUSH2 0xF7B PUSH2 0x169B JUMP JUMPDEST PUSH1 0x1 PUSH1 0x0 SWAP1 SLOAD SWAP1 PUSH2 0x100 EXP SWAP1 DIV PUSH20 0xFFFFFFFFFFFFFFFFFFFFFFFFFFFFFFFFFFFFFFFF AND PUSH20 0xFFFFFFFFFFFFFFFFFFFFFFFFFFFFFFFFFFFFFFFF AND PUSH4 0x782D6FE1 DUP4 PUSH1 0x1 ADD PUSH1 0x0 SWAP1 SLOAD SWAP1 PUSH2 0x100 EXP SWAP1 DIV PUSH20 0xFFFFFFFFFFFFFFFFFFFFFFFFFFFFFFFFFFFFFFFF AND PUSH2 0xFE9 NUMBER PUSH1 0x1 PUSH2 0x278B JUMP JUMPDEST PUSH1 0x40 MLOAD DUP4 PUSH4 0xFFFFFFFF AND PUSH1 0xE0 SHL DUP2 MSTORE PUSH1 0x4 ADD PUSH2 0x1006 SWAP3 SWAP2 SWAP1 PUSH2 0x449A JUMP JUMPDEST PUSH1 0x20 PUSH1 0x40 MLOAD DUP1 DUP4 SUB DUP2 DUP7 DUP1 EXTCODESIZE ISZERO DUP1 ISZERO PUSH2 0x101E JUMPI PUSH1 0x0 DUP1 REVERT JUMPDEST POP GAS STATICCALL ISZERO DUP1 ISZERO PUSH2 0x1032 JUMPI RETURNDATASIZE PUSH1 0x0 DUP1 RETURNDATACOPY RETURNDATASIZE PUSH1 0x0 REVERT JUMPDEST POP POP POP POP PUSH1 0x40 MLOAD RETURNDATASIZE PUSH1 0x1F NOT PUSH1 0x1F DUP3 ADD AND DUP3 ADD DUP1 PUSH1 0x40 MSTORE POP DUP2 ADD SWAP1 PUSH2 0x1056 SWAP2 SWAP1 PUSH2 0x33CA JUMP JUMPDEST LT JUMPDEST PUSH2 0x1097 JUMPI PUSH1 0x40 MLOAD PUSH32 0x8C379A000000000000000000000000000000000000000000000000000000000 DUP2 MSTORE PUSH1 0x4 ADD PUSH2 0x108E SWAP1 PUSH2 0x48DA JUMP JUMPDEST PUSH1 0x40 MLOAD DUP1 SWAP2 SUB SWAP1 REVERT JUMPDEST PUSH1 0x1 DUP2 PUSH1 0xB ADD PUSH1 0x0 PUSH2 0x100 EXP DUP2 SLOAD DUP2 PUSH1 0xFF MUL NOT AND SWAP1 DUP4 ISZERO ISZERO MUL OR SWAP1 SSTORE POP PUSH1 0x0 JUMPDEST DUP2 PUSH1 0x3 ADD DUP1 SLOAD SWAP1 POP DUP2 LT ISZERO PUSH2 0x11EC JUMPI PUSH1 0x0 DUP1 SLOAD SWAP1 PUSH2 0x100 EXP SWAP1 DIV PUSH20 0xFFFFFFFFFFFFFFFFFFFFFFFFFFFFFFFFFFFFFFFF AND PUSH20 0xFFFFFFFFFFFFFFFFFFFFFFFFFFFFFFFFFFFFFFFF AND PUSH4 0x591FCDFE DUP4 PUSH1 0x3 ADD DUP4 DUP2 SLOAD DUP2 LT PUSH2 0x1111 JUMPI INVALID JUMPDEST SWAP1 PUSH1 0x0 MSTORE PUSH1 0x20 PUSH1 0x0 KECCAK256 ADD PUSH1 0x0 SWAP1 SLOAD SWAP1 PUSH2 0x100 EXP SWAP1 DIV PUSH20 0xFFFFFFFFFFFFFFFFFFFFFFFFFFFFFFFFFFFFFFFF AND DUP5 PUSH1 0x4 ADD DUP5 DUP2 SLOAD DUP2 LT PUSH2 0x114B JUMPI INVALID JUMPDEST SWAP1 PUSH1 0x0 MSTORE PUSH1 0x20 PUSH1 0x0 KECCAK256 ADD SLOAD DUP6 PUSH1 0x5 ADD DUP6 DUP2 SLOAD DUP2 LT PUSH2 0x1165 JUMPI INVALID JUMPDEST SWAP1 PUSH1 0x0 MSTORE PUSH1 0x20 PUSH1 0x0 KECCAK256 ADD DUP7 PUSH1 0x6 ADD DUP7 DUP2 SLOAD DUP2 LT PUSH2 0x117E JUMPI INVALID JUMPDEST SWAP1 PUSH1 0x0 MSTORE PUSH1 0x20 PUSH1 0x0 KECCAK256 ADD DUP8 PUSH1 0x2 ADD SLOAD PUSH1 0x40 MLOAD DUP7 PUSH4 0xFFFFFFFF AND PUSH1 0xE0 SHL DUP2 MSTORE PUSH1 0x4 ADD PUSH2 0x11AD SWAP6 SWAP5 SWAP4 SWAP3 SWAP2 SWAP1 PUSH2 0x4569 JUMP JUMPDEST PUSH1 0x0 PUSH1 0x40 MLOAD DUP1 DUP4 SUB DUP2 PUSH1 0x0 DUP8 DUP1 EXTCODESIZE ISZERO DUP1 ISZERO PUSH2 0x11C7 JUMPI PUSH1 0x0 DUP1 REVERT JUMPDEST POP GAS CALL ISZERO DUP1 ISZERO PUSH2 0x11DB JUMPI RETURNDATASIZE PUSH1 0x0 DUP1 RETURNDATACOPY RETURNDATASIZE PUSH1 0x0 REVERT JUMPDEST POP POP POP POP DUP1 DUP1 PUSH1 0x1 ADD SWAP2 POP POP PUSH2 0x10B7 JUMP JUMPDEST POP PUSH32 0x789CF55BE980739DAD1D0699B93B58E806B51C9D96619BFA8FE0A28ABAA7B30C DUP4 PUSH1 0x40 MLOAD PUSH2 0x121C SWAP2 SWAP1 PUSH2 0x4A35 JUMP JUMPDEST PUSH1 0x40 MLOAD DUP1 SWAP2 SUB SWAP1 LOG1 POP POP POP JUMP JUMPDEST PUSH1 0x2 PUSH1 0x0 SWAP1 SLOAD SWAP1 PUSH2 0x100 EXP SWAP1 DIV PUSH20 0xFFFFFFFFFFFFFFFFFFFFFFFFFFFFFFFFFFFFFFFF AND DUP2 JUMP JUMPDEST PUSH1 0x0 PUSH32 0x8CAD95687BA82C2CE50E74F7B754645E5117C3A5BEC8151C0726D5857980A866 PUSH1 0x40 MLOAD DUP1 PUSH1 0x40 ADD PUSH1 0x40 MSTORE DUP1 PUSH1 0x14 DUP2 MSTORE PUSH1 0x20 ADD PUSH32 0x537573686920476F7665726E6F7220416C706861000000000000000000000000 DUP2 MSTORE POP DUP1 MLOAD SWAP1 PUSH1 0x20 ADD KECCAK256 PUSH2 0x12B7 PUSH2 0x27DB JUMP JUMPDEST ADDRESS PUSH1 0x40 MLOAD PUSH1 0x20 ADD PUSH2 0x12CB SWAP5 SWAP4 SWAP3 SWAP2 SWAP1 PUSH2 0x4646 JUMP JUMPDEST PUSH1 0x40 MLOAD PUSH1 0x20 DUP2 DUP4 SUB SUB DUP2 MSTORE SWAP1 PUSH1 0x40 MSTORE DUP1 MLOAD SWAP1 PUSH1 0x20 ADD KECCAK256 SWAP1 POP PUSH1 0x0 PUSH32 0x8E25870C07E0B0B3884C78DA52790939A455C275406C44AE8B434B692FB916EE DUP8 DUP8 PUSH1 0x40 MLOAD PUSH1 0x20 ADD PUSH2 0x131A SWAP4 SWAP3 SWAP2 SWAP1 PUSH2 0x468B JUMP JUMPDEST PUSH1 0x40 MLOAD PUSH1 0x20 DUP2 DUP4 SUB SUB DUP2 MSTORE SWAP1 PUSH1 0x40 MSTORE DUP1 MLOAD SWAP1 PUSH1 0x20 ADD KECCAK256 SWAP1 POP PUSH1 0x0 DUP3 DUP3 PUSH1 0x40 MLOAD PUSH1 0x20 ADD PUSH2 0x1347 SWAP3 SWAP2 SWAP1 PUSH2 0x43C0 JUMP JUMPDEST PUSH1 0x40 MLOAD PUSH1 0x20 DUP2 DUP4 SUB SUB DUP2 MSTORE SWAP1 PUSH1 0x40 MSTORE DUP1 MLOAD SWAP1 PUSH1 0x20 ADD KECCAK256 SWAP1 POP PUSH1 0x0 PUSH1 0x1 DUP3 DUP9 DUP9 DUP9 PUSH1 0x40 MLOAD PUSH1 0x0 DUP2 MSTORE PUSH1 0x20 ADD PUSH1 0x40 MSTORE PUSH1 0x40 MLOAD PUSH2 0x1384 SWAP5 SWAP4 SWAP3 SWAP2 SWAP1 PUSH2 0x46C2 JUMP JUMPDEST PUSH1 0x20 PUSH1 0x40 MLOAD PUSH1 0x20 DUP2 SUB SWAP1 DUP1 DUP5 SUB SWAP1 DUP6 GAS STATICCALL ISZERO DUP1 ISZERO PUSH2 0x13A6 JUMPI RETURNDATASIZE PUSH1 0x0 DUP1 RETURNDATACOPY RETURNDATASIZE PUSH1 0x0 REVERT JUMPDEST POP POP POP PUSH1 0x20 PUSH1 0x40 MLOAD SUB MLOAD SWAP1 POP PUSH1 0x0 PUSH20 0xFFFFFFFFFFFFFFFFFFFFFFFFFFFFFFFFFFFFFFFF AND DUP2 PUSH20 0xFFFFFFFFFFFFFFFFFFFFFFFFFFFFFFFFFFFFFFFF AND EQ ISZERO PUSH2 0x1422 JUMPI PUSH1 0x40 MLOAD PUSH32 0x8C379A000000000000000000000000000000000000000000000000000000000 DUP2 MSTORE PUSH1 0x4 ADD PUSH2 0x1419 SWAP1 PUSH2 0x495A JUMP JUMPDEST PUSH1 0x40 MLOAD DUP1 SWAP2 SUB SWAP1 REVERT JUMPDEST PUSH2 0x142D DUP2 DUP11 DUP11 PUSH2 0x24AD JUMP JUMPDEST POP POP POP POP POP POP POP POP POP JUMP JUMPDEST PUSH1 0x2 PUSH1 0x0 SWAP1 SLOAD SWAP1 PUSH2 0x100 EXP SWAP1 DIV PUSH20 0xFFFFFFFFFFFFFFFFFFFFFFFFFFFFFFFFFFFFFFFF AND PUSH20 0xFFFFFFFFFFFFFFFFFFFFFFFFFFFFFFFFFFFFFFFF AND CALLER PUSH20 0xFFFFFFFFFFFFFFFFFFFFFFFFFFFFFFFFFFFFFFFF AND EQ PUSH2 0x14C8 JUMPI PUSH1 0x40 MLOAD PUSH32 0x8C379A000000000000000000000000000000000000000000000000000000000 DUP2 MSTORE PUSH1 0x4 ADD PUSH2 0x14BF SWAP1 PUSH2 0x49FA JUMP JUMPDEST PUSH1 0x40 MLOAD DUP1 SWAP2 SUB SWAP1 REVERT JUMPDEST PUSH1 0x0 PUSH1 0x2 PUSH1 0x0 PUSH2 0x100 EXP DUP2 SLOAD DUP2 PUSH20 0xFFFFFFFFFFFFFFFFFFFFFFFFFFFFFFFFFFFFFFFF MUL NOT AND SWAP1 DUP4 PUSH20 0xFFFFFFFFFFFFFFFFFFFFFFFFFFFFFFFFFFFFFFFF AND MUL OR SWAP1 SSTORE POP JUMP JUMPDEST PUSH1 0x0 PUSH1 0xA SWAP1 POP SWAP1 JUMP JUMPDEST PUSH1 0x2 PUSH1 0x0 SWAP1 SLOAD SWAP1 PUSH2 0x100 EXP SWAP1 DIV PUSH20 0xFFFFFFFFFFFFFFFFFFFFFFFFFFFFFFFFFFFFFFFF AND PUSH20 0xFFFFFFFFFFFFFFFFFFFFFFFFFFFFFFFFFFFFFFFF AND CALLER PUSH20 0xFFFFFFFFFFFFFFFFFFFFFFFFFFFFFFFFFFFFFFFF AND EQ PUSH2 0x15A5 JUMPI PUSH1 0x40 MLOAD PUSH32 0x8C379A000000000000000000000000000000000000000000000000000000000 DUP2 MSTORE PUSH1 0x4 ADD PUSH2 0x159C SWAP1 PUSH2 0x485A JUMP JUMPDEST PUSH1 0x40 MLOAD DUP1 SWAP2 SUB SWAP1 REVERT JUMPDEST PUSH1 0x0 DUP1 SLOAD SWAP1 PUSH2 0x100 EXP SWAP1 DIV PUSH20 0xFFFFFFFFFFFFFFFFFFFFFFFFFFFFFFFFFFFFFFFF AND PUSH20 0xFFFFFFFFFFFFFFFFFFFFFFFFFFFFFFFFFFFFFFFF AND PUSH4 0x3A66F901 PUSH1 0x0 DUP1 SLOAD SWAP1 PUSH2 0x100 EXP SWAP1 DIV PUSH20 0xFFFFFFFFFFFFFFFFFFFFFFFFFFFFFFFFFFFFFFFF AND PUSH1 0x0 DUP6 PUSH1 0x40 MLOAD PUSH1 0x20 ADD PUSH2 0x1615 SWAP2 SWAP1 PUSH2 0x43F7 JUMP JUMPDEST PUSH1 0x40 MLOAD PUSH1 0x20 DUP2 DUP4 SUB SUB DUP2 MSTORE SWAP1 PUSH1 0x40 MSTORE DUP6 PUSH1 0x40 MLOAD DUP6 PUSH4 0xFFFFFFFF AND PUSH1 0xE0 SHL DUP2 MSTORE PUSH1 0x4 ADD PUSH2 0x1644 SWAP5 SWAP4 SWAP3 SWAP2 SWAP1 PUSH2 0x443B JUMP JUMPDEST PUSH1 0x20 PUSH1 0x40 MLOAD DUP1 DUP4 SUB DUP2 PUSH1 0x0 DUP8 DUP1 EXTCODESIZE ISZERO DUP1 ISZERO PUSH2 0x165E JUMPI PUSH1 0x0 DUP1 REVERT JUMPDEST POP GAS CALL ISZERO DUP1 ISZERO PUSH2 0x1672 JUMPI RETURNDATASIZE PUSH1 0x0 DUP1 RETURNDATACOPY RETURNDATASIZE PUSH1 0x0 REVERT JUMPDEST POP POP POP POP PUSH1 0x40 MLOAD RETURNDATASIZE PUSH1 0x1F NOT PUSH1 0x1F DUP3 ADD AND DUP3 ADD DUP1 PUSH1 0x40 MSTORE POP DUP2 ADD SWAP1 PUSH2 0x1696 SWAP2 SWAP1 PUSH2 0x3337 JUMP JUMPDEST POP POP POP JUMP JUMPDEST PUSH1 0x0 PUSH1 0x64 PUSH1 0x1 PUSH1 0x0 SWAP1 SLOAD SWAP1 PUSH2 0x100 EXP SWAP1 DIV PUSH20 0xFFFFFFFFFFFFFFFFFFFFFFFFFFFFFFFFFFFFFFFF AND PUSH20 0xFFFFFFFFFFFFFFFFFFFFFFFFFFFFFFFFFFFFFFFF AND PUSH4 0x18160DDD PUSH1 0x40 MLOAD DUP2 PUSH4 0xFFFFFFFF AND PUSH1 0xE0 SHL DUP2 MSTORE PUSH1 0x4 ADD PUSH1 0x20 PUSH1 0x40 MLOAD DUP1 DUP4 SUB DUP2 DUP7 DUP1 EXTCODESIZE ISZERO DUP1 ISZERO PUSH2 0x1707 JUMPI PUSH1 0x0 DUP1 REVERT JUMPDEST POP GAS STATICCALL ISZERO DUP1 ISZERO PUSH2 0x171B JUMPI RETURNDATASIZE PUSH1 0x0 DUP1 RETURNDATACOPY RETURNDATASIZE PUSH1 0x0 REVERT JUMPDEST POP POP POP POP PUSH1 0x40 MLOAD RETURNDATASIZE PUSH1 0x1F NOT PUSH1 0x1F DUP3 ADD AND DUP3 ADD DUP1 PUSH1 0x40 MSTORE POP DUP2 ADD SWAP1 PUSH2 0x173F SWAP2 SWAP1 PUSH2 0x33CA JUMP JUMPDEST DUP2 PUSH2 0x1746 JUMPI INVALID JUMPDEST DIV SWAP1 POP SWAP1 JUMP JUMPDEST PUSH1 0x2 PUSH1 0x0 SWAP1 SLOAD SWAP1 PUSH2 0x100 EXP SWAP1 DIV PUSH20 0xFFFFFFFFFFFFFFFFFFFFFFFFFFFFFFFFFFFFFFFF AND PUSH20 0xFFFFFFFFFFFFFFFFFFFFFFFFFFFFFFFFFFFFFFFF AND CALLER PUSH20 0xFFFFFFFFFFFFFFFFFFFFFFFFFFFFFFFFFFFFFFFF AND EQ PUSH2 0x17DC JUMPI PUSH1 0x40 MLOAD PUSH32 0x8C379A000000000000000000000000000000000000000000000000000000000 DUP2 MSTORE PUSH1 0x4 ADD PUSH2 0x17D3 SWAP1 PUSH2 0x477A JUMP JUMPDEST PUSH1 0x40 MLOAD DUP1 SWAP2 SUB SWAP1 REVERT JUMPDEST PUSH1 0x0 DUP1 SLOAD SWAP1 PUSH2 0x100 EXP SWAP1 DIV PUSH20 0xFFFFFFFFFFFFFFFFFFFFFFFFFFFFFFFFFFFFFFFF AND PUSH20 0xFFFFFFFFFFFFFFFFFFFFFFFFFFFFFFFFFFFFFFFF AND PUSH4 0xE18B681 PUSH1 0x40 MLOAD DUP2 PUSH4 0xFFFFFFFF AND PUSH1 0xE0 SHL DUP2 MSTORE PUSH1 0x4 ADD PUSH1 0x0 PUSH1 0x40 MLOAD DUP1 DUP4 SUB DUP2 PUSH1 0x0 DUP8 DUP1 EXTCODESIZE ISZERO DUP1 ISZERO PUSH2 0x1844 JUMPI PUSH1 0x0 DUP1 REVERT JUMPDEST POP GAS CALL ISZERO DUP1 ISZERO PUSH2 0x1858 JUMPI RETURNDATASIZE PUSH1 0x0 DUP1 RETURNDATACOPY RETURNDATASIZE PUSH1 0x0 REVERT JUMPDEST POP POP POP POP JUMP JUMPDEST PUSH1 0x0 DUP1 SLOAD SWAP1 PUSH2 0x100 EXP SWAP1 DIV PUSH20 0xFFFFFFFFFFFFFFFFFFFFFFFFFFFFFFFFFFFFFFFF AND DUP2 JUMP JUMPDEST PUSH1 0x3 SLOAD DUP2 JUMP JUMPDEST PUSH1 0x0 PUSH2 0x1892 PUSH2 0x169B JUMP JUMPDEST PUSH1 0x1 PUSH1 0x0 SWAP1 SLOAD SWAP1 PUSH2 0x100 EXP SWAP1 DIV PUSH20 0xFFFFFFFFFFFFFFFFFFFFFFFFFFFFFFFFFFFFFFFF AND PUSH20 0xFFFFFFFFFFFFFFFFFFFFFFFFFFFFFFFFFFFFFFFF AND PUSH4 0x782D6FE1 CALLER PUSH2 0x18DC NUMBER PUSH1 0x1 PUSH2 0x278B JUMP JUMPDEST PUSH1 0x40 MLOAD DUP4 PUSH4 0xFFFFFFFF AND PUSH1 0xE0 SHL DUP2 MSTORE PUSH1 0x4 ADD PUSH2 0x18F9 SWAP3 SWAP2 SWAP1 PUSH2 0x4412 JUMP JUMPDEST PUSH1 0x20 PUSH1 0x40 MLOAD DUP1 DUP4 SUB DUP2 DUP7 DUP1 EXTCODESIZE ISZERO DUP1 ISZERO PUSH2 0x1911 JUMPI PUSH1 0x0 DUP1 REVERT JUMPDEST POP GAS STATICCALL ISZERO DUP1 ISZERO PUSH2 0x1925 JUMPI RETURNDATASIZE PUSH1 0x0 DUP1 RETURNDATACOPY RETURNDATASIZE PUSH1 0x0 REVERT JUMPDEST POP POP POP POP PUSH1 0x40 MLOAD RETURNDATASIZE PUSH1 0x1F NOT PUSH1 0x1F DUP3 ADD AND DUP3 ADD DUP1 PUSH1 0x40 MSTORE POP DUP2 ADD SWAP1 PUSH2 0x1949 SWAP2 SWAP1 PUSH2 0x33CA JUMP JUMPDEST GT PUSH2 0x1989 JUMPI PUSH1 0x40 MLOAD PUSH32 0x8C379A000000000000000000000000000000000000000000000000000000000 DUP2 MSTORE PUSH1 0x4 ADD PUSH2 0x1980 SWAP1 PUSH2 0x493A JUMP JUMPDEST PUSH1 0x40 MLOAD DUP1 SWAP2 SUB SWAP1 REVERT JUMPDEST DUP5 MLOAD DUP7 MLOAD EQ DUP1 ISZERO PUSH2 0x199B JUMPI POP DUP4 MLOAD DUP7 MLOAD EQ JUMPDEST DUP1 ISZERO PUSH2 0x19A8 JUMPI POP DUP3 MLOAD DUP7 MLOAD EQ JUMPDEST PUSH2 0x19E7 JUMPI PUSH1 0x40 MLOAD PUSH32 0x8C379A000000000000000000000000000000000000000000000000000000000 DUP2 MSTORE PUSH1 0x4 ADD PUSH2 0x19DE SWAP1 PUSH2 0x48BA JUMP JUMPDEST PUSH1 0x40 MLOAD DUP1 SWAP2 SUB SWAP1 REVERT JUMPDEST PUSH1 0x0 DUP7 MLOAD EQ ISZERO PUSH2 0x1A2C JUMPI PUSH1 0x40 MLOAD PUSH32 0x8C379A000000000000000000000000000000000000000000000000000000000 DUP2 MSTORE PUSH1 0x4 ADD PUSH2 0x1A23 SWAP1 PUSH2 0x491A JUMP JUMPDEST PUSH1 0x40 MLOAD DUP1 SWAP2 SUB SWAP1 REVERT JUMPDEST PUSH2 0x1A34 PUSH2 0x150C JUMP JUMPDEST DUP7 MLOAD GT ISZERO PUSH2 0x1A77 JUMPI PUSH1 0x40 MLOAD PUSH32 0x8C379A000000000000000000000000000000000000000000000000000000000 DUP2 MSTORE PUSH1 0x4 ADD PUSH2 0x1A6E SWAP1 PUSH2 0x487A JUMP JUMPDEST PUSH1 0x40 MLOAD DUP1 SWAP2 SUB SWAP1 REVERT JUMPDEST PUSH1 0x0 PUSH1 0x5 PUSH1 0x0 CALLER PUSH20 0xFFFFFFFFFFFFFFFFFFFFFFFFFFFFFFFFFFFFFFFF AND PUSH20 0xFFFFFFFFFFFFFFFFFFFFFFFFFFFFFFFFFFFFFFFF AND DUP2 MSTORE PUSH1 0x20 ADD SWAP1 DUP2 MSTORE PUSH1 0x20 ADD PUSH1 0x0 KECCAK256 SLOAD SWAP1 POP PUSH1 0x0 DUP2 EQ PUSH2 0x1B86 JUMPI PUSH1 0x0 PUSH2 0x1ACE DUP3 PUSH2 0xCBC JUMP JUMPDEST SWAP1 POP PUSH1 0x1 PUSH1 0x7 DUP2 GT ISZERO PUSH2 0x1ADD JUMPI INVALID JUMPDEST DUP2 PUSH1 0x7 DUP2 GT ISZERO PUSH2 0x1AE9 JUMPI INVALID JUMPDEST EQ ISZERO PUSH2 0x1B2A JUMPI PUSH1 0x40 MLOAD PUSH32 0x8C379A000000000000000000000000000000000000000000000000000000000 DUP2 MSTORE PUSH1 0x4 ADD PUSH2 0x1B21 SWAP1 PUSH2 0x497A JUMP JUMPDEST PUSH1 0x40 MLOAD DUP1 SWAP2 SUB SWAP1 REVERT JUMPDEST PUSH1 0x0 PUSH1 0x7 DUP2 GT ISZERO PUSH2 0x1B37 JUMPI INVALID JUMPDEST DUP2 PUSH1 0x7 DUP2 GT ISZERO PUSH2 0x1B43 JUMPI INVALID JUMPDEST EQ ISZERO PUSH2 0x1B84 JUMPI PUSH1 0x40 MLOAD PUSH32 0x8C379A000000000000000000000000000000000000000000000000000000000 DUP2 MSTORE PUSH1 0x4 ADD PUSH2 0x1B7B SWAP1 PUSH2 0x483A JUMP JUMPDEST PUSH1 0x40 MLOAD DUP1 SWAP2 SUB SWAP1 REVERT JUMPDEST POP JUMPDEST PUSH1 0x0 PUSH2 0x1B99 NUMBER PUSH2 0x1B94 PUSH2 0xCB3 JUMP JUMPDEST PUSH2 0x2736 JUMP JUMPDEST SWAP1 POP PUSH1 0x0 PUSH2 0x1BAE DUP3 PUSH2 0x1BA9 PUSH2 0x6E6 JUMP JUMPDEST PUSH2 0x2736 JUMP JUMPDEST SWAP1 POP PUSH1 0x3 PUSH1 0x0 DUP2 SLOAD DUP1 SWAP3 SWAP2 SWAP1 PUSH1 0x1 ADD SWAP2 SWAP1 POP SSTORE POP PUSH2 0x1BCA PUSH2 0x29BA JUMP JUMPDEST PUSH1 0x40 MLOAD DUP1 PUSH2 0x1A0 ADD PUSH1 0x40 MSTORE DUP1 PUSH1 0x3 SLOAD DUP2 MSTORE PUSH1 0x20 ADD CALLER PUSH20 0xFFFFFFFFFFFFFFFFFFFFFFFFFFFFFFFFFFFFFFFF AND DUP2 MSTORE PUSH1 0x20 ADD PUSH1 0x0 DUP2 MSTORE PUSH1 0x20 ADD DUP12 DUP2 MSTORE PUSH1 0x20 ADD DUP11 DUP2 MSTORE PUSH1 0x20 ADD DUP10 DUP2 MSTORE PUSH1 0x20 ADD DUP9 DUP2 MSTORE PUSH1 0x20 ADD DUP5 DUP2 MSTORE PUSH1 0x20 ADD DUP4 DUP2 MSTORE PUSH1 0x20 ADD PUSH1 0x0 DUP2 MSTORE PUSH1 0x20 ADD PUSH1 0x0 DUP2 MSTORE PUSH1 0x20 ADD PUSH1 0x0 ISZERO ISZERO DUP2 MSTORE PUSH1 0x20 ADD PUSH1 0x0 ISZERO ISZERO DUP2 MSTORE POP SWAP1 POP DUP1 PUSH1 0x4 PUSH1 0x0 DUP4 PUSH1 0x0 ADD MLOAD DUP2 MSTORE PUSH1 0x20 ADD SWAP1 DUP2 MSTORE PUSH1 0x20 ADD PUSH1 0x0 KECCAK256 PUSH1 0x0 DUP3 ADD MLOAD DUP2 PUSH1 0x0 ADD SSTORE PUSH1 0x20 DUP3 ADD MLOAD DUP2 PUSH1 0x1 ADD PUSH1 0x0 PUSH2 0x100 EXP DUP2 SLOAD DUP2 PUSH20 0xFFFFFFFFFFFFFFFFFFFFFFFFFFFFFFFFFFFFFFFF MUL NOT AND SWAP1 DUP4 PUSH20 0xFFFFFFFFFFFFFFFFFFFFFFFFFFFFFFFFFFFFFFFF AND MUL OR SWAP1 SSTORE POP PUSH1 0x40 DUP3 ADD MLOAD DUP2 PUSH1 0x2 ADD SSTORE PUSH1 0x60 DUP3 ADD MLOAD DUP2 PUSH1 0x3 ADD SWAP1 DUP1 MLOAD SWAP1 PUSH1 0x20 ADD SWAP1 PUSH2 0x1CD4 SWAP3 SWAP2 SWAP1 PUSH2 0x2A3C JUMP JUMPDEST POP PUSH1 0x80 DUP3 ADD MLOAD DUP2 PUSH1 0x4 ADD SWAP1 DUP1 MLOAD SWAP1 PUSH1 0x20 ADD SWAP1 PUSH2 0x1CF1 SWAP3 SWAP2 SWAP1 PUSH2 0x2AC6 JUMP JUMPDEST POP PUSH1 0xA0 DUP3 ADD MLOAD DUP2 PUSH1 0x5 ADD SWAP1 DUP1 MLOAD SWAP1 PUSH1 0x20 ADD SWAP1 PUSH2 0x1D0E SWAP3 SWAP2 SWAP1 PUSH2 0x2B13 JUMP JUMPDEST POP PUSH1 0xC0 DUP3 ADD MLOAD DUP2 PUSH1 0x6 ADD SWAP1 DUP1 MLOAD SWAP1 PUSH1 0x20 ADD SWAP1 PUSH2 0x1D2B SWAP3 SWAP2 SWAP1 PUSH2 0x2B73 JUMP JUMPDEST POP PUSH1 0xE0 DUP3 ADD MLOAD DUP2 PUSH1 0x7 ADD SSTORE PUSH2 0x100 DUP3 ADD MLOAD DUP2 PUSH1 0x8 ADD SSTORE PUSH2 0x120 DUP3 ADD MLOAD DUP2 PUSH1 0x9 ADD SSTORE PUSH2 0x140 DUP3 ADD MLOAD DUP2 PUSH1 0xA ADD SSTORE PUSH2 0x160 DUP3 ADD MLOAD DUP2 PUSH1 0xB ADD PUSH1 0x0 PUSH2 0x100 EXP DUP2 SLOAD DUP2 PUSH1 0xFF MUL NOT AND SWAP1 DUP4 ISZERO ISZERO MUL OR SWAP1 SSTORE POP PUSH2 0x180 DUP3 ADD MLOAD DUP2 PUSH1 0xB ADD PUSH1 0x1 PUSH2 0x100 EXP DUP2 SLOAD DUP2 PUSH1 0xFF MUL NOT AND SWAP1 DUP4 ISZERO ISZERO MUL OR SWAP1 SSTORE POP SWAP1 POP POP DUP1 PUSH1 0x0 ADD MLOAD PUSH1 0x5 PUSH1 0x0 DUP4 PUSH1 0x20 ADD MLOAD PUSH20 0xFFFFFFFFFFFFFFFFFFFFFFFFFFFFFFFFFFFFFFFF AND PUSH20 0xFFFFFFFFFFFFFFFFFFFFFFFFFFFFFFFFFFFFFFFF AND DUP2 MSTORE PUSH1 0x20 ADD SWAP1 DUP2 MSTORE PUSH1 0x20 ADD PUSH1 0x0 KECCAK256 DUP2 SWAP1 SSTORE POP PUSH32 0x7D84A6263AE0D98D3329BD7B46BB4E8D6F98CD35A7ADB45C274C8B7FD5EBD5E0 DUP2 PUSH1 0x0 ADD MLOAD CALLER DUP13 DUP13 DUP13 DUP13 DUP10 DUP10 DUP15 PUSH1 0x40 MLOAD PUSH2 0x1E2B SWAP10 SWAP9 SWAP8 SWAP7 SWAP6 SWAP5 SWAP4 SWAP3 SWAP2 SWAP1 PUSH2 0x4A50 JUMP JUMPDEST PUSH1 0x40 MLOAD DUP1 SWAP2 SUB SWAP1 LOG1 DUP1 PUSH1 0x0 ADD MLOAD SWAP5 POP POP POP POP POP SWAP6 SWAP5 POP POP POP POP POP JUMP JUMPDEST PUSH1 0x4 PUSH1 0x7 DUP2 GT ISZERO PUSH2 0x1E54 JUMPI INVALID JUMPDEST PUSH2 0x1E5D DUP3 PUSH2 0xCBC JUMP JUMPDEST PUSH1 0x7 DUP2 GT ISZERO PUSH2 0x1E68 JUMPI INVALID JUMPDEST EQ PUSH2 0x1EA8 JUMPI PUSH1 0x40 MLOAD PUSH32 0x8C379A000000000000000000000000000000000000000000000000000000000 DUP2 MSTORE PUSH1 0x4 ADD PUSH2 0x1E9F SWAP1 PUSH2 0x479A JUMP JUMPDEST PUSH1 0x40 MLOAD DUP1 SWAP2 SUB SWAP1 REVERT JUMPDEST PUSH1 0x0 PUSH1 0x4 PUSH1 0x0 DUP4 DUP2 MSTORE PUSH1 0x20 ADD SWAP1 DUP2 MSTORE PUSH1 0x20 ADD PUSH1 0x0 KECCAK256 SWAP1 POP PUSH1 0x0 PUSH2 0x1F68 TIMESTAMP PUSH1 0x0 DUP1 SLOAD SWAP1 PUSH2 0x100 EXP SWAP1 DIV PUSH20 0xFFFFFFFFFFFFFFFFFFFFFFFFFFFFFFFFFFFFFFFF AND PUSH20 0xFFFFFFFFFFFFFFFFFFFFFFFFFFFFFFFFFFFFFFFF AND PUSH4 0x6A42B8F8 PUSH1 0x40 MLOAD DUP2 PUSH4 0xFFFFFFFF AND PUSH1 0xE0 SHL DUP2 MSTORE PUSH1 0x4 ADD PUSH1 0x20 PUSH1 0x40 MLOAD DUP1 DUP4 SUB DUP2 DUP7 DUP1 EXTCODESIZE ISZERO DUP1 ISZERO PUSH2 0x1F2B JUMPI PUSH1 0x0 DUP1 REVERT JUMPDEST POP GAS STATICCALL ISZERO DUP1 ISZERO PUSH2 0x1F3F JUMPI RETURNDATASIZE PUSH1 0x0 DUP1 RETURNDATACOPY RETURNDATASIZE PUSH1 0x0 REVERT JUMPDEST POP POP POP POP PUSH1 0x40 MLOAD RETURNDATASIZE PUSH1 0x1F NOT PUSH1 0x1F DUP3 ADD AND DUP3 ADD DUP1 PUSH1 0x40 MSTORE POP DUP2 ADD SWAP1 PUSH2 0x1F63 SWAP2 SWAP1 PUSH2 0x33CA JUMP JUMPDEST PUSH2 0x2736 JUMP JUMPDEST SWAP1 POP PUSH1 0x0 JUMPDEST DUP3 PUSH1 0x3 ADD DUP1 SLOAD SWAP1 POP DUP2 LT ISZERO PUSH2 0x214A JUMPI PUSH2 0x213D DUP4 PUSH1 0x3 ADD DUP3 DUP2 SLOAD DUP2 LT PUSH2 0x1F8E JUMPI INVALID JUMPDEST SWAP1 PUSH1 0x0 MSTORE PUSH1 0x20 PUSH1 0x0 KECCAK256 ADD PUSH1 0x0 SWAP1 SLOAD SWAP1 PUSH2 0x100 EXP SWAP1 DIV PUSH20 0xFFFFFFFFFFFFFFFFFFFFFFFFFFFFFFFFFFFFFFFF AND DUP5 PUSH1 0x4 ADD DUP4 DUP2 SLOAD DUP2 LT PUSH2 0x1FC8 JUMPI INVALID JUMPDEST SWAP1 PUSH1 0x0 MSTORE PUSH1 0x20 PUSH1 0x0 KECCAK256 ADD SLOAD DUP6 PUSH1 0x5 ADD DUP5 DUP2 SLOAD DUP2 LT PUSH2 0x1FE2 JUMPI INVALID JUMPDEST SWAP1 PUSH1 0x0 MSTORE PUSH1 0x20 PUSH1 0x0 KECCAK256 ADD DUP1 SLOAD PUSH1 0x1 DUP2 PUSH1 0x1 AND ISZERO PUSH2 0x100 MUL SUB AND PUSH1 0x2 SWAP1 DIV DUP1 PUSH1 0x1F ADD PUSH1 0x20 DUP1 SWAP2 DIV MUL PUSH1 0x20 ADD PUSH1 0x40 MLOAD SWAP1 DUP2 ADD PUSH1 0x40 MSTORE DUP1 SWAP3 SWAP2 SWAP1 DUP2 DUP2 MSTORE PUSH1 0x20 ADD DUP3 DUP1 SLOAD PUSH1 0x1 DUP2 PUSH1 0x1 AND ISZERO PUSH2 0x100 MUL SUB AND PUSH1 0x2 SWAP1 DIV DUP1 ISZERO PUSH2 0x2080 JUMPI DUP1 PUSH1 0x1F LT PUSH2 0x2055 JUMPI PUSH2 0x100 DUP1 DUP4 SLOAD DIV MUL DUP4 MSTORE SWAP2 PUSH1 0x20 ADD SWAP2 PUSH2 0x2080 JUMP JUMPDEST DUP3 ADD SWAP2 SWAP1 PUSH1 0x0 MSTORE PUSH1 0x20 PUSH1 0x0 KECCAK256 SWAP1 JUMPDEST DUP2 SLOAD DUP2 MSTORE SWAP1 PUSH1 0x1 ADD SWAP1 PUSH1 0x20 ADD DUP1 DUP4 GT PUSH2 0x2063 JUMPI DUP3 SWAP1 SUB PUSH1 0x1F AND DUP3 ADD SWAP2 JUMPDEST POP POP POP POP POP DUP7 PUSH1 0x6 ADD DUP6 DUP2 SLOAD DUP2 LT PUSH2 0x2094 JUMPI INVALID JUMPDEST SWAP1 PUSH1 0x0 MSTORE PUSH1 0x20 PUSH1 0x0 KECCAK256 ADD DUP1 SLOAD PUSH1 0x1 DUP2 PUSH1 0x1 AND ISZERO PUSH2 0x100 MUL SUB AND PUSH1 0x2 SWAP1 DIV DUP1 PUSH1 0x1F ADD PUSH1 0x20 DUP1 SWAP2 DIV MUL PUSH1 0x20 ADD PUSH1 0x40 MLOAD SWAP1 DUP2 ADD PUSH1 0x40 MSTORE DUP1 SWAP3 SWAP2 SWAP1 DUP2 DUP2 MSTORE PUSH1 0x20 ADD DUP3 DUP1 SLOAD PUSH1 0x1 DUP2 PUSH1 0x1 AND ISZERO PUSH2 0x100 MUL SUB AND PUSH1 0x2 SWAP1 DIV DUP1 ISZERO PUSH2 0x2132 JUMPI DUP1 PUSH1 0x1F LT PUSH2 0x2107 JUMPI PUSH2 0x100 DUP1 DUP4 SLOAD DIV MUL DUP4 MSTORE SWAP2 PUSH1 0x20 ADD SWAP2 PUSH2 0x2132 JUMP JUMPDEST DUP3 ADD SWAP2 SWAP1 PUSH1 0x0 MSTORE PUSH1 0x20 PUSH1 0x0 KECCAK256 SWAP1 JUMPDEST DUP2 SLOAD DUP2 MSTORE SWAP1 PUSH1 0x1 ADD SWAP1 PUSH1 0x20 ADD DUP1 DUP4 GT PUSH2 0x2115 JUMPI DUP3 SWAP1 SUB PUSH1 0x1F AND DUP3 ADD SWAP2 JUMPDEST POP POP POP POP POP DUP7 PUSH2 0x27E8 JUMP JUMPDEST DUP1 DUP1 PUSH1 0x1 ADD SWAP2 POP POP PUSH2 0x1F6D JUMP JUMPDEST POP DUP1 DUP3 PUSH1 0x2 ADD DUP2 SWAP1 SSTORE POP PUSH32 0x9A2E42FD6722813D69113E7D0079D3D940171428DF7373DF9C7F7617CFDA2892 DUP4 DUP3 PUSH1 0x40 MLOAD PUSH2 0x2185 SWAP3 SWAP2 SWAP1 PUSH2 0x4B8D JUMP JUMPDEST PUSH1 0x40 MLOAD DUP1 SWAP2 SUB SWAP1 LOG1 POP POP POP JUMP JUMPDEST PUSH32 0x8E25870C07E0B0B3884C78DA52790939A455C275406C44AE8B434B692FB916EE DUP2 JUMP JUMPDEST PUSH2 0x21BE PUSH2 0x2BD3 JUMP JUMPDEST PUSH1 0x4 PUSH1 0x0 DUP5 DUP2 MSTORE PUSH1 0x20 ADD SWAP1 DUP2 MSTORE PUSH1 0x20 ADD PUSH1 0x0 KECCAK256 PUSH1 0xC ADD PUSH1 0x0 DUP4 PUSH20 0xFFFFFFFFFFFFFFFFFFFFFFFFFFFFFFFFFFFFFFFF AND PUSH20 0xFFFFFFFFFFFFFFFFFFFFFFFFFFFFFFFFFFFFFFFF AND DUP2 MSTORE PUSH1 0x20 ADD SWAP1 DUP2 MSTORE PUSH1 0x20 ADD PUSH1 0x0 KECCAK256 PUSH1 0x40 MLOAD DUP1 PUSH1 0x60 ADD PUSH1 0x40 MSTORE SWAP1 DUP2 PUSH1 0x0 DUP3 ADD PUSH1 0x0 SWAP1 SLOAD SWAP1 PUSH2 0x100 EXP SWAP1 DIV PUSH1 0xFF AND ISZERO ISZERO ISZERO ISZERO DUP2 MSTORE PUSH1 0x20 ADD PUSH1 0x0 DUP3 ADD PUSH1 0x1 SWAP1 SLOAD SWAP1 PUSH2 0x100 EXP SWAP1 DIV PUSH1 0xFF AND ISZERO ISZERO ISZERO ISZERO DUP2 MSTORE PUSH1 0x20 ADD PUSH1 0x1 DUP3 ADD SLOAD DUP2 MSTORE POP POP SWAP1 POP SWAP3 SWAP2 POP POP JUMP JUMPDEST PUSH1 0x5 PUSH1 0x7 DUP2 GT ISZERO PUSH2 0x2271 JUMPI INVALID JUMPDEST PUSH2 0x227A DUP3 PUSH2 0xCBC JUMP JUMPDEST PUSH1 0x7 DUP2 GT ISZERO PUSH2 0x2285 JUMPI INVALID JUMPDEST EQ PUSH2 0x22C5 JUMPI PUSH1 0x40 MLOAD PUSH32 0x8C379A000000000000000000000000000000000000000000000000000000000 DUP2 MSTORE PUSH1 0x4 ADD PUSH2 0x22BC SWAP1 PUSH2 0x47BA JUMP JUMPDEST PUSH1 0x40 MLOAD DUP1 SWAP2 SUB SWAP1 REVERT JUMPDEST PUSH1 0x0 PUSH1 0x4 PUSH1 0x0 DUP4 DUP2 MSTORE PUSH1 0x20 ADD SWAP1 DUP2 MSTORE PUSH1 0x20 ADD PUSH1 0x0 KECCAK256 SWAP1 POP PUSH1 0x1 DUP2 PUSH1 0xB ADD PUSH1 0x1 PUSH2 0x100 EXP DUP2 SLOAD DUP2 PUSH1 0xFF MUL NOT AND SWAP1 DUP4 ISZERO ISZERO MUL OR SWAP1 SSTORE POP PUSH1 0x0 JUMPDEST DUP2 PUSH1 0x3 ADD DUP1 SLOAD SWAP1 POP DUP2 LT ISZERO PUSH2 0x2471 JUMPI PUSH1 0x0 DUP1 SLOAD SWAP1 PUSH2 0x100 EXP SWAP1 DIV PUSH20 0xFFFFFFFFFFFFFFFFFFFFFFFFFFFFFFFFFFFFFFFF AND PUSH20 0xFFFFFFFFFFFFFFFFFFFFFFFFFFFFFFFFFFFFFFFF AND PUSH4 0x825F38F DUP4 PUSH1 0x4 ADD DUP4 DUP2 SLOAD DUP2 LT PUSH2 0x2356 JUMPI INVALID JUMPDEST SWAP1 PUSH1 0x0 MSTORE PUSH1 0x20 PUSH1 0x0 KECCAK256 ADD SLOAD DUP5 PUSH1 0x3 ADD DUP5 DUP2 SLOAD DUP2 LT PUSH2 0x2370 JUMPI INVALID JUMPDEST SWAP1 PUSH1 0x0 MSTORE PUSH1 0x20 PUSH1 0x0 KECCAK256 ADD PUSH1 0x0 SWAP1 SLOAD SWAP1 PUSH2 0x100 EXP SWAP1 DIV PUSH20 0xFFFFFFFFFFFFFFFFFFFFFFFFFFFFFFFFFFFFFFFF AND DUP6 PUSH1 0x4 ADD DUP6 DUP2 SLOAD DUP2 LT PUSH2 0x23AA JUMPI INVALID JUMPDEST SWAP1 PUSH1 0x0 MSTORE PUSH1 0x20 PUSH1 0x0 KECCAK256 ADD SLOAD DUP7 PUSH1 0x5 ADD DUP7 DUP2 SLOAD DUP2 LT PUSH2 0x23C4 JUMPI INVALID JUMPDEST SWAP1 PUSH1 0x0 MSTORE PUSH1 0x20 PUSH1 0x0 KECCAK256 ADD DUP8 PUSH1 0x6 ADD DUP8 DUP2 SLOAD DUP2 LT PUSH2 0x23DD JUMPI INVALID JUMPDEST SWAP1 PUSH1 0x0 MSTORE PUSH1 0x20 PUSH1 0x0 KECCAK256 ADD DUP9 PUSH1 0x2 ADD SLOAD PUSH1 0x40 MLOAD DUP8 PUSH4 0xFFFFFFFF AND PUSH1 0xE0 SHL DUP2 MSTORE PUSH1 0x4 ADD PUSH2 0x240C SWAP6 SWAP5 SWAP4 SWAP3 SWAP2 SWAP1 PUSH2 0x4569 JUMP JUMPDEST PUSH1 0x0 PUSH1 0x40 MLOAD DUP1 DUP4 SUB DUP2 DUP6 DUP9 DUP1 EXTCODESIZE ISZERO DUP1 ISZERO PUSH2 0x2425 JUMPI PUSH1 0x0 DUP1 REVERT JUMPDEST POP GAS CALL ISZERO DUP1 ISZERO PUSH2 0x2439 JUMPI RETURNDATASIZE PUSH1 0x0 DUP1 RETURNDATACOPY RETURNDATASIZE PUSH1 0x0 REVERT JUMPDEST POP POP POP POP POP PUSH1 0x40 MLOAD RETURNDATASIZE PUSH1 0x0 DUP3 RETURNDATACOPY RETURNDATASIZE PUSH1 0x1F NOT PUSH1 0x1F DUP3 ADD AND DUP3 ADD DUP1 PUSH1 0x40 MSTORE POP DUP2 ADD SWAP1 PUSH2 0x2463 SWAP2 SWAP1 PUSH2 0x3360 JUMP JUMPDEST POP DUP1 DUP1 PUSH1 0x1 ADD SWAP2 POP POP PUSH2 0x22FC JUMP JUMPDEST POP PUSH32 0x712AE1383F79AC853F8D882153778E0260EF8F03B504E2866E0593E04D2B291F DUP3 PUSH1 0x40 MLOAD PUSH2 0x24A1 SWAP2 SWAP1 PUSH2 0x4A35 JUMP JUMPDEST PUSH1 0x40 MLOAD DUP1 SWAP2 SUB SWAP1 LOG1 POP POP JUMP JUMPDEST PUSH1 0x1 PUSH1 0x7 DUP2 GT ISZERO PUSH2 0x24BA JUMPI INVALID JUMPDEST PUSH2 0x24C3 DUP4 PUSH2 0xCBC JUMP JUMPDEST PUSH1 0x7 DUP2 GT ISZERO PUSH2 0x24CE JUMPI INVALID JUMPDEST EQ PUSH2 0x250E JUMPI PUSH1 0x40 MLOAD PUSH32 0x8C379A000000000000000000000000000000000000000000000000000000000 DUP2 MSTORE PUSH1 0x4 ADD PUSH2 0x2505 SWAP1 PUSH2 0x49BA JUMP JUMPDEST PUSH1 0x40 MLOAD DUP1 SWAP2 SUB SWAP1 REVERT JUMPDEST PUSH1 0x0 PUSH1 0x4 PUSH1 0x0 DUP5 DUP2 MSTORE PUSH1 0x20 ADD SWAP1 DUP2 MSTORE PUSH1 0x20 ADD PUSH1 0x0 KECCAK256 SWAP1 POP PUSH1 0x0 DUP2 PUSH1 0xC ADD PUSH1 0x0 DUP7 PUSH20 0xFFFFFFFFFFFFFFFFFFFFFFFFFFFFFFFFFFFFFFFF AND PUSH20 0xFFFFFFFFFFFFFFFFFFFFFFFFFFFFFFFFFFFFFFFF AND DUP2 MSTORE PUSH1 0x20 ADD SWAP1 DUP2 MSTORE PUSH1 0x20 ADD PUSH1 0x0 KECCAK256 SWAP1 POP PUSH1 0x0 ISZERO ISZERO DUP2 PUSH1 0x0 ADD PUSH1 0x0 SWAP1 SLOAD SWAP1 PUSH2 0x100 EXP SWAP1 DIV PUSH1 0xFF AND ISZERO ISZERO EQ PUSH2 0x25C2 JUMPI PUSH1 0x40 MLOAD PUSH32 0x8C379A000000000000000000000000000000000000000000000000000000000 DUP2 MSTORE PUSH1 0x4 ADD PUSH2 0x25B9 SWAP1 PUSH2 0x481A JUMP JUMPDEST PUSH1 0x40 MLOAD DUP1 SWAP2 SUB SWAP1 REVERT JUMPDEST PUSH1 0x0 PUSH1 0x1 PUSH1 0x0 SWAP1 SLOAD SWAP1 PUSH2 0x100 EXP SWAP1 DIV PUSH20 0xFFFFFFFFFFFFFFFFFFFFFFFFFFFFFFFFFFFFFFFF AND PUSH20 0xFFFFFFFFFFFFFFFFFFFFFFFFFFFFFFFFFFFFFFFF AND PUSH4 0x782D6FE1 DUP8 DUP6 PUSH1 0x7 ADD SLOAD PUSH1 0x40 MLOAD DUP4 PUSH4 0xFFFFFFFF AND PUSH1 0xE0 SHL DUP2 MSTORE PUSH1 0x4 ADD PUSH2 0x2625 SWAP3 SWAP2 SWAP1 PUSH2 0x449A JUMP JUMPDEST PUSH1 0x20 PUSH1 0x40 MLOAD DUP1 DUP4 SUB DUP2 DUP7 DUP1 EXTCODESIZE ISZERO DUP1 ISZERO PUSH2 0x263D JUMPI PUSH1 0x0 DUP1 REVERT JUMPDEST POP GAS STATICCALL ISZERO DUP1 ISZERO PUSH2 0x2651 JUMPI RETURNDATASIZE PUSH1 0x0 DUP1 RETURNDATACOPY RETURNDATASIZE PUSH1 0x0 REVERT JUMPDEST POP POP POP POP PUSH1 0x40 MLOAD RETURNDATASIZE PUSH1 0x1F NOT PUSH1 0x1F DUP3 ADD AND DUP3 ADD DUP1 PUSH1 0x40 MSTORE POP DUP2 ADD SWAP1 PUSH2 0x2675 SWAP2 SWAP1 PUSH2 0x33CA JUMP JUMPDEST SWAP1 POP DUP4 ISZERO PUSH2 0x2698 JUMPI PUSH2 0x268B DUP4 PUSH1 0x9 ADD SLOAD DUP3 PUSH2 0x2736 JUMP JUMPDEST DUP4 PUSH1 0x9 ADD DUP2 SWAP1 SSTORE POP PUSH2 0x26AF JUMP JUMPDEST PUSH2 0x26A6 DUP4 PUSH1 0xA ADD SLOAD DUP3 PUSH2 0x2736 JUMP JUMPDEST DUP4 PUSH1 0xA ADD DUP2 SWAP1 SSTORE POP JUMPDEST PUSH1 0x1 DUP3 PUSH1 0x0 ADD PUSH1 0x0 PUSH2 0x100 EXP DUP2 SLOAD DUP2 PUSH1 0xFF MUL NOT AND SWAP1 DUP4 ISZERO ISZERO MUL OR SWAP1 SSTORE POP DUP4 DUP3 PUSH1 0x0 ADD PUSH1 0x1 PUSH2 0x100 EXP DUP2 SLOAD DUP2 PUSH1 0xFF MUL NOT AND SWAP1 DUP4 ISZERO ISZERO MUL OR SWAP1 SSTORE POP DUP1 DUP3 PUSH1 0x1 ADD DUP2 SWAP1 SSTORE POP PUSH32 0x877856338E13F63D0C36822FF0EF736B80934CD90574A3A5BC9262C39D217C46 DUP7 DUP7 DUP7 DUP5 PUSH1 0x40 MLOAD PUSH2 0x2726 SWAP5 SWAP4 SWAP3 SWAP2 SWAP1 PUSH2 0x44C3 JUMP JUMPDEST PUSH1 0x40 MLOAD DUP1 SWAP2 SUB SWAP1 LOG1 POP POP POP POP POP POP JUMP JUMPDEST PUSH1 0x0 DUP1 DUP3 DUP5 ADD SWAP1 POP DUP4 DUP2 LT ISZERO PUSH2 0x2781 JUMPI PUSH1 0x40 MLOAD PUSH32 0x8C379A000000000000000000000000000000000000000000000000000000000 DUP2 MSTORE PUSH1 0x4 ADD PUSH2 0x2778 SWAP1 PUSH2 0x489A JUMP JUMPDEST PUSH1 0x40 MLOAD DUP1 SWAP2 SUB SWAP1 REVERT JUMPDEST DUP1 SWAP2 POP POP SWAP3 SWAP2 POP POP JUMP JUMPDEST PUSH1 0x0 DUP3 DUP3 GT ISZERO PUSH2 0x27D0 JUMPI PUSH1 0x40 MLOAD PUSH32 0x8C379A000000000000000000000000000000000000000000000000000000000 DUP2 MSTORE PUSH1 0x4 ADD PUSH2 0x27C7 SWAP1 PUSH2 0x49DA JUMP JUMPDEST PUSH1 0x40 MLOAD DUP1 SWAP2 SUB SWAP1 REVERT JUMPDEST DUP2 DUP4 SUB SWAP1 POP SWAP3 SWAP2 POP POP JUMP JUMPDEST PUSH1 0x0 DUP1 CHAINID SWAP1 POP DUP1 SWAP2 POP POP SWAP1 JUMP JUMPDEST PUSH1 0x0 DUP1 SLOAD SWAP1 PUSH2 0x100 EXP SWAP1 DIV PUSH20 0xFFFFFFFFFFFFFFFFFFFFFFFFFFFFFFFFFFFFFFFF AND PUSH20 0xFFFFFFFFFFFFFFFFFFFFFFFFFFFFFFFFFFFFFFFF AND PUSH4 0xF2B06537 DUP7 DUP7 DUP7 DUP7 DUP7 PUSH1 0x40 MLOAD PUSH1 0x20 ADD PUSH2 0x283D SWAP6 SWAP5 SWAP4 SWAP3 SWAP2 SWAP1 PUSH2 0x4508 JUMP JUMPDEST PUSH1 0x40 MLOAD PUSH1 0x20 DUP2 DUP4 SUB SUB DUP2 MSTORE SWAP1 PUSH1 0x40 MSTORE DUP1 MLOAD SWAP1 PUSH1 0x20 ADD KECCAK256 PUSH1 0x40 MLOAD DUP3 PUSH4 0xFFFFFFFF AND PUSH1 0xE0 SHL DUP2 MSTORE PUSH1 0x4 ADD PUSH2 0x286F SWAP2 SWAP1 PUSH2 0x462B JUMP JUMPDEST PUSH1 0x20 PUSH1 0x40 MLOAD DUP1 DUP4 SUB DUP2 DUP7 DUP1 EXTCODESIZE ISZERO DUP1 ISZERO PUSH2 0x2887 JUMPI PUSH1 0x0 DUP1 REVERT JUMPDEST POP GAS STATICCALL ISZERO DUP1 ISZERO PUSH2 0x289B JUMPI RETURNDATASIZE PUSH1 0x0 DUP1 RETURNDATACOPY RETURNDATASIZE PUSH1 0x0 REVERT JUMPDEST POP POP POP POP PUSH1 0x40 MLOAD RETURNDATASIZE PUSH1 0x1F NOT PUSH1 0x1F DUP3 ADD AND DUP3 ADD DUP1 PUSH1 0x40 MSTORE POP DUP2 ADD SWAP1 PUSH2 0x28BF SWAP2 SWAP1 PUSH2 0x330E JUMP JUMPDEST ISZERO PUSH2 0x28FF JUMPI PUSH1 0x40 MLOAD PUSH32 0x8C379A000000000000000000000000000000000000000000000000000000000 DUP2 MSTORE PUSH1 0x4 ADD PUSH2 0x28F6 SWAP1 PUSH2 0x48FA JUMP JUMPDEST PUSH1 0x40 MLOAD DUP1 SWAP2 SUB SWAP1 REVERT JUMPDEST PUSH1 0x0 DUP1 SLOAD SWAP1 PUSH2 0x100 EXP SWAP1 DIV PUSH20 0xFFFFFFFFFFFFFFFFFFFFFFFFFFFFFFFFFFFFFFFF AND PUSH20 0xFFFFFFFFFFFFFFFFFFFFFFFFFFFFFFFFFFFFFFFF AND PUSH4 0x3A66F901 DUP7 DUP7 DUP7 DUP7 DUP7 PUSH1 0x40 MLOAD DUP7 PUSH4 0xFFFFFFFF AND PUSH1 0xE0 SHL DUP2 MSTORE PUSH1 0x4 ADD PUSH2 0x2960 SWAP6 SWAP5 SWAP4 SWAP3 SWAP2 SWAP1 PUSH2 0x4508 JUMP JUMPDEST PUSH1 0x20 PUSH1 0x40 MLOAD DUP1 DUP4 SUB DUP2 PUSH1 0x0 DUP8 DUP1 EXTCODESIZE ISZERO DUP1 ISZERO PUSH2 0x297A JUMPI PUSH1 0x0 DUP1 REVERT JUMPDEST POP GAS CALL ISZERO DUP1 ISZERO PUSH2 0x298E JUMPI RETURNDATASIZE PUSH1 0x0 DUP1 RETURNDATACOPY RETURNDATASIZE PUSH1 0x0 REVERT JUMPDEST POP POP POP POP PUSH1 0x40 MLOAD RETURNDATASIZE PUSH1 0x1F NOT PUSH1 0x1F DUP3 ADD AND DUP3 ADD DUP1 PUSH1 0x40 MSTORE POP DUP2 ADD SWAP1 PUSH2 0x29B2 SWAP2 SWAP1 PUSH2 0x3337 JUMP JUMPDEST POP POP POP POP POP POP JUMP JUMPDEST PUSH1 0x40 MLOAD DUP1 PUSH2 0x1A0 ADD PUSH1 0x40 MSTORE DUP1 PUSH1 0x0 DUP2 MSTORE PUSH1 0x20 ADD PUSH1 0x0 PUSH20 0xFFFFFFFFFFFFFFFFFFFFFFFFFFFFFFFFFFFFFFFF AND DUP2 MSTORE PUSH1 0x20 ADD PUSH1 0x0 DUP2 MSTORE PUSH1 0x20 ADD PUSH1 0x60 DUP2 MSTORE PUSH1 0x20 ADD PUSH1 0x60 DUP2 MSTORE PUSH1 0x20 ADD PUSH1 0x60 DUP2 MSTORE PUSH1 0x20 ADD PUSH1 0x60 DUP2 MSTORE PUSH1 0x20 ADD PUSH1 0x0 DUP2 MSTORE PUSH1 0x20 ADD PUSH1 0x0 DUP2 MSTORE PUSH1 0x20 ADD PUSH1 0x0 DUP2 MSTORE PUSH1 0x20 ADD PUSH1 0x0 DUP2 MSTORE PUSH1 0x20 ADD PUSH1 0x0 ISZERO ISZERO DUP2 MSTORE PUSH1 0x20 ADD PUSH1 0x0 ISZERO ISZERO DUP2 MSTORE POP SWAP1 JUMP JUMPDEST DUP3 DUP1 SLOAD DUP3 DUP3 SSTORE SWAP1 PUSH1 0x0 MSTORE PUSH1 0x20 PUSH1 0x0 KECCAK256 SWAP1 DUP2 ADD SWAP3 DUP3 ISZERO PUSH2 0x2AB5 JUMPI SWAP2 PUSH1 0x20 MUL DUP3 ADD JUMPDEST DUP3 DUP2 GT ISZERO PUSH2 0x2AB4 JUMPI DUP3 MLOAD DUP3 PUSH1 0x0 PUSH2 0x100 EXP DUP2 SLOAD DUP2 PUSH20 0xFFFFFFFFFFFFFFFFFFFFFFFFFFFFFFFFFFFFFFFF MUL NOT AND SWAP1 DUP4 PUSH20 0xFFFFFFFFFFFFFFFFFFFFFFFFFFFFFFFFFFFFFFFF AND MUL OR SWAP1 SSTORE POP SWAP2 PUSH1 0x20 ADD SWAP2 SWAP1 PUSH1 0x1 ADD SWAP1 PUSH2 0x2A5C JUMP JUMPDEST JUMPDEST POP SWAP1 POP PUSH2 0x2AC2 SWAP2 SWAP1 PUSH2 0x2BF8 JUMP JUMPDEST POP SWAP1 JUMP JUMPDEST DUP3 DUP1 SLOAD DUP3 DUP3 SSTORE SWAP1 PUSH1 0x0 MSTORE PUSH1 0x20 PUSH1 0x0 KECCAK256 SWAP1 DUP2 ADD SWAP3 DUP3 ISZERO PUSH2 0x2B02 JUMPI SWAP2 PUSH1 0x20 MUL DUP3 ADD JUMPDEST DUP3 DUP2 GT ISZERO PUSH2 0x2B01 JUMPI DUP3 MLOAD DUP3 SSTORE SWAP2 PUSH1 0x20 ADD SWAP2 SWAP1 PUSH1 0x1 ADD SWAP1 PUSH2 0x2AE6 JUMP JUMPDEST JUMPDEST POP SWAP1 POP PUSH2 0x2B0F SWAP2 SWAP1 PUSH2 0x2C33 JUMP JUMPDEST POP SWAP1 JUMP JUMPDEST DUP3 DUP1 SLOAD DUP3 DUP3 SSTORE SWAP1 PUSH1 0x0 MSTORE PUSH1 0x20 PUSH1 0x0 KECCAK256 SWAP1 DUP2 ADD SWAP3 DUP3 ISZERO PUSH2 0x2B62 JUMPI SWAP2 PUSH1 0x20 MUL DUP3 ADD JUMPDEST DUP3 DUP2 GT ISZERO PUSH2 0x2B61 JUMPI DUP3 MLOAD DUP3 SWAP1 DUP1 MLOAD SWAP1 PUSH1 0x20 ADD SWAP1 PUSH2 0x2B51 SWAP3 SWAP2 SWAP1 PUSH2 0x2C50 JUMP JUMPDEST POP SWAP2 PUSH1 0x20 ADD SWAP2 SWAP1 PUSH1 0x1 ADD SWAP1 PUSH2 0x2B33 JUMP JUMPDEST JUMPDEST POP SWAP1 POP PUSH2 0x2B6F SWAP2 SWAP1 PUSH2 0x2CD0 JUMP JUMPDEST POP SWAP1 JUMP JUMPDEST DUP3 DUP1 SLOAD DUP3 DUP3 SSTORE SWAP1 PUSH1 0x0 MSTORE PUSH1 0x20 PUSH1 0x0 KECCAK256 SWAP1 DUP2 ADD SWAP3 DUP3 ISZERO PUSH2 0x2BC2 JUMPI SWAP2 PUSH1 0x20 MUL DUP3 ADD JUMPDEST DUP3 DUP2 GT ISZERO PUSH2 0x2BC1 JUMPI DUP3 MLOAD DUP3 SWAP1 DUP1 MLOAD SWAP1 PUSH1 0x20 ADD SWAP1 PUSH2 0x2BB1 SWAP3 SWAP2 SWAP1 PUSH2 0x2CF4 JUMP JUMPDEST POP SWAP2 PUSH1 0x20 ADD SWAP2 SWAP1 PUSH1 0x1 ADD SWAP1 PUSH2 0x2B93 JUMP JUMPDEST JUMPDEST POP SWAP1 POP PUSH2 0x2BCF SWAP2 SWAP1 PUSH2 0x2D74 JUMP JUMPDEST POP SWAP1 JUMP JUMPDEST PUSH1 0x40 MLOAD DUP1 PUSH1 0x60 ADD PUSH1 0x40 MSTORE DUP1 PUSH1 0x0 ISZERO ISZERO DUP2 MSTORE PUSH1 0x20 ADD PUSH1 0x0 ISZERO ISZERO DUP2 MSTORE PUSH1 0x20 ADD PUSH1 0x0 DUP2 MSTORE POP SWAP1 JUMP JUMPDEST JUMPDEST DUP1 DUP3 GT ISZERO PUSH2 0x2C2F JUMPI PUSH1 0x0 DUP2 DUP2 PUSH2 0x100 EXP DUP2 SLOAD SWAP1 PUSH20 0xFFFFFFFFFFFFFFFFFFFFFFFFFFFFFFFFFFFFFFFF MUL NOT AND SWAP1 SSTORE POP PUSH1 0x1 ADD PUSH2 0x2BF9 JUMP JUMPDEST POP SWAP1 JUMP JUMPDEST JUMPDEST DUP1 DUP3 GT ISZERO PUSH2 0x2C4C JUMPI PUSH1 0x0 DUP2 PUSH1 0x0 SWAP1 SSTORE POP PUSH1 0x1 ADD PUSH2 0x2C34 JUMP JUMPDEST POP SWAP1 JUMP JUMPDEST DUP3 DUP1 SLOAD PUSH1 0x1 DUP2 PUSH1 0x1 AND ISZERO PUSH2 0x100 MUL SUB AND PUSH1 0x2 SWAP1 DIV SWAP1 PUSH1 0x0 MSTORE PUSH1 0x20 PUSH1 0x0 KECCAK256 SWAP1 PUSH1 0x1F ADD PUSH1 0x20 SWAP1 DIV DUP2 ADD SWAP3 DUP3 PUSH1 0x1F LT PUSH2 0x2C91 JUMPI DUP1 MLOAD PUSH1 0xFF NOT AND DUP4 DUP1 ADD OR DUP6 SSTORE PUSH2 0x2CBF JUMP JUMPDEST DUP3 DUP1 ADD PUSH1 0x1 ADD DUP6 SSTORE DUP3 ISZERO PUSH2 0x2CBF JUMPI SWAP2 DUP3 ADD JUMPDEST DUP3 DUP2 GT ISZERO PUSH2 0x2CBE JUMPI DUP3 MLOAD DUP3 SSTORE SWAP2 PUSH1 0x20 ADD SWAP2 SWAP1 PUSH1 0x1 ADD SWAP1 PUSH2 0x2CA3 JUMP JUMPDEST JUMPDEST POP SWAP1 POP PUSH2 0x2CCC SWAP2 SWAP1 PUSH2 0x2C33 JUMP JUMPDEST POP SWAP1 JUMP JUMPDEST JUMPDEST DUP1 DUP3 GT ISZERO PUSH2 0x2CF0 JUMPI PUSH1 0x0 DUP2 DUP2 PUSH2 0x2CE7 SWAP2 SWAP1 PUSH2 0x2D98 JUMP JUMPDEST POP PUSH1 0x1 ADD PUSH2 0x2CD1 JUMP JUMPDEST POP SWAP1 JUMP JUMPDEST DUP3 DUP1 SLOAD PUSH1 0x1 DUP2 PUSH1 0x1 AND ISZERO PUSH2 0x100 MUL SUB AND PUSH1 0x2 SWAP1 DIV SWAP1 PUSH1 0x0 MSTORE PUSH1 0x20 PUSH1 0x0 KECCAK256 SWAP1 PUSH1 0x1F ADD PUSH1 0x20 SWAP1 DIV DUP2 ADD SWAP3 DUP3 PUSH1 0x1F LT PUSH2 0x2D35 JUMPI DUP1 MLOAD PUSH1 0xFF NOT AND DUP4 DUP1 ADD OR DUP6 SSTORE PUSH2 0x2D63 JUMP JUMPDEST DUP3 DUP1 ADD PUSH1 0x1 ADD DUP6 SSTORE DUP3 ISZERO PUSH2 0x2D63 JUMPI SWAP2 DUP3 ADD JUMPDEST DUP3 DUP2 GT ISZERO PUSH2 0x2D62 JUMPI DUP3 MLOAD DUP3 SSTORE SWAP2 PUSH1 0x20 ADD SWAP2 SWAP1 PUSH1 0x1 ADD SWAP1 PUSH2 0x2D47 JUMP JUMPDEST JUMPDEST POP SWAP1 POP PUSH2 0x2D70 SWAP2 SWAP1 PUSH2 0x2C33 JUMP JUMPDEST POP SWAP1 JUMP JUMPDEST JUMPDEST DUP1 DUP3 GT ISZERO PUSH2 0x2D94 JUMPI PUSH1 0x0 DUP2 DUP2 PUSH2 0x2D8B SWAP2 SWAP1 PUSH2 0x2DE0 JUMP JUMPDEST POP PUSH1 0x1 ADD PUSH2 0x2D75 JUMP JUMPDEST POP SWAP1 JUMP JUMPDEST POP DUP1 SLOAD PUSH1 0x1 DUP2 PUSH1 0x1 AND ISZERO PUSH2 0x100 MUL SUB AND PUSH1 0x2 SWAP1 DIV PUSH1 0x0 DUP3 SSTORE DUP1 PUSH1 0x1F LT PUSH2 0x2DBE JUMPI POP PUSH2 0x2DDD JUMP JUMPDEST PUSH1 0x1F ADD PUSH1 0x20 SWAP1 DIV SWAP1 PUSH1 0x0 MSTORE PUSH1 0x20 PUSH1 0x0 KECCAK256 SWAP1 DUP2 ADD SWAP1 PUSH2 0x2DDC SWAP2 SWAP1 PUSH2 0x2C33 JUMP JUMPDEST JUMPDEST POP JUMP JUMPDEST POP DUP1 SLOAD PUSH1 0x1 DUP2 PUSH1 0x1 AND ISZERO PUSH2 0x100 MUL SUB AND PUSH1 0x2 SWAP1 DIV PUSH1 0x0 DUP3 SSTORE DUP1 PUSH1 0x1F LT PUSH2 0x2E06 JUMPI POP PUSH2 0x2E25 JUMP JUMPDEST PUSH1 0x1F ADD PUSH1 0x20 SWAP1 DIV SWAP1 PUSH1 0x0 MSTORE PUSH1 0x20 PUSH1 0x0 KECCAK256 SWAP1 DUP2 ADD SWAP1 PUSH2 0x2E24 SWAP2 SWAP1 PUSH2 0x2C33 JUMP JUMPDEST JUMPDEST POP JUMP JUMPDEST PUSH1 0x0 DUP2 CALLDATALOAD SWAP1 POP PUSH2 0x2E37 DUP2 PUSH2 0x4FCC JUMP JUMPDEST SWAP3 SWAP2 POP POP JUMP JUMPDEST PUSH1 0x0 DUP3 PUSH1 0x1F DUP4 ADD SLT PUSH2 0x2E4E JUMPI PUSH1 0x0 DUP1 REVERT JUMPDEST DUP2 CALLDATALOAD PUSH2 0x2E61 PUSH2 0x2E5C DUP3 PUSH2 0x4BE3 JUMP JUMPDEST PUSH2 0x4BB6 JUMP JUMPDEST SWAP2 POP DUP2 DUP2 DUP4 MSTORE PUSH1 0x20 DUP5 ADD SWAP4 POP PUSH1 0x20 DUP2 ADD SWAP1 POP DUP4 DUP6 PUSH1 0x20 DUP5 MUL DUP3 ADD GT ISZERO PUSH2 0x2E86 JUMPI PUSH1 0x0 DUP1 REVERT JUMPDEST PUSH1 0x0 JUMPDEST DUP4 DUP2 LT ISZERO PUSH2 0x2EB6 JUMPI DUP2 PUSH2 0x2E9C DUP9 DUP3 PUSH2 0x2E28 JUMP JUMPDEST DUP5 MSTORE PUSH1 0x20 DUP5 ADD SWAP4 POP PUSH1 0x20 DUP4 ADD SWAP3 POP POP PUSH1 0x1 DUP2 ADD SWAP1 POP PUSH2 0x2E89 JUMP JUMPDEST POP POP POP POP SWAP3 SWAP2 POP POP JUMP JUMPDEST PUSH1 0x0 DUP3 PUSH1 0x1F DUP4 ADD SLT PUSH2 0x2ED1 JUMPI PUSH1 0x0 DUP1 REVERT JUMPDEST DUP2 CALLDATALOAD PUSH2 0x2EE4 PUSH2 0x2EDF DUP3 PUSH2 0x4C0B JUMP JUMPDEST PUSH2 0x4BB6 JUMP JUMPDEST SWAP2 POP DUP2 DUP2 DUP4 MSTORE PUSH1 0x20 DUP5 ADD SWAP4 POP PUSH1 0x20 DUP2 ADD SWAP1 POP DUP4 PUSH1 0x0 JUMPDEST DUP4 DUP2 LT ISZERO PUSH2 0x2F2A JUMPI DUP2 CALLDATALOAD DUP7 ADD PUSH2 0x2F10 DUP9 DUP3 PUSH2 0x307F JUMP JUMPDEST DUP5 MSTORE PUSH1 0x20 DUP5 ADD SWAP4 POP PUSH1 0x20 DUP4 ADD SWAP3 POP POP PUSH1 0x1 DUP2 ADD SWAP1 POP PUSH2 0x2EFA JUMP JUMPDEST POP POP POP POP SWAP3 SWAP2 POP POP JUMP JUMPDEST PUSH1 0x0 DUP3 PUSH1 0x1F DUP4 ADD SLT PUSH2 0x2F45 JUMPI PUSH1 0x0 DUP1 REVERT JUMPDEST DUP2 CALLDATALOAD PUSH2 0x2F58 PUSH2 0x2F53 DUP3 PUSH2 0x4C33 JUMP JUMPDEST PUSH2 0x4BB6 JUMP JUMPDEST SWAP2 POP DUP2 DUP2 DUP4 MSTORE PUSH1 0x20 DUP5 ADD SWAP4 POP PUSH1 0x20 DUP2 ADD SWAP1 POP DUP4 PUSH1 0x0 JUMPDEST DUP4 DUP2 LT ISZERO PUSH2 0x2F9E JUMPI DUP2 CALLDATALOAD DUP7 ADD PUSH2 0x2F84 DUP9 DUP3 PUSH2 0x3127 JUMP JUMPDEST DUP5 MSTORE PUSH1 0x20 DUP5 ADD SWAP4 POP PUSH1 0x20 DUP4 ADD SWAP3 POP POP PUSH1 0x1 DUP2 ADD SWAP1 POP PUSH2 0x2F6E JUMP JUMPDEST POP POP POP POP SWAP3 SWAP2 POP POP JUMP JUMPDEST PUSH1 0x0 DUP3 PUSH1 0x1F DUP4 ADD SLT PUSH2 0x2FB9 JUMPI PUSH1 0x0 DUP1 REVERT JUMPDEST DUP2 CALLDATALOAD PUSH2 0x2FCC PUSH2 0x2FC7 DUP3 PUSH2 0x4C5B JUMP JUMPDEST PUSH2 0x4BB6 JUMP JUMPDEST SWAP2 POP DUP2 DUP2 DUP4 MSTORE PUSH1 0x20 DUP5 ADD SWAP4 POP PUSH1 0x20 DUP2 ADD SWAP1 POP DUP4 DUP6 PUSH1 0x20 DUP5 MUL DUP3 ADD GT ISZERO PUSH2 0x2FF1 JUMPI PUSH1 0x0 DUP1 REVERT JUMPDEST PUSH1 0x0 JUMPDEST DUP4 DUP2 LT ISZERO PUSH2 0x3021 JUMPI DUP2 PUSH2 0x3007 DUP9 DUP3 PUSH2 0x317B JUMP JUMPDEST DUP5 MSTORE PUSH1 0x20 DUP5 ADD SWAP4 POP PUSH1 0x20 DUP4 ADD SWAP3 POP POP PUSH1 0x1 DUP2 ADD SWAP1 POP PUSH2 0x2FF4 JUMP JUMPDEST POP POP POP POP SWAP3 SWAP2 POP POP JUMP JUMPDEST PUSH1 0x0 DUP2 CALLDATALOAD SWAP1 POP PUSH2 0x303A DUP2 PUSH2 0x4FE3 JUMP JUMPDEST SWAP3 SWAP2 POP POP JUMP JUMPDEST PUSH1 0x0 DUP2 MLOAD SWAP1 POP PUSH2 0x304F DUP2 PUSH2 0x4FE3 JUMP JUMPDEST SWAP3 SWAP2 POP POP JUMP JUMPDEST PUSH1 0x0 DUP2 CALLDATALOAD SWAP1 POP PUSH2 0x3064 DUP2 PUSH2 0x4FFA JUMP JUMPDEST SWAP3 SWAP2 POP POP JUMP JUMPDEST PUSH1 0x0 DUP2 MLOAD SWAP1 POP PUSH2 0x3079 DUP2 PUSH2 0x4FFA JUMP JUMPDEST SWAP3 SWAP2 POP POP JUMP JUMPDEST PUSH1 0x0 DUP3 PUSH1 0x1F DUP4 ADD SLT PUSH2 0x3090 JUMPI PUSH1 0x0 DUP1 REVERT JUMPDEST DUP2 CALLDATALOAD PUSH2 0x30A3 PUSH2 0x309E DUP3 PUSH2 0x4C83 JUMP JUMPDEST PUSH2 0x4BB6 JUMP JUMPDEST SWAP2 POP DUP1 DUP3 MSTORE PUSH1 0x20 DUP4 ADD PUSH1 0x20 DUP4 ADD DUP6 DUP4 DUP4 ADD GT ISZERO PUSH2 0x30BF JUMPI PUSH1 0x0 DUP1 REVERT JUMPDEST PUSH2 0x30CA DUP4 DUP3 DUP5 PUSH2 0x4F62 JUMP JUMPDEST POP POP POP SWAP3 SWAP2 POP POP JUMP JUMPDEST PUSH1 0x0 DUP3 PUSH1 0x1F DUP4 ADD SLT PUSH2 0x30E4 JUMPI PUSH1 0x0 DUP1 REVERT JUMPDEST DUP2 MLOAD PUSH2 0x30F7 PUSH2 0x30F2 DUP3 PUSH2 0x4C83 JUMP JUMPDEST PUSH2 0x4BB6 JUMP JUMPDEST SWAP2 POP DUP1 DUP3 MSTORE PUSH1 0x20 DUP4 ADD PUSH1 0x20 DUP4 ADD DUP6 DUP4 DUP4 ADD GT ISZERO PUSH2 0x3113 JUMPI PUSH1 0x0 DUP1 REVERT JUMPDEST PUSH2 0x311E DUP4 DUP3 DUP5 PUSH2 0x4F71 JUMP JUMPDEST POP POP POP SWAP3 SWAP2 POP POP JUMP JUMPDEST PUSH1 0x0 DUP3 PUSH1 0x1F DUP4 ADD SLT PUSH2 0x3138 JUMPI PUSH1 0x0 DUP1 REVERT JUMPDEST DUP2 CALLDATALOAD PUSH2 0x314B PUSH2 0x3146 DUP3 PUSH2 0x4CAF JUMP JUMPDEST PUSH2 0x4BB6 JUMP JUMPDEST SWAP2 POP DUP1 DUP3 MSTORE PUSH1 0x20 DUP4 ADD PUSH1 0x20 DUP4 ADD DUP6 DUP4 DUP4 ADD GT ISZERO PUSH2 0x3167 JUMPI PUSH1 0x0 DUP1 REVERT JUMPDEST PUSH2 0x3172 DUP4 DUP3 DUP5 PUSH2 0x4F62 JUMP JUMPDEST POP POP POP SWAP3 SWAP2 POP POP JUMP JUMPDEST PUSH1 0x0 DUP2 CALLDATALOAD SWAP1 POP PUSH2 0x318A DUP2 PUSH2 0x5011 JUMP JUMPDEST SWAP3 SWAP2 POP POP JUMP JUMPDEST PUSH1 0x0 DUP2 MLOAD SWAP1 POP PUSH2 0x319F DUP2 PUSH2 0x5011 JUMP JUMPDEST SWAP3 SWAP2 POP POP JUMP JUMPDEST PUSH1 0x0 DUP2 CALLDATALOAD SWAP1 POP PUSH2 0x31B4 DUP2 PUSH2 0x5028 JUMP JUMPDEST SWAP3 SWAP2 POP POP JUMP JUMPDEST PUSH1 0x0 PUSH1 0x20 DUP3 DUP5 SUB SLT ISZERO PUSH2 0x31CC JUMPI PUSH1 0x0 DUP1 REVERT JUMPDEST PUSH1 0x0 PUSH2 0x31DA DUP5 DUP3 DUP6 ADD PUSH2 0x2E28 JUMP JUMPDEST SWAP2 POP POP SWAP3 SWAP2 POP POP JUMP JUMPDEST PUSH1 0x0 DUP1 PUSH1 0x40 DUP4 DUP6 SUB SLT ISZERO PUSH2 0x31F6 JUMPI PUSH1 0x0 DUP1 REVERT JUMPDEST PUSH1 0x0 PUSH2 0x3204 DUP6 DUP3 DUP7 ADD PUSH2 0x2E28 JUMP JUMPDEST SWAP3 POP POP PUSH1 0x20 PUSH2 0x3215 DUP6 DUP3 DUP7 ADD PUSH2 0x317B JUMP JUMPDEST SWAP2 POP POP SWAP3 POP SWAP3 SWAP1 POP JUMP JUMPDEST PUSH1 0x0 DUP1 PUSH1 0x0 DUP1 PUSH1 0x0 PUSH1 0xA0 DUP7 DUP9 SUB SLT ISZERO PUSH2 0x3237 JUMPI PUSH1 0x0 DUP1 REVERT JUMPDEST PUSH1 0x0 DUP7 ADD CALLDATALOAD PUSH8 0xFFFFFFFFFFFFFFFF DUP2 GT ISZERO PUSH2 0x3251 JUMPI PUSH1 0x0 DUP1 REVERT JUMPDEST PUSH2 0x325D DUP9 DUP3 DUP10 ADD PUSH2 0x2E3D JUMP JUMPDEST SWAP6 POP POP PUSH1 0x20 DUP7 ADD CALLDATALOAD PUSH8 0xFFFFFFFFFFFFFFFF DUP2 GT ISZERO PUSH2 0x327A JUMPI PUSH1 0x0 DUP1 REVERT JUMPDEST PUSH2 0x3286 DUP9 DUP3 DUP10 ADD PUSH2 0x2FA8 JUMP JUMPDEST SWAP5 POP POP PUSH1 0x40 DUP7 ADD CALLDATALOAD PUSH8 0xFFFFFFFFFFFFFFFF DUP2 GT ISZERO PUSH2 0x32A3 JUMPI PUSH1 0x0 DUP1 REVERT JUMPDEST PUSH2 0x32AF DUP9 DUP3 DUP10 ADD PUSH2 0x2F34 JUMP JUMPDEST SWAP4 POP POP PUSH1 0x60 DUP7 ADD CALLDATALOAD PUSH8 0xFFFFFFFFFFFFFFFF DUP2 GT ISZERO PUSH2 0x32CC JUMPI PUSH1 0x0 DUP1 REVERT JUMPDEST PUSH2 0x32D8 DUP9 DUP3 DUP10 ADD PUSH2 0x2EC0 JUMP JUMPDEST SWAP3 POP POP PUSH1 0x80 DUP7 ADD CALLDATALOAD PUSH8 0xFFFFFFFFFFFFFFFF DUP2 GT ISZERO PUSH2 0x32F5 JUMPI PUSH1 0x0 DUP1 REVERT JUMPDEST PUSH2 0x3301 DUP9 DUP3 DUP10 ADD PUSH2 0x3127 JUMP JUMPDEST SWAP2 POP POP SWAP3 SWAP6 POP SWAP3 SWAP6 SWAP1 SWAP4 POP JUMP JUMPDEST PUSH1 0x0 PUSH1 0x20 DUP3 DUP5 SUB SLT ISZERO PUSH2 0x3320 JUMPI PUSH1 0x0 DUP1 REVERT JUMPDEST PUSH1 0x0 PUSH2 0x332E DUP5 DUP3 DUP6 ADD PUSH2 0x3040 JUMP JUMPDEST SWAP2 POP POP SWAP3 SWAP2 POP POP JUMP JUMPDEST PUSH1 0x0 PUSH1 0x20 DUP3 DUP5 SUB SLT ISZERO PUSH2 0x3349 JUMPI PUSH1 0x0 DUP1 REVERT JUMPDEST PUSH1 0x0 PUSH2 0x3357 DUP5 DUP3 DUP6 ADD PUSH2 0x306A JUMP JUMPDEST SWAP2 POP POP SWAP3 SWAP2 POP POP JUMP JUMPDEST PUSH1 0x0 PUSH1 0x20 DUP3 DUP5 SUB SLT ISZERO PUSH2 0x3372 JUMPI PUSH1 0x0 DUP1 REVERT JUMPDEST PUSH1 0x0 DUP3 ADD MLOAD PUSH8 0xFFFFFFFFFFFFFFFF DUP2 GT ISZERO PUSH2 0x338C JUMPI PUSH1 0x0 DUP1 REVERT JUMPDEST PUSH2 0x3398 DUP5 DUP3 DUP6 ADD PUSH2 0x30D3 JUMP JUMPDEST SWAP2 POP POP SWAP3 SWAP2 POP POP JUMP JUMPDEST PUSH1 0x0 PUSH1 0x20 DUP3 DUP5 SUB SLT ISZERO PUSH2 0x33B3 JUMPI PUSH1 0x0 DUP1 REVERT JUMPDEST PUSH1 0x0 PUSH2 0x33C1 DUP5 DUP3 DUP6 ADD PUSH2 0x317B JUMP JUMPDEST SWAP2 POP POP SWAP3 SWAP2 POP POP JUMP JUMPDEST PUSH1 0x0 PUSH1 0x20 DUP3 DUP5 SUB SLT ISZERO PUSH2 0x33DC JUMPI PUSH1 0x0 DUP1 REVERT JUMPDEST PUSH1 0x0 PUSH2 0x33EA DUP5 DUP3 DUP6 ADD PUSH2 0x3190 JUMP JUMPDEST SWAP2 POP POP SWAP3 SWAP2 POP POP JUMP JUMPDEST PUSH1 0x0 DUP1 PUSH1 0x40 DUP4 DUP6 SUB SLT ISZERO PUSH2 0x3406 JUMPI PUSH1 0x0 DUP1 REVERT JUMPDEST PUSH1 0x0 PUSH2 0x3414 DUP6 DUP3 DUP7 ADD PUSH2 0x317B JUMP JUMPDEST SWAP3 POP POP PUSH1 0x20 PUSH2 0x3425 DUP6 DUP3 DUP7 ADD PUSH2 0x2E28 JUMP JUMPDEST SWAP2 POP POP SWAP3 POP SWAP3 SWAP1 POP JUMP JUMPDEST PUSH1 0x0 DUP1 PUSH1 0x40 DUP4 DUP6 SUB SLT ISZERO PUSH2 0x3442 JUMPI PUSH1 0x0 DUP1 REVERT JUMPDEST PUSH1 0x0 PUSH2 0x3450 DUP6 DUP3 DUP7 ADD PUSH2 0x317B JUMP JUMPDEST SWAP3 POP POP PUSH1 0x20 PUSH2 0x3461 DUP6 DUP3 DUP7 ADD PUSH2 0x302B JUMP JUMPDEST SWAP2 POP POP SWAP3 POP SWAP3 SWAP1 POP JUMP JUMPDEST PUSH1 0x0 DUP1 PUSH1 0x0 DUP1 PUSH1 0x0 PUSH1 0xA0 DUP7 DUP9 SUB SLT ISZERO PUSH2 0x3483 JUMPI PUSH1 0x0 DUP1 REVERT JUMPDEST PUSH1 0x0 PUSH2 0x3491 DUP9 DUP3 DUP10 ADD PUSH2 0x317B JUMP JUMPDEST SWAP6 POP POP PUSH1 0x20 PUSH2 0x34A2 DUP9 DUP3 DUP10 ADD PUSH2 0x302B JUMP JUMPDEST SWAP5 POP POP PUSH1 0x40 PUSH2 0x34B3 DUP9 DUP3 DUP10 ADD PUSH2 0x31A5 JUMP JUMPDEST SWAP4 POP POP PUSH1 0x60 PUSH2 0x34C4 DUP9 DUP3 DUP10 ADD PUSH2 0x3055 JUMP JUMPDEST SWAP3 POP POP PUSH1 0x80 PUSH2 0x34D5 DUP9 DUP3 DUP10 ADD PUSH2 0x3055 JUMP JUMPDEST SWAP2 POP POP SWAP3 SWAP6 POP SWAP3 SWAP6 SWAP1 SWAP4 POP JUMP JUMPDEST PUSH1 0x0 PUSH2 0x34EE DUP4 DUP4 PUSH2 0x3549 JUMP JUMPDEST PUSH1 0x20 DUP4 ADD SWAP1 POP SWAP3 SWAP2 POP POP JUMP JUMPDEST PUSH1 0x0 PUSH2 0x3506 DUP4 DUP4 PUSH2 0x3751 JUMP JUMPDEST SWAP1 POP SWAP3 SWAP2 POP POP JUMP JUMPDEST PUSH1 0x0 PUSH2 0x351A DUP4 DUP4 PUSH2 0x388E JUMP JUMPDEST SWAP1 POP SWAP3 SWAP2 POP POP JUMP JUMPDEST PUSH1 0x0 PUSH2 0x352E DUP4 DUP4 PUSH2 0x4393 JUMP JUMPDEST PUSH1 0x20 DUP4 ADD SWAP1 POP SWAP3 SWAP2 POP POP JUMP JUMPDEST PUSH2 0x3543 DUP2 PUSH2 0x4EC0 JUMP JUMPDEST DUP3 MSTORE POP POP JUMP JUMPDEST PUSH2 0x3552 DUP2 PUSH2 0x4E4E JUMP JUMPDEST DUP3 MSTORE POP POP JUMP JUMPDEST PUSH2 0x3561 DUP2 PUSH2 0x4E4E JUMP JUMPDEST DUP3 MSTORE POP POP JUMP JUMPDEST PUSH1 0x0 PUSH2 0x3572 DUP3 PUSH2 0x4D45 JUMP JUMPDEST PUSH2 0x357C DUP2 DUP6 PUSH2 0x4DBB JUMP JUMPDEST SWAP4 POP PUSH2 0x3587 DUP4 PUSH2 0x4CDB JUMP JUMPDEST DUP1 PUSH1 0x0 JUMPDEST DUP4 DUP2 LT ISZERO PUSH2 0x35B8 JUMPI DUP2 MLOAD PUSH2 0x359F DUP9 DUP3 PUSH2 0x34E2 JUMP JUMPDEST SWAP8 POP PUSH2 0x35AA DUP4 PUSH2 0x4D87 JUMP JUMPDEST SWAP3 POP POP PUSH1 0x1 DUP2 ADD SWAP1 POP PUSH2 0x358B JUMP JUMPDEST POP DUP6 SWAP4 POP POP POP POP SWAP3 SWAP2 POP POP JUMP JUMPDEST PUSH1 0x0 PUSH2 0x35D0 DUP3 PUSH2 0x4D50 JUMP JUMPDEST PUSH2 0x35DA DUP2 DUP6 PUSH2 0x4DCC JUMP JUMPDEST SWAP4 POP DUP4 PUSH1 0x20 DUP3 MUL DUP6 ADD PUSH2 0x35EC DUP6 PUSH2 0x4CEB JUMP JUMPDEST DUP1 PUSH1 0x0 JUMPDEST DUP6 DUP2 LT ISZERO PUSH2 0x3628 JUMPI DUP5 DUP5 SUB DUP10 MSTORE DUP2 MLOAD PUSH2 0x3609 DUP6 DUP3 PUSH2 0x34FA JUMP JUMPDEST SWAP5 POP PUSH2 0x3614 DUP4 PUSH2 0x4D94 JUMP JUMPDEST SWAP3 POP PUSH1 0x20 DUP11 ADD SWAP10 POP POP PUSH1 0x1 DUP2 ADD SWAP1 POP PUSH2 0x35F0 JUMP JUMPDEST POP DUP3 SWAP8 POP DUP8 SWAP6 POP POP POP POP POP POP SWAP3 SWAP2 POP POP JUMP JUMPDEST PUSH1 0x0 PUSH2 0x3645 DUP3 PUSH2 0x4D5B JUMP JUMPDEST PUSH2 0x364F DUP2 DUP6 PUSH2 0x4DDD JUMP JUMPDEST SWAP4 POP DUP4 PUSH1 0x20 DUP3 MUL DUP6 ADD PUSH2 0x3661 DUP6 PUSH2 0x4CFB JUMP JUMPDEST DUP1 PUSH1 0x0 JUMPDEST DUP6 DUP2 LT ISZERO PUSH2 0x369D JUMPI DUP5 DUP5 SUB DUP10 MSTORE DUP2 MLOAD PUSH2 0x367E DUP6 DUP3 PUSH2 0x350E JUMP JUMPDEST SWAP5 POP PUSH2 0x3689 DUP4 PUSH2 0x4DA1 JUMP JUMPDEST SWAP3 POP PUSH1 0x20 DUP11 ADD SWAP10 POP POP PUSH1 0x1 DUP2 ADD SWAP1 POP PUSH2 0x3665 JUMP JUMPDEST POP DUP3 SWAP8 POP DUP8 SWAP6 POP POP POP POP POP POP SWAP3 SWAP2 POP POP JUMP JUMPDEST PUSH1 0x0 PUSH2 0x36BA DUP3 PUSH2 0x4D66 JUMP JUMPDEST PUSH2 0x36C4 DUP2 DUP6 PUSH2 0x4DEE JUMP JUMPDEST SWAP4 POP PUSH2 0x36CF DUP4 PUSH2 0x4D0B JUMP JUMPDEST DUP1 PUSH1 0x0 JUMPDEST DUP4 DUP2 LT ISZERO PUSH2 0x3700 JUMPI DUP2 MLOAD PUSH2 0x36E7 DUP9 DUP3 PUSH2 0x3522 JUMP JUMPDEST SWAP8 POP PUSH2 0x36F2 DUP4 PUSH2 0x4DAE JUMP JUMPDEST SWAP3 POP POP PUSH1 0x1 DUP2 ADD SWAP1 POP PUSH2 0x36D3 JUMP JUMPDEST POP DUP6 SWAP4 POP POP POP POP SWAP3 SWAP2 POP POP JUMP JUMPDEST PUSH2 0x3716 DUP2 PUSH2 0x4E60 JUMP JUMPDEST DUP3 MSTORE POP POP JUMP JUMPDEST PUSH2 0x3725 DUP2 PUSH2 0x4E60 JUMP JUMPDEST DUP3 MSTORE POP POP JUMP JUMPDEST PUSH2 0x3734 DUP2 PUSH2 0x4E6C JUMP JUMPDEST DUP3 MSTORE POP POP JUMP JUMPDEST PUSH2 0x374B PUSH2 0x3746 DUP3 PUSH2 0x4E6C JUMP JUMPDEST PUSH2 0x4FA4 JUMP JUMPDEST DUP3 MSTORE POP POP JUMP JUMPDEST PUSH1 0x0 PUSH2 0x375C DUP3 PUSH2 0x4D71 JUMP JUMPDEST PUSH2 0x3766 DUP2 DUP6 PUSH2 0x4DFF JUMP JUMPDEST SWAP4 POP PUSH2 0x3776 DUP2 DUP6 PUSH1 0x20 DUP7 ADD PUSH2 0x4F71 JUMP JUMPDEST PUSH2 0x377F DUP2 PUSH2 0x4FAE JUMP JUMPDEST DUP5 ADD SWAP2 POP POP SWAP3 SWAP2 POP POP JUMP JUMPDEST PUSH1 0x0 PUSH2 0x3795 DUP3 PUSH2 0x4D71 JUMP JUMPDEST PUSH2 0x379F DUP2 DUP6 PUSH2 0x4E10 JUMP JUMPDEST SWAP4 POP PUSH2 0x37AF DUP2 DUP6 PUSH1 0x20 DUP7 ADD PUSH2 0x4F71 JUMP JUMPDEST PUSH2 0x37B8 DUP2 PUSH2 0x4FAE JUMP JUMPDEST DUP5 ADD SWAP2 POP POP SWAP3 SWAP2 POP POP JUMP JUMPDEST PUSH1 0x0 DUP2 SLOAD PUSH1 0x1 DUP2 AND PUSH1 0x0 DUP2 EQ PUSH2 0x37E0 JUMPI PUSH1 0x1 DUP2 EQ PUSH2 0x3806 JUMPI PUSH2 0x384A JUMP JUMPDEST PUSH1 0x7F PUSH1 0x2 DUP4 DIV AND PUSH2 0x37F1 DUP2 DUP8 PUSH2 0x4E10 JUMP JUMPDEST SWAP6 POP PUSH1 0xFF NOT DUP4 AND DUP7 MSTORE PUSH1 0x20 DUP7 ADD SWAP4 POP POP PUSH2 0x384A JUMP JUMPDEST PUSH1 0x2 DUP3 DIV PUSH2 0x3814 DUP2 DUP8 PUSH2 0x4E10 JUMP JUMPDEST SWAP6 POP PUSH2 0x381F DUP6 PUSH2 0x4D1B JUMP JUMPDEST PUSH1 0x0 JUMPDEST DUP3 DUP2 LT ISZERO PUSH2 0x3841 JUMPI DUP2 SLOAD DUP2 DUP10 ADD MSTORE PUSH1 0x1 DUP3 ADD SWAP2 POP PUSH1 0x20 DUP2 ADD SWAP1 POP PUSH2 0x3822 JUMP JUMPDEST DUP1 DUP9 ADD SWAP6 POP POP POP POP JUMPDEST POP POP SWAP3 SWAP2 POP POP JUMP JUMPDEST PUSH2 0x385B DUP2 PUSH2 0x4ED2 JUMP JUMPDEST DUP3 MSTORE POP POP JUMP JUMPDEST PUSH2 0x386A DUP2 PUSH2 0x4EF6 JUMP JUMPDEST DUP3 MSTORE POP POP JUMP JUMPDEST PUSH2 0x3879 DUP2 PUSH2 0x4F1A JUMP JUMPDEST DUP3 MSTORE POP POP JUMP JUMPDEST PUSH2 0x3888 DUP2 PUSH2 0x4F2C JUMP JUMPDEST DUP3 MSTORE POP POP JUMP JUMPDEST PUSH1 0x0 PUSH2 0x3899 DUP3 PUSH2 0x4D7C JUMP JUMPDEST PUSH2 0x38A3 DUP2 DUP6 PUSH2 0x4E21 JUMP JUMPDEST SWAP4 POP PUSH2 0x38B3 DUP2 DUP6 PUSH1 0x20 DUP7 ADD PUSH2 0x4F71 JUMP JUMPDEST PUSH2 0x38BC DUP2 PUSH2 0x4FAE JUMP JUMPDEST DUP5 ADD SWAP2 POP POP SWAP3 SWAP2 POP POP JUMP JUMPDEST PUSH1 0x0 PUSH2 0x38D2 DUP3 PUSH2 0x4D7C JUMP JUMPDEST PUSH2 0x38DC DUP2 DUP6 PUSH2 0x4E32 JUMP JUMPDEST SWAP4 POP PUSH2 0x38EC DUP2 DUP6 PUSH1 0x20 DUP7 ADD PUSH2 0x4F71 JUMP JUMPDEST PUSH2 0x38F5 DUP2 PUSH2 0x4FAE JUMP JUMPDEST DUP5 ADD SWAP2 POP POP SWAP3 SWAP2 POP POP JUMP JUMPDEST PUSH1 0x0 DUP2 SLOAD PUSH1 0x1 DUP2 AND PUSH1 0x0 DUP2 EQ PUSH2 0x391D JUMPI PUSH1 0x1 DUP2 EQ PUSH2 0x3943 JUMPI PUSH2 0x3987 JUMP JUMPDEST PUSH1 0x7F PUSH1 0x2 DUP4 DIV AND PUSH2 0x392E DUP2 DUP8 PUSH2 0x4E32 JUMP JUMPDEST SWAP6 POP PUSH1 0xFF NOT DUP4 AND DUP7 MSTORE PUSH1 0x20 DUP7 ADD SWAP4 POP POP PUSH2 0x3987 JUMP JUMPDEST PUSH1 0x2 DUP3 DIV PUSH2 0x3951 DUP2 DUP8 PUSH2 0x4E32 JUMP JUMPDEST SWAP6 POP PUSH2 0x395C DUP6 PUSH2 0x4D30 JUMP JUMPDEST PUSH1 0x0 JUMPDEST DUP3 DUP2 LT ISZERO PUSH2 0x397E JUMPI DUP2 SLOAD DUP2 DUP10 ADD MSTORE PUSH1 0x1 DUP3 ADD SWAP2 POP PUSH1 0x20 DUP2 ADD SWAP1 POP PUSH2 0x395F JUMP JUMPDEST DUP1 DUP9 ADD SWAP6 POP POP POP POP JUMPDEST POP POP SWAP3 SWAP2 POP POP JUMP JUMPDEST PUSH1 0x0 PUSH2 0x399C PUSH1 0x39 DUP4 PUSH2 0x4E32 JUMP JUMPDEST SWAP2 POP PUSH32 0x476F7665726E6F72416C7068613A3A5F5F61636365707441646D696E3A207365 PUSH1 0x0 DUP4 ADD MSTORE PUSH32 0x6E646572206D75737420626520676F7620677561726469616E00000000000000 PUSH1 0x20 DUP4 ADD MSTORE PUSH1 0x40 DUP3 ADD SWAP1 POP SWAP2 SWAP1 POP JUMP JUMPDEST PUSH1 0x0 PUSH2 0x3A02 PUSH1 0x44 DUP4 PUSH2 0x4E32 JUMP JUMPDEST SWAP2 POP PUSH32 0x476F7665726E6F72416C7068613A3A71756575653A2070726F706F73616C2063 PUSH1 0x0 DUP4 ADD MSTORE PUSH32 0x616E206F6E6C7920626520717565756564206966206974206973207375636365 PUSH1 0x20 DUP4 ADD MSTORE PUSH32 0x6564656400000000000000000000000000000000000000000000000000000000 PUSH1 0x40 DUP4 ADD MSTORE PUSH1 0x60 DUP3 ADD SWAP1 POP SWAP2 SWAP1 POP JUMP JUMPDEST PUSH1 0x0 PUSH2 0x3A8E PUSH1 0x45 DUP4 PUSH2 0x4E32 JUMP JUMPDEST SWAP2 POP PUSH32 0x476F7665726E6F72416C7068613A3A657865637574653A2070726F706F73616C PUSH1 0x0 DUP4 ADD MSTORE PUSH32 0x2063616E206F6E6C792062652065786563757465642069662069742069732071 PUSH1 0x20 DUP4 ADD MSTORE PUSH32 0x7565756564000000000000000000000000000000000000000000000000000000 PUSH1 0x40 DUP4 ADD MSTORE PUSH1 0x60 DUP3 ADD SWAP1 POP SWAP2 SWAP1 POP JUMP JUMPDEST PUSH1 0x0 PUSH2 0x3B1A PUSH1 0x2 DUP4 PUSH2 0x4E43 JUMP JUMPDEST SWAP2 POP PUSH32 0x1901000000000000000000000000000000000000000000000000000000000000 PUSH1 0x0 DUP4 ADD MSTORE PUSH1 0x2 DUP3 ADD SWAP1 POP SWAP2 SWAP1 POP JUMP JUMPDEST PUSH1 0x0 PUSH2 0x3B5A PUSH1 0x4C DUP4 PUSH2 0x4E32 JUMP JUMPDEST SWAP2 POP PUSH32 0x476F7665726E6F72416C7068613A3A5F5F6578656375746553657454696D656C PUSH1 0x0 DUP4 ADD MSTORE PUSH32 0x6F636B50656E64696E6741646D696E3A2073656E646572206D75737420626520 PUSH1 0x20 DUP4 ADD MSTORE PUSH32 0x676F7620677561726469616E0000000000000000000000000000000000000000 PUSH1 0x40 DUP4 ADD MSTORE PUSH1 0x60 DUP3 ADD SWAP1 POP SWAP2 SWAP1 POP JUMP JUMPDEST PUSH1 0x0 PUSH2 0x3BE6 PUSH1 0x18 DUP4 PUSH2 0x4E32 JUMP JUMPDEST SWAP2 POP PUSH32 0x73657450656E64696E6741646D696E2861646472657373290000000000000000 PUSH1 0x0 DUP4 ADD MSTORE PUSH1 0x20 DUP3 ADD SWAP1 POP SWAP2 SWAP1 POP JUMP JUMPDEST PUSH1 0x0 PUSH2 0x3C26 PUSH1 0x29 DUP4 PUSH2 0x4E32 JUMP JUMPDEST SWAP2 POP PUSH32 0x476F7665726E6F72416C7068613A3A73746174653A20696E76616C6964207072 PUSH1 0x0 DUP4 ADD MSTORE PUSH32 0x6F706F73616C2069640000000000000000000000000000000000000000000000 PUSH1 0x20 DUP4 ADD MSTORE PUSH1 0x40 DUP3 ADD SWAP1 POP SWAP2 SWAP1 POP JUMP JUMPDEST PUSH1 0x0 PUSH2 0x3C8C PUSH1 0x2D DUP4 PUSH2 0x4E32 JUMP JUMPDEST SWAP2 POP PUSH32 0x476F7665726E6F72416C7068613A3A5F63617374566F74653A20766F74657220 PUSH1 0x0 DUP4 ADD MSTORE PUSH32 0x616C726561647920766F74656400000000000000000000000000000000000000 PUSH1 0x20 DUP4 ADD MSTORE PUSH1 0x40 DUP3 ADD SWAP1 POP SWAP2 SWAP1 POP JUMP JUMPDEST PUSH1 0x0 PUSH2 0x3CF2 PUSH1 0x59 DUP4 PUSH2 0x4E32 JUMP JUMPDEST SWAP2 POP PUSH32 0x476F7665726E6F72416C7068613A3A70726F706F73653A206F6E65206C697665 PUSH1 0x0 DUP4 ADD MSTORE PUSH32 0x2070726F706F73616C207065722070726F706F7365722C20666F756E6420616E PUSH1 0x20 DUP4 ADD MSTORE PUSH32 0x20616C72656164792070656E64696E672070726F706F73616C00000000000000 PUSH1 0x40 DUP4 ADD MSTORE PUSH1 0x60 DUP3 ADD SWAP1 POP SWAP2 SWAP1 POP JUMP JUMPDEST PUSH1 0x0 PUSH2 0x3D7E PUSH1 0x4A DUP4 PUSH2 0x4E32 JUMP JUMPDEST SWAP2 POP PUSH32 0x476F7665726E6F72416C7068613A3A5F5F717565756553657454696D656C6F63 PUSH1 0x0 DUP4 ADD MSTORE PUSH32 0x6B50656E64696E6741646D696E3A2073656E646572206D75737420626520676F PUSH1 0x20 DUP4 ADD MSTORE PUSH32 0x7620677561726469616E00000000000000000000000000000000000000000000 PUSH1 0x40 DUP4 ADD MSTORE PUSH1 0x60 DUP3 ADD SWAP1 POP SWAP2 SWAP1 POP JUMP JUMPDEST PUSH1 0x0 PUSH2 0x3E0A PUSH1 0x28 DUP4 PUSH2 0x4E32 JUMP JUMPDEST SWAP2 POP PUSH32 0x476F7665726E6F72416C7068613A3A70726F706F73653A20746F6F206D616E79 PUSH1 0x0 DUP4 ADD MSTORE PUSH32 0x20616374696F6E73000000000000000000000000000000000000000000000000 PUSH1 0x20 DUP4 ADD MSTORE PUSH1 0x40 DUP3 ADD SWAP1 POP SWAP2 SWAP1 POP JUMP JUMPDEST PUSH1 0x0 PUSH2 0x3E70 PUSH1 0x11 DUP4 PUSH2 0x4E32 JUMP JUMPDEST SWAP2 POP PUSH32 0x6164646974696F6E206F766572666C6F77000000000000000000000000000000 PUSH1 0x0 DUP4 ADD MSTORE PUSH1 0x20 DUP3 ADD SWAP1 POP SWAP2 SWAP1 POP JUMP JUMPDEST PUSH1 0x0 PUSH2 0x3EB0 PUSH1 0x44 DUP4 PUSH2 0x4E32 JUMP JUMPDEST SWAP2 POP PUSH32 0x476F7665726E6F72416C7068613A3A70726F706F73653A2070726F706F73616C PUSH1 0x0 DUP4 ADD MSTORE PUSH32 0x2066756E6374696F6E20696E666F726D6174696F6E206172697479206D69736D PUSH1 0x20 DUP4 ADD MSTORE PUSH32 0x6174636800000000000000000000000000000000000000000000000000000000 PUSH1 0x40 DUP4 ADD MSTORE PUSH1 0x60 DUP3 ADD SWAP1 POP SWAP2 SWAP1 POP JUMP JUMPDEST PUSH1 0x0 PUSH2 0x3F3C PUSH1 0x2F DUP4 PUSH2 0x4E32 JUMP JUMPDEST SWAP2 POP PUSH32 0x476F7665726E6F72416C7068613A3A63616E63656C3A2070726F706F73657220 PUSH1 0x0 DUP4 ADD MSTORE PUSH32 0x61626F7665207468726573686F6C640000000000000000000000000000000000 PUSH1 0x20 DUP4 ADD MSTORE PUSH1 0x40 DUP3 ADD SWAP1 POP SWAP2 SWAP1 POP JUMP JUMPDEST PUSH1 0x0 PUSH2 0x3FA2 PUSH1 0x44 DUP4 PUSH2 0x4E32 JUMP JUMPDEST SWAP2 POP PUSH32 0x476F7665726E6F72416C7068613A3A5F71756575654F725265766572743A2070 PUSH1 0x0 DUP4 ADD MSTORE PUSH32 0x726F706F73616C20616374696F6E20616C726561647920717565756564206174 PUSH1 0x20 DUP4 ADD MSTORE PUSH32 0x2065746100000000000000000000000000000000000000000000000000000000 PUSH1 0x40 DUP4 ADD MSTORE PUSH1 0x60 DUP3 ADD SWAP1 POP SWAP2 SWAP1 POP JUMP JUMPDEST PUSH1 0x0 PUSH2 0x402E PUSH1 0x2C DUP4 PUSH2 0x4E32 JUMP JUMPDEST SWAP2 POP PUSH32 0x476F7665726E6F72416C7068613A3A70726F706F73653A206D7573742070726F PUSH1 0x0 DUP4 ADD MSTORE PUSH32 0x7669646520616374696F6E730000000000000000000000000000000000000000 PUSH1 0x20 DUP4 ADD MSTORE PUSH1 0x40 DUP3 ADD SWAP1 POP SWAP2 SWAP1 POP JUMP JUMPDEST PUSH1 0x0 PUSH2 0x4094 PUSH1 0x3F DUP4 PUSH2 0x4E32 JUMP JUMPDEST SWAP2 POP PUSH32 0x476F7665726E6F72416C7068613A3A70726F706F73653A2070726F706F736572 PUSH1 0x0 DUP4 ADD MSTORE PUSH32 0x20766F7465732062656C6F772070726F706F73616C207468726573686F6C6400 PUSH1 0x20 DUP4 ADD MSTORE PUSH1 0x40 DUP3 ADD SWAP1 POP SWAP2 SWAP1 POP JUMP JUMPDEST PUSH1 0x0 PUSH2 0x40FA PUSH1 0x2F DUP4 PUSH2 0x4E32 JUMP JUMPDEST SWAP2 POP PUSH32 0x476F7665726E6F72416C7068613A3A63617374566F746542795369673A20696E PUSH1 0x0 DUP4 ADD MSTORE PUSH32 0x76616C6964207369676E61747572650000000000000000000000000000000000 PUSH1 0x20 DUP4 ADD MSTORE PUSH1 0x40 DUP3 ADD SWAP1 POP SWAP2 SWAP1 POP JUMP JUMPDEST PUSH1 0x0 PUSH2 0x4160 PUSH1 0x58 DUP4 PUSH2 0x4E32 JUMP JUMPDEST SWAP2 POP PUSH32 0x476F7665726E6F72416C7068613A3A70726F706F73653A206F6E65206C697665 PUSH1 0x0 DUP4 ADD MSTORE PUSH32 0x2070726F706F73616C207065722070726F706F7365722C20666F756E6420616E PUSH1 0x20 DUP4 ADD MSTORE PUSH32 0x20616C7265616479206163746976652070726F706F73616C0000000000000000 PUSH1 0x40 DUP4 ADD MSTORE PUSH1 0x60 DUP3 ADD SWAP1 POP SWAP2 SWAP1 POP JUMP JUMPDEST PUSH1 0x0 PUSH2 0x41EC PUSH1 0x36 DUP4 PUSH2 0x4E32 JUMP JUMPDEST SWAP2 POP PUSH32 0x476F7665726E6F72416C7068613A3A63616E63656C3A2063616E6E6F74206361 PUSH1 0x0 DUP4 ADD MSTORE PUSH32 0x6E63656C2065786563757465642070726F706F73616C00000000000000000000 PUSH1 0x20 DUP4 ADD MSTORE PUSH1 0x40 DUP3 ADD SWAP1 POP SWAP2 SWAP1 POP JUMP JUMPDEST PUSH1 0x0 PUSH2 0x4252 PUSH1 0x2A DUP4 PUSH2 0x4E32 JUMP JUMPDEST SWAP2 POP PUSH32 0x476F7665726E6F72416C7068613A3A5F63617374566F74653A20766F74696E67 PUSH1 0x0 DUP4 ADD MSTORE PUSH32 0x20697320636C6F73656400000000000000000000000000000000000000000000 PUSH1 0x20 DUP4 ADD MSTORE PUSH1 0x40 DUP3 ADD SWAP1 POP SWAP2 SWAP1 POP JUMP JUMPDEST PUSH1 0x0 PUSH2 0x42B8 PUSH1 0x15 DUP4 PUSH2 0x4E32 JUMP JUMPDEST SWAP2 POP PUSH32 0x7375627472616374696F6E20756E646572666C6F770000000000000000000000 PUSH1 0x0 DUP4 ADD MSTORE PUSH1 0x20 DUP3 ADD SWAP1 POP SWAP2 SWAP1 POP JUMP JUMPDEST PUSH1 0x0 PUSH2 0x42F8 PUSH1 0x36 DUP4 PUSH2 0x4E32 JUMP JUMPDEST SWAP2 POP PUSH32 0x476F7665726E6F72416C7068613A3A5F5F61626469636174653A2073656E6465 PUSH1 0x0 DUP4 ADD MSTORE PUSH32 0x72206D75737420626520676F7620677561726469616E00000000000000000000 PUSH1 0x20 DUP4 ADD MSTORE PUSH1 0x40 DUP3 ADD SWAP1 POP SWAP2 SWAP1 POP JUMP JUMPDEST PUSH1 0x60 DUP3 ADD PUSH1 0x0 DUP3 ADD MLOAD PUSH2 0x4367 PUSH1 0x0 DUP6 ADD DUP3 PUSH2 0x370D JUMP JUMPDEST POP PUSH1 0x20 DUP3 ADD MLOAD PUSH2 0x437A PUSH1 0x20 DUP6 ADD DUP3 PUSH2 0x370D JUMP JUMPDEST POP PUSH1 0x40 DUP3 ADD MLOAD PUSH2 0x438D PUSH1 0x40 DUP6 ADD DUP3 PUSH2 0x4393 JUMP JUMPDEST POP POP POP POP JUMP JUMPDEST PUSH2 0x439C DUP2 PUSH2 0x4EA9 JUMP JUMPDEST DUP3 MSTORE POP POP JUMP JUMPDEST PUSH2 0x43AB DUP2 PUSH2 0x4EA9 JUMP JUMPDEST DUP3 MSTORE POP POP JUMP JUMPDEST PUSH2 0x43BA DUP2 PUSH2 0x4EB3 JUMP JUMPDEST DUP3 MSTORE POP POP JUMP JUMPDEST PUSH1 0x0 PUSH2 0x43CB DUP3 PUSH2 0x3B0D JUMP JUMPDEST SWAP2 POP PUSH2 0x43D7 DUP3 DUP6 PUSH2 0x373A JUMP JUMPDEST PUSH1 0x20 DUP3 ADD SWAP2 POP PUSH2 0x43E7 DUP3 DUP5 PUSH2 0x373A JUMP JUMPDEST PUSH1 0x20 DUP3 ADD SWAP2 POP DUP2 SWAP1 POP SWAP4 SWAP3 POP POP POP JUMP JUMPDEST PUSH1 0x0 PUSH1 0x20 DUP3 ADD SWAP1 POP PUSH2 0x440C PUSH1 0x0 DUP4 ADD DUP5 PUSH2 0x3558 JUMP JUMPDEST SWAP3 SWAP2 POP POP JUMP JUMPDEST PUSH1 0x0 PUSH1 0x40 DUP3 ADD SWAP1 POP PUSH2 0x4427 PUSH1 0x0 DUP4 ADD DUP6 PUSH2 0x353A JUMP JUMPDEST PUSH2 0x4434 PUSH1 0x20 DUP4 ADD DUP5 PUSH2 0x43A2 JUMP JUMPDEST SWAP4 SWAP3 POP POP POP JUMP JUMPDEST PUSH1 0x0 PUSH1 0xA0 DUP3 ADD SWAP1 POP PUSH2 0x4450 PUSH1 0x0 DUP4 ADD DUP8 PUSH2 0x3558 JUMP JUMPDEST PUSH2 0x445D PUSH1 0x20 DUP4 ADD DUP7 PUSH2 0x387F JUMP JUMPDEST DUP2 DUP2 SUB PUSH1 0x40 DUP4 ADD MSTORE PUSH2 0x446E DUP2 PUSH2 0x3BD9 JUMP JUMPDEST SWAP1 POP DUP2 DUP2 SUB PUSH1 0x60 DUP4 ADD MSTORE PUSH2 0x4482 DUP2 DUP6 PUSH2 0x378A JUMP JUMPDEST SWAP1 POP PUSH2 0x4491 PUSH1 0x80 DUP4 ADD DUP5 PUSH2 0x43A2 JUMP JUMPDEST SWAP6 SWAP5 POP POP POP POP POP JUMP JUMPDEST PUSH1 0x0 PUSH1 0x40 DUP3 ADD SWAP1 POP PUSH2 0x44AF PUSH1 0x0 DUP4 ADD DUP6 PUSH2 0x3558 JUMP JUMPDEST PUSH2 0x44BC PUSH1 0x20 DUP4 ADD DUP5 PUSH2 0x43A2 JUMP JUMPDEST SWAP4 SWAP3 POP POP POP JUMP JUMPDEST PUSH1 0x0 PUSH1 0x80 DUP3 ADD SWAP1 POP PUSH2 0x44D8 PUSH1 0x0 DUP4 ADD DUP8 PUSH2 0x3558 JUMP JUMPDEST PUSH2 0x44E5 PUSH1 0x20 DUP4 ADD DUP7 PUSH2 0x43A2 JUMP JUMPDEST PUSH2 0x44F2 PUSH1 0x40 DUP4 ADD DUP6 PUSH2 0x371C JUMP JUMPDEST PUSH2 0x44FF PUSH1 0x60 DUP4 ADD DUP5 PUSH2 0x43A2 JUMP JUMPDEST SWAP6 SWAP5 POP POP POP POP POP JUMP JUMPDEST PUSH1 0x0 PUSH1 0xA0 DUP3 ADD SWAP1 POP PUSH2 0x451D PUSH1 0x0 DUP4 ADD DUP9 PUSH2 0x3558 JUMP JUMPDEST PUSH2 0x452A PUSH1 0x20 DUP4 ADD DUP8 PUSH2 0x43A2 JUMP JUMPDEST DUP2 DUP2 SUB PUSH1 0x40 DUP4 ADD MSTORE PUSH2 0x453C DUP2 DUP7 PUSH2 0x38C7 JUMP JUMPDEST SWAP1 POP DUP2 DUP2 SUB PUSH1 0x60 DUP4 ADD MSTORE PUSH2 0x4550 DUP2 DUP6 PUSH2 0x378A JUMP JUMPDEST SWAP1 POP PUSH2 0x455F PUSH1 0x80 DUP4 ADD DUP5 PUSH2 0x43A2 JUMP JUMPDEST SWAP7 SWAP6 POP POP POP POP POP POP JUMP JUMPDEST PUSH1 0x0 PUSH1 0xA0 DUP3 ADD SWAP1 POP PUSH2 0x457E PUSH1 0x0 DUP4 ADD DUP9 PUSH2 0x3558 JUMP JUMPDEST PUSH2 0x458B PUSH1 0x20 DUP4 ADD DUP8 PUSH2 0x43A2 JUMP JUMPDEST DUP2 DUP2 SUB PUSH1 0x40 DUP4 ADD MSTORE PUSH2 0x459D DUP2 DUP7 PUSH2 0x3900 JUMP JUMPDEST SWAP1 POP DUP2 DUP2 SUB PUSH1 0x60 DUP4 ADD MSTORE PUSH2 0x45B1 DUP2 DUP6 PUSH2 0x37C3 JUMP JUMPDEST SWAP1 POP PUSH2 0x45C0 PUSH1 0x80 DUP4 ADD DUP5 PUSH2 0x43A2 JUMP JUMPDEST SWAP7 SWAP6 POP POP POP POP POP POP JUMP JUMPDEST PUSH1 0x0 PUSH1 0x80 DUP3 ADD SWAP1 POP DUP2 DUP2 SUB PUSH1 0x0 DUP4 ADD MSTORE PUSH2 0x45E4 DUP2 DUP8 PUSH2 0x3567 JUMP JUMPDEST SWAP1 POP DUP2 DUP2 SUB PUSH1 0x20 DUP4 ADD MSTORE PUSH2 0x45F8 DUP2 DUP7 PUSH2 0x36AF JUMP JUMPDEST SWAP1 POP DUP2 DUP2 SUB PUSH1 0x40 DUP4 ADD MSTORE PUSH2 0x460C DUP2 DUP6 PUSH2 0x363A JUMP JUMPDEST SWAP1 POP DUP2 DUP2 SUB PUSH1 0x60 DUP4 ADD MSTORE PUSH2 0x4620 DUP2 DUP5 PUSH2 0x35C5 JUMP JUMPDEST SWAP1 POP SWAP6 SWAP5 POP POP POP POP POP JUMP JUMPDEST PUSH1 0x0 PUSH1 0x20 DUP3 ADD SWAP1 POP PUSH2 0x4640 PUSH1 0x0 DUP4 ADD DUP5 PUSH2 0x372B JUMP JUMPDEST SWAP3 SWAP2 POP POP JUMP JUMPDEST PUSH1 0x0 PUSH1 0x80 DUP3 ADD SWAP1 POP PUSH2 0x465B PUSH1 0x0 DUP4 ADD DUP8 PUSH2 0x372B JUMP JUMPDEST PUSH2 0x4668 PUSH1 0x20 DUP4 ADD DUP7 PUSH2 0x372B JUMP JUMPDEST PUSH2 0x4675 PUSH1 0x40 DUP4 ADD DUP6 PUSH2 0x43A2 JUMP JUMPDEST PUSH2 0x4682 PUSH1 0x60 DUP4 ADD DUP5 PUSH2 0x3558 JUMP JUMPDEST SWAP6 SWAP5 POP POP POP POP POP JUMP JUMPDEST PUSH1 0x0 PUSH1 0x60 DUP3 ADD SWAP1 POP PUSH2 0x46A0 PUSH1 0x0 DUP4 ADD DUP7 PUSH2 0x372B JUMP JUMPDEST PUSH2 0x46AD PUSH1 0x20 DUP4 ADD DUP6 PUSH2 0x43A2 JUMP JUMPDEST PUSH2 0x46BA PUSH1 0x40 DUP4 ADD DUP5 PUSH2 0x371C JUMP JUMPDEST SWAP5 SWAP4 POP POP POP POP JUMP JUMPDEST PUSH1 0x0 PUSH1 0x80 DUP3 ADD SWAP1 POP PUSH2 0x46D7 PUSH1 0x0 DUP4 ADD DUP8 PUSH2 0x372B JUMP JUMPDEST PUSH2 0x46E4 PUSH1 0x20 DUP4 ADD DUP7 PUSH2 0x43B1 JUMP JUMPDEST PUSH2 0x46F1 PUSH1 0x40 DUP4 ADD DUP6 PUSH2 0x372B JUMP JUMPDEST PUSH2 0x46FE PUSH1 0x60 DUP4 ADD DUP5 PUSH2 0x372B JUMP JUMPDEST SWAP6 SWAP5 POP POP POP POP POP JUMP JUMPDEST PUSH1 0x0 PUSH1 0x20 DUP3 ADD SWAP1 POP PUSH2 0x471C PUSH1 0x0 DUP4 ADD DUP5 PUSH2 0x3852 JUMP JUMPDEST SWAP3 SWAP2 POP POP JUMP JUMPDEST PUSH1 0x0 PUSH1 0x20 DUP3 ADD SWAP1 POP PUSH2 0x4737 PUSH1 0x0 DUP4 ADD DUP5 PUSH2 0x3861 JUMP JUMPDEST SWAP3 SWAP2 POP POP JUMP JUMPDEST PUSH1 0x0 PUSH1 0x20 DUP3 ADD SWAP1 POP PUSH2 0x4752 PUSH1 0x0 DUP4 ADD DUP5 PUSH2 0x3870 JUMP JUMPDEST SWAP3 SWAP2 POP POP JUMP JUMPDEST PUSH1 0x0 PUSH1 0x20 DUP3 ADD SWAP1 POP DUP2 DUP2 SUB PUSH1 0x0 DUP4 ADD MSTORE PUSH2 0x4772 DUP2 DUP5 PUSH2 0x38C7 JUMP JUMPDEST SWAP1 POP SWAP3 SWAP2 POP POP JUMP JUMPDEST PUSH1 0x0 PUSH1 0x20 DUP3 ADD SWAP1 POP DUP2 DUP2 SUB PUSH1 0x0 DUP4 ADD MSTORE PUSH2 0x4793 DUP2 PUSH2 0x398F JUMP JUMPDEST SWAP1 POP SWAP2 SWAP1 POP JUMP JUMPDEST PUSH1 0x0 PUSH1 0x20 DUP3 ADD SWAP1 POP DUP2 DUP2 SUB PUSH1 0x0 DUP4 ADD MSTORE PUSH2 0x47B3 DUP2 PUSH2 0x39F5 JUMP JUMPDEST SWAP1 POP SWAP2 SWAP1 POP JUMP JUMPDEST PUSH1 0x0 PUSH1 0x20 DUP3 ADD SWAP1 POP DUP2 DUP2 SUB PUSH1 0x0 DUP4 ADD MSTORE PUSH2 0x47D3 DUP2 PUSH2 0x3A81 JUMP JUMPDEST SWAP1 POP SWAP2 SWAP1 POP JUMP JUMPDEST PUSH1 0x0 PUSH1 0x20 DUP3 ADD SWAP1 POP DUP2 DUP2 SUB PUSH1 0x0 DUP4 ADD MSTORE PUSH2 0x47F3 DUP2 PUSH2 0x3B4D JUMP JUMPDEST SWAP1 POP SWAP2 SWAP1 POP JUMP JUMPDEST PUSH1 0x0 PUSH1 0x20 DUP3 ADD SWAP1 POP DUP2 DUP2 SUB PUSH1 0x0 DUP4 ADD MSTORE PUSH2 0x4813 DUP2 PUSH2 0x3C19 JUMP JUMPDEST SWAP1 POP SWAP2 SWAP1 POP JUMP JUMPDEST PUSH1 0x0 PUSH1 0x20 DUP3 ADD SWAP1 POP DUP2 DUP2 SUB PUSH1 0x0 DUP4 ADD MSTORE PUSH2 0x4833 DUP2 PUSH2 0x3C7F JUMP JUMPDEST SWAP1 POP SWAP2 SWAP1 POP JUMP JUMPDEST PUSH1 0x0 PUSH1 0x20 DUP3 ADD SWAP1 POP DUP2 DUP2 SUB PUSH1 0x0 DUP4 ADD MSTORE PUSH2 0x4853 DUP2 PUSH2 0x3CE5 JUMP JUMPDEST SWAP1 POP SWAP2 SWAP1 POP JUMP JUMPDEST PUSH1 0x0 PUSH1 0x20 DUP3 ADD SWAP1 POP DUP2 DUP2 SUB PUSH1 0x0 DUP4 ADD MSTORE PUSH2 0x4873 DUP2 PUSH2 0x3D71 JUMP JUMPDEST SWAP1 POP SWAP2 SWAP1 POP JUMP JUMPDEST PUSH1 0x0 PUSH1 0x20 DUP3 ADD SWAP1 POP DUP2 DUP2 SUB PUSH1 0x0 DUP4 ADD MSTORE PUSH2 0x4893 DUP2 PUSH2 0x3DFD JUMP JUMPDEST SWAP1 POP SWAP2 SWAP1 POP JUMP JUMPDEST PUSH1 0x0 PUSH1 0x20 DUP3 ADD SWAP1 POP DUP2 DUP2 SUB PUSH1 0x0 DUP4 ADD MSTORE PUSH2 0x48B3 DUP2 PUSH2 0x3E63 JUMP JUMPDEST SWAP1 POP SWAP2 SWAP1 POP JUMP JUMPDEST PUSH1 0x0 PUSH1 0x20 DUP3 ADD SWAP1 POP DUP2 DUP2 SUB PUSH1 0x0 DUP4 ADD MSTORE PUSH2 0x48D3 DUP2 PUSH2 0x3EA3 JUMP JUMPDEST SWAP1 POP SWAP2 SWAP1 POP JUMP JUMPDEST PUSH1 0x0 PUSH1 0x20 DUP3 ADD SWAP1 POP DUP2 DUP2 SUB PUSH1 0x0 DUP4 ADD MSTORE PUSH2 0x48F3 DUP2 PUSH2 0x3F2F JUMP JUMPDEST SWAP1 POP SWAP2 SWAP1 POP JUMP JUMPDEST PUSH1 0x0 PUSH1 0x20 DUP3 ADD SWAP1 POP DUP2 DUP2 SUB PUSH1 0x0 DUP4 ADD MSTORE PUSH2 0x4913 DUP2 PUSH2 0x3F95 JUMP JUMPDEST SWAP1 POP SWAP2 SWAP1 POP JUMP JUMPDEST PUSH1 0x0 PUSH1 0x20 DUP3 ADD SWAP1 POP DUP2 DUP2 SUB PUSH1 0x0 DUP4 ADD MSTORE PUSH2 0x4933 DUP2 PUSH2 0x4021 JUMP JUMPDEST SWAP1 POP SWAP2 SWAP1 POP JUMP JUMPDEST PUSH1 0x0 PUSH1 0x20 DUP3 ADD SWAP1 POP DUP2 DUP2 SUB PUSH1 0x0 DUP4 ADD MSTORE PUSH2 0x4953 DUP2 PUSH2 0x4087 JUMP JUMPDEST SWAP1 POP SWAP2 SWAP1 POP JUMP JUMPDEST PUSH1 0x0 PUSH1 0x20 DUP3 ADD SWAP1 POP DUP2 DUP2 SUB PUSH1 0x0 DUP4 ADD MSTORE PUSH2 0x4973 DUP2 PUSH2 0x40ED JUMP JUMPDEST SWAP1 POP SWAP2 SWAP1 POP JUMP JUMPDEST PUSH1 0x0 PUSH1 0x20 DUP3 ADD SWAP1 POP DUP2 DUP2 SUB PUSH1 0x0 DUP4 ADD MSTORE PUSH2 0x4993 DUP2 PUSH2 0x4153 JUMP JUMPDEST SWAP1 POP SWAP2 SWAP1 POP JUMP JUMPDEST PUSH1 0x0 PUSH1 0x20 DUP3 ADD SWAP1 POP DUP2 DUP2 SUB PUSH1 0x0 DUP4 ADD MSTORE PUSH2 0x49B3 DUP2 PUSH2 0x41DF JUMP JUMPDEST SWAP1 POP SWAP2 SWAP1 POP JUMP JUMPDEST PUSH1 0x0 PUSH1 0x20 DUP3 ADD SWAP1 POP DUP2 DUP2 SUB PUSH1 0x0 DUP4 ADD MSTORE PUSH2 0x49D3 DUP2 PUSH2 0x4245 JUMP JUMPDEST SWAP1 POP SWAP2 SWAP1 POP JUMP JUMPDEST PUSH1 0x0 PUSH1 0x20 DUP3 ADD SWAP1 POP DUP2 DUP2 SUB PUSH1 0x0 DUP4 ADD MSTORE PUSH2 0x49F3 DUP2 PUSH2 0x42AB JUMP JUMPDEST SWAP1 POP SWAP2 SWAP1 POP JUMP JUMPDEST PUSH1 0x0 PUSH1 0x20 DUP3 ADD SWAP1 POP DUP2 DUP2 SUB PUSH1 0x0 DUP4 ADD MSTORE PUSH2 0x4A13 DUP2 PUSH2 0x42EB JUMP JUMPDEST SWAP1 POP SWAP2 SWAP1 POP JUMP JUMPDEST PUSH1 0x0 PUSH1 0x60 DUP3 ADD SWAP1 POP PUSH2 0x4A2F PUSH1 0x0 DUP4 ADD DUP5 PUSH2 0x4351 JUMP JUMPDEST SWAP3 SWAP2 POP POP JUMP JUMPDEST PUSH1 0x0 PUSH1 0x20 DUP3 ADD SWAP1 POP PUSH2 0x4A4A PUSH1 0x0 DUP4 ADD DUP5 PUSH2 0x43A2 JUMP JUMPDEST SWAP3 SWAP2 POP POP JUMP JUMPDEST PUSH1 0x0 PUSH2 0x120 DUP3 ADD SWAP1 POP PUSH2 0x4A66 PUSH1 0x0 DUP4 ADD DUP13 PUSH2 0x43A2 JUMP JUMPDEST PUSH2 0x4A73 PUSH1 0x20 DUP4 ADD DUP12 PUSH2 0x353A JUMP JUMPDEST DUP2 DUP2 SUB PUSH1 0x40 DUP4 ADD MSTORE PUSH2 0x4A85 DUP2 DUP11 PUSH2 0x3567 JUMP JUMPDEST SWAP1 POP DUP2 DUP2 SUB PUSH1 0x60 DUP4 ADD MSTORE PUSH2 0x4A99 DUP2 DUP10 PUSH2 0x36AF JUMP JUMPDEST SWAP1 POP DUP2 DUP2 SUB PUSH1 0x80 DUP4 ADD MSTORE PUSH2 0x4AAD DUP2 DUP9 PUSH2 0x363A JUMP JUMPDEST SWAP1 POP DUP2 DUP2 SUB PUSH1 0xA0 DUP4 ADD MSTORE PUSH2 0x4AC1 DUP2 DUP8 PUSH2 0x35C5 JUMP JUMPDEST SWAP1 POP PUSH2 0x4AD0 PUSH1 0xC0 DUP4 ADD DUP7 PUSH2 0x43A2 JUMP JUMPDEST PUSH2 0x4ADD PUSH1 0xE0 DUP4 ADD DUP6 PUSH2 0x43A2 JUMP JUMPDEST DUP2 DUP2 SUB PUSH2 0x100 DUP4 ADD MSTORE PUSH2 0x4AF0 DUP2 DUP5 PUSH2 0x38C7 JUMP JUMPDEST SWAP1 POP SWAP11 SWAP10 POP POP POP POP POP POP POP POP POP POP JUMP JUMPDEST PUSH1 0x0 PUSH2 0x120 DUP3 ADD SWAP1 POP PUSH2 0x4B16 PUSH1 0x0 DUP4 ADD DUP13 PUSH2 0x43A2 JUMP JUMPDEST PUSH2 0x4B23 PUSH1 0x20 DUP4 ADD DUP12 PUSH2 0x3558 JUMP JUMPDEST PUSH2 0x4B30 PUSH1 0x40 DUP4 ADD DUP11 PUSH2 0x43A2 JUMP JUMPDEST PUSH2 0x4B3D PUSH1 0x60 DUP4 ADD DUP10 PUSH2 0x43A2 JUMP JUMPDEST PUSH2 0x4B4A PUSH1 0x80 DUP4 ADD DUP9 PUSH2 0x43A2 JUMP JUMPDEST PUSH2 0x4B57 PUSH1 0xA0 DUP4 ADD DUP8 PUSH2 0x43A2 JUMP JUMPDEST PUSH2 0x4B64 PUSH1 0xC0 DUP4 ADD DUP7 PUSH2 0x43A2 JUMP JUMPDEST PUSH2 0x4B71 PUSH1 0xE0 DUP4 ADD DUP6 PUSH2 0x371C JUMP JUMPDEST PUSH2 0x4B7F PUSH2 0x100 DUP4 ADD DUP5 PUSH2 0x371C JUMP JUMPDEST SWAP11 SWAP10 POP POP POP POP POP POP POP POP POP POP JUMP JUMPDEST PUSH1 0x0 PUSH1 0x40 DUP3 ADD SWAP1 POP PUSH2 0x4BA2 PUSH1 0x0 DUP4 ADD DUP6 PUSH2 0x43A2 JUMP JUMPDEST PUSH2 0x4BAF PUSH1 0x20 DUP4 ADD DUP5 PUSH2 0x43A2 JUMP JUMPDEST SWAP4 SWAP3 POP POP POP JUMP JUMPDEST PUSH1 0x0 PUSH1 0x40 MLOAD SWAP1 POP DUP2 DUP2 ADD DUP2 DUP2 LT PUSH8 0xFFFFFFFFFFFFFFFF DUP3 GT OR ISZERO PUSH2 0x4BD9 JUMPI PUSH1 0x0 DUP1 REVERT JUMPDEST DUP1 PUSH1 0x40 MSTORE POP SWAP2 SWAP1 POP JUMP JUMPDEST PUSH1 0x0 PUSH8 0xFFFFFFFFFFFFFFFF DUP3 GT ISZERO PUSH2 0x4BFA JUMPI PUSH1 0x0 DUP1 REVERT JUMPDEST PUSH1 0x20 DUP3 MUL SWAP1 POP PUSH1 0x20 DUP2 ADD SWAP1 POP SWAP2 SWAP1 POP JUMP JUMPDEST PUSH1 0x0 PUSH8 0xFFFFFFFFFFFFFFFF DUP3 GT ISZERO PUSH2 0x4C22 JUMPI PUSH1 0x0 DUP1 REVERT JUMPDEST PUSH1 0x20 DUP3 MUL SWAP1 POP PUSH1 0x20 DUP2 ADD SWAP1 POP SWAP2 SWAP1 POP JUMP JUMPDEST PUSH1 0x0 PUSH8 0xFFFFFFFFFFFFFFFF DUP3 GT ISZERO PUSH2 0x4C4A JUMPI PUSH1 0x0 DUP1 REVERT JUMPDEST PUSH1 0x20 DUP3 MUL SWAP1 POP PUSH1 0x20 DUP2 ADD SWAP1 POP SWAP2 SWAP1 POP JUMP JUMPDEST PUSH1 0x0 PUSH8 0xFFFFFFFFFFFFFFFF DUP3 GT ISZERO PUSH2 0x4C72 JUMPI PUSH1 0x0 DUP1 REVERT JUMPDEST PUSH1 0x20 DUP3 MUL SWAP1 POP PUSH1 0x20 DUP2 ADD SWAP1 POP SWAP2 SWAP1 POP JUMP JUMPDEST PUSH1 0x0 PUSH8 0xFFFFFFFFFFFFFFFF DUP3 GT ISZERO PUSH2 0x4C9A JUMPI PUSH1 0x0 DUP1 REVERT JUMPDEST PUSH1 0x1F NOT PUSH1 0x1F DUP4 ADD AND SWAP1 POP PUSH1 0x20 DUP2 ADD SWAP1 POP SWAP2 SWAP1 POP JUMP JUMPDEST PUSH1 0x0 PUSH8 0xFFFFFFFFFFFFFFFF DUP3 GT ISZERO PUSH2 0x4CC6 JUMPI PUSH1 0x0 DUP1 REVERT JUMPDEST PUSH1 0x1F NOT PUSH1 0x1F DUP4 ADD AND SWAP1 POP PUSH1 0x20 DUP2 ADD SWAP1 POP SWAP2 SWAP1 POP JUMP JUMPDEST PUSH1 0x0 DUP2 SWAP1 POP PUSH1 0x20 DUP3 ADD SWAP1 POP SWAP2 SWAP1 POP JUMP JUMPDEST PUSH1 0x0 DUP2 SWAP1 POP PUSH1 0x20 DUP3 ADD SWAP1 POP SWAP2 SWAP1 POP JUMP JUMPDEST PUSH1 0x0 DUP2 SWAP1 POP PUSH1 0x20 DUP3 ADD SWAP1 POP SWAP2 SWAP1 POP JUMP JUMPDEST PUSH1 0x0 DUP2 SWAP1 POP PUSH1 0x20 DUP3 ADD SWAP1 POP SWAP2 SWAP1 POP JUMP JUMPDEST PUSH1 0x0 DUP2 SWAP1 POP DUP2 PUSH1 0x0 MSTORE PUSH1 0x20 PUSH1 0x0 KECCAK256 SWAP1 POP SWAP2 SWAP1 POP JUMP JUMPDEST PUSH1 0x0 DUP2 SWAP1 POP DUP2 PUSH1 0x0 MSTORE PUSH1 0x20 PUSH1 0x0 KECCAK256 SWAP1 POP SWAP2 SWAP1 POP JUMP JUMPDEST PUSH1 0x0 DUP2 MLOAD SWAP1 POP SWAP2 SWAP1 POP JUMP JUMPDEST PUSH1 0x0 DUP2 MLOAD SWAP1 POP SWAP2 SWAP1 POP JUMP JUMPDEST PUSH1 0x0 DUP2 MLOAD SWAP1 POP SWAP2 SWAP1 POP JUMP JUMPDEST PUSH1 0x0 DUP2 MLOAD SWAP1 POP SWAP2 SWAP1 POP JUMP JUMPDEST PUSH1 0x0 DUP2 MLOAD SWAP1 POP SWAP2 SWAP1 POP JUMP JUMPDEST PUSH1 0x0 DUP2 MLOAD SWAP1 POP SWAP2 SWAP1 POP JUMP JUMPDEST PUSH1 0x0 PUSH1 0x20 DUP3 ADD SWAP1 POP SWAP2 SWAP1 POP JUMP JUMPDEST PUSH1 0x0 PUSH1 0x20 DUP3 ADD SWAP1 POP SWAP2 SWAP1 POP JUMP JUMPDEST PUSH1 0x0 PUSH1 0x20 DUP3 ADD SWAP1 POP SWAP2 SWAP1 POP JUMP JUMPDEST PUSH1 0x0 PUSH1 0x20 DUP3 ADD SWAP1 POP SWAP2 SWAP1 POP JUMP JUMPDEST PUSH1 0x0 DUP3 DUP3 MSTORE PUSH1 0x20 DUP3 ADD SWAP1 POP SWAP3 SWAP2 POP POP JUMP JUMPDEST PUSH1 0x0 DUP3 DUP3 MSTORE PUSH1 0x20 DUP3 ADD SWAP1 POP SWAP3 SWAP2 POP POP JUMP JUMPDEST PUSH1 0x0 DUP3 DUP3 MSTORE PUSH1 0x20 DUP3 ADD SWAP1 POP SWAP3 SWAP2 POP POP JUMP JUMPDEST PUSH1 0x0 DUP3 DUP3 MSTORE PUSH1 0x20 DUP3 ADD SWAP1 POP SWAP3 SWAP2 POP POP JUMP JUMPDEST PUSH1 0x0 DUP3 DUP3 MSTORE PUSH1 0x20 DUP3 ADD SWAP1 POP SWAP3 SWAP2 POP POP JUMP JUMPDEST PUSH1 0x0 DUP3 DUP3 MSTORE PUSH1 0x20 DUP3 ADD SWAP1 POP SWAP3 SWAP2 POP POP JUMP JUMPDEST PUSH1 0x0 DUP3 DUP3 MSTORE PUSH1 0x20 DUP3 ADD SWAP1 POP SWAP3 SWAP2 POP POP JUMP JUMPDEST PUSH1 0x0 DUP3 DUP3 MSTORE PUSH1 0x20 DUP3 ADD SWAP1 POP SWAP3 SWAP2 POP POP JUMP JUMPDEST PUSH1 0x0 DUP2 SWAP1 POP SWAP3 SWAP2 POP POP JUMP JUMPDEST PUSH1 0x0 PUSH2 0x4E59 DUP3 PUSH2 0x4E89 JUMP JUMPDEST SWAP1 POP SWAP2 SWAP1 POP JUMP JUMPDEST PUSH1 0x0 DUP2 ISZERO ISZERO SWAP1 POP SWAP2 SWAP1 POP JUMP JUMPDEST PUSH1 0x0 DUP2 SWAP1 POP SWAP2 SWAP1 POP JUMP JUMPDEST PUSH1 0x0 DUP2 SWAP1 POP PUSH2 0x4E84 DUP3 PUSH2 0x4FBF JUMP JUMPDEST SWAP2 SWAP1 POP JUMP JUMPDEST PUSH1 0x0 PUSH20 0xFFFFFFFFFFFFFFFFFFFFFFFFFFFFFFFFFFFFFFFF DUP3 AND SWAP1 POP SWAP2 SWAP1 POP JUMP JUMPDEST PUSH1 0x0 DUP2 SWAP1 POP SWAP2 SWAP1 POP JUMP JUMPDEST PUSH1 0x0 PUSH1 0xFF DUP3 AND SWAP1 POP SWAP2 SWAP1 POP JUMP JUMPDEST PUSH1 0x0 PUSH2 0x4ECB DUP3 PUSH2 0x4F3E JUMP JUMPDEST SWAP1 POP SWAP2 SWAP1 POP JUMP JUMPDEST PUSH1 0x0 PUSH2 0x4EDD DUP3 PUSH2 0x4EE4 JUMP JUMPDEST SWAP1 POP SWAP2 SWAP1 POP JUMP JUMPDEST PUSH1 0x0 PUSH2 0x4EEF DUP3 PUSH2 0x4E89 JUMP JUMPDEST SWAP1 POP SWAP2 SWAP1 POP JUMP JUMPDEST PUSH1 0x0 PUSH2 0x4F01 DUP3 PUSH2 0x4F08 JUMP JUMPDEST SWAP1 POP SWAP2 SWAP1 POP JUMP JUMPDEST PUSH1 0x0 PUSH2 0x4F13 DUP3 PUSH2 0x4E89 JUMP JUMPDEST SWAP1 POP SWAP2 SWAP1 POP JUMP JUMPDEST PUSH1 0x0 PUSH2 0x4F25 DUP3 PUSH2 0x4E76 JUMP JUMPDEST SWAP1 POP SWAP2 SWAP1 POP JUMP JUMPDEST PUSH1 0x0 PUSH2 0x4F37 DUP3 PUSH2 0x4EA9 JUMP JUMPDEST SWAP1 POP SWAP2 SWAP1 POP JUMP JUMPDEST PUSH1 0x0 PUSH2 0x4F49 DUP3 PUSH2 0x4F50 JUMP JUMPDEST SWAP1 POP SWAP2 SWAP1 POP JUMP JUMPDEST PUSH1 0x0 PUSH2 0x4F5B DUP3 PUSH2 0x4E89 JUMP JUMPDEST SWAP1 POP SWAP2 SWAP1 POP JUMP JUMPDEST DUP3 DUP2 DUP4 CALLDATACOPY PUSH1 0x0 DUP4 DUP4 ADD MSTORE POP POP POP JUMP JUMPDEST PUSH1 0x0 JUMPDEST DUP4 DUP2 LT ISZERO PUSH2 0x4F8F JUMPI DUP1 DUP3 ADD MLOAD DUP2 DUP5 ADD MSTORE PUSH1 0x20 DUP2 ADD SWAP1 POP PUSH2 0x4F74 JUMP JUMPDEST DUP4 DUP2 GT ISZERO PUSH2 0x4F9E JUMPI PUSH1 0x0 DUP5 DUP5 ADD MSTORE JUMPDEST POP POP POP POP JUMP JUMPDEST PUSH1 0x0 DUP2 SWAP1 POP SWAP2 SWAP1 POP JUMP JUMPDEST PUSH1 0x0 PUSH1 0x1F NOT PUSH1 0x1F DUP4 ADD AND SWAP1 POP SWAP2 SWAP1 POP JUMP JUMPDEST PUSH1 0x8 DUP2 LT PUSH2 0x4FC9 JUMPI INVALID JUMPDEST POP JUMP JUMPDEST PUSH2 0x4FD5 DUP2 PUSH2 0x4E4E JUMP JUMPDEST DUP2 EQ PUSH2 0x4FE0 JUMPI PUSH1 0x0 DUP1 REVERT JUMPDEST POP JUMP JUMPDEST PUSH2 0x4FEC DUP2 PUSH2 0x4E60 JUMP JUMPDEST DUP2 EQ PUSH2 0x4FF7 JUMPI PUSH1 0x0 DUP1 REVERT JUMPDEST POP JUMP JUMPDEST PUSH2 0x5003 DUP2 PUSH2 0x4E6C JUMP JUMPDEST DUP2 EQ PUSH2 0x500E JUMPI PUSH1 0x0 DUP1 REVERT JUMPDEST POP JUMP JUMPDEST PUSH2 0x501A DUP2 PUSH2 0x4EA9 JUMP JUMPDEST DUP2 EQ PUSH2 0x5025 JUMPI PUSH1 0x0 DUP1 REVERT JUMPDEST POP JUMP JUMPDEST PUSH2 0x5031 DUP2 PUSH2 0x4EB3 JUMP JUMPDEST DUP2 EQ PUSH2 0x503C JUMPI PUSH1 0x0 DUP1 REVERT JUMPDEST POP JUMP INVALID LOG2 PUSH5 0x6970667358 0x22 SLT KECCAK256 DUP8 0x2B SIGNEXTEND 0x2D 0xDB SWAP15 0xA7 SWAP13 0xAF SELFDESTRUCT 0xC6 0x26 0x2D 0xB8 0xC8 PUSH11 0x631735DADF05669C6EFA17 0xB1 0x1E MLOAD 0x4D 0x29 PUSH5 0x736F6C6343 STOP MOD 0xC STOP CALLER "
		},
		"gasEstimates": {
			"creation": {
				"codeDepositCost": "4119400",
				"executionCost": "infinite",
				"totalCost": "infinite"
			},
			"external": {
				"BALLOT_TYPEHASH()": "395",
				"DOMAIN_TYPEHASH()": "375",
				"__abdicate()": "21971",
				"__acceptAdmin()": "infinite",
				"__executeSetTimelockPendingAdmin(address,uint256)": "infinite",
				"__queueSetTimelockPendingAdmin(address,uint256)": "infinite",
				"cancel(uint256)": "infinite",
				"castVote(uint256,bool)": "infinite",
				"castVoteBySig(uint256,bool,uint8,bytes32,bytes32)": "infinite",
				"execute(uint256)": "infinite",
				"getActions(uint256)": "infinite",
				"getReceipt(uint256,address)": "infinite",
				"guardian()": "1260",
				"latestProposalIds(address)": "1648",
				"name()": "infinite",
				"proposalCount()": "1196",
				"proposalMaxOperations()": "382",
				"proposalThreshold()": "infinite",
				"proposals(uint256)": "infinite",
				"propose(address[],uint256[],string[],bytes[],string)": "infinite",
				"queue(uint256)": "infinite",
				"quorumVotes()": "infinite",
				"state(uint256)": "infinite",
				"sushi()": "1347",
				"timelock()": "1299",
				"votingDelay()": "404",
				"votingPeriod()": "383"
			},
			"internal": {
				"_castVote(address,uint256,bool)": "infinite",
				"_queueOrRevert(address,uint256,string memory,bytes memory,uint256)": "infinite",
				"add256(uint256,uint256)": "infinite",
				"getChainId()": "35",
				"sub256(uint256,uint256)": "infinite"
			}
		},
		"methodIdentifiers": {
			"BALLOT_TYPEHASH()": "deaaa7cc",
			"DOMAIN_TYPEHASH()": "20606b70",
			"__abdicate()": "760fbc13",
			"__acceptAdmin()": "b9a61961",
			"__executeSetTimelockPendingAdmin(address,uint256)": "21f43e42",
			"__queueSetTimelockPendingAdmin(address,uint256)": "91500671",
			"cancel(uint256)": "40e58ee5",
			"castVote(uint256,bool)": "15373e3d",
			"castVoteBySig(uint256,bool,uint8,bytes32,bytes32)": "4634c61f",
			"execute(uint256)": "fe0d94c1",
			"getActions(uint256)": "328dd982",
			"getReceipt(uint256,address)": "e23a9a52",
			"guardian()": "452a9320",
			"latestProposalIds(address)": "17977c61",
			"name()": "06fdde03",
			"proposalCount()": "da35c664",
			"proposalMaxOperations()": "7bdbe4d0",
			"proposalThreshold()": "b58131b0",
			"proposals(uint256)": "013cf08b",
			"propose(address[],uint256[],string[],bytes[],string)": "da95691a",
			"queue(uint256)": "ddf0b009",
			"quorumVotes()": "24bc1a64",
			"state(uint256)": "3e4f49e6",
			"sushi()": "0a087903",
			"timelock()": "d33219b4",
			"votingDelay()": "3932abb1",
			"votingPeriod()": "02a251a3"
		}
	},
	"abi": [
		{
			"inputs": [
				{
					"internalType": "address",
					"name": "timelock_",
					"type": "address"
				},
				{
					"internalType": "address",
					"name": "sushi_",
					"type": "address"
				},
				{
					"internalType": "address",
					"name": "guardian_",
					"type": "address"
				}
			],
			"stateMutability": "nonpayable",
			"type": "constructor"
		},
		{
			"anonymous": false,
			"inputs": [
				{
					"indexed": false,
					"internalType": "uint256",
					"name": "id",
					"type": "uint256"
				}
			],
			"name": "ProposalCanceled",
			"type": "event"
		},
		{
			"anonymous": false,
			"inputs": [
				{
					"indexed": false,
					"internalType": "uint256",
					"name": "id",
					"type": "uint256"
				},
				{
					"indexed": false,
					"internalType": "address",
					"name": "proposer",
					"type": "address"
				},
				{
					"indexed": false,
					"internalType": "address[]",
					"name": "targets",
					"type": "address[]"
				},
				{
					"indexed": false,
					"internalType": "uint256[]",
					"name": "values",
					"type": "uint256[]"
				},
				{
					"indexed": false,
					"internalType": "string[]",
					"name": "signatures",
					"type": "string[]"
				},
				{
					"indexed": false,
					"internalType": "bytes[]",
					"name": "calldatas",
					"type": "bytes[]"
				},
				{
					"indexed": false,
					"internalType": "uint256",
					"name": "startBlock",
					"type": "uint256"
				},
				{
					"indexed": false,
					"internalType": "uint256",
					"name": "endBlock",
					"type": "uint256"
				},
				{
					"indexed": false,
					"internalType": "string",
					"name": "description",
					"type": "string"
				}
			],
			"name": "ProposalCreated",
			"type": "event"
		},
		{
			"anonymous": false,
			"inputs": [
				{
					"indexed": false,
					"internalType": "uint256",
					"name": "id",
					"type": "uint256"
				}
			],
			"name": "ProposalExecuted",
			"type": "event"
		},
		{
			"anonymous": false,
			"inputs": [
				{
					"indexed": false,
					"internalType": "uint256",
					"name": "id",
					"type": "uint256"
				},
				{
					"indexed": false,
					"internalType": "uint256",
					"name": "eta",
					"type": "uint256"
				}
			],
			"name": "ProposalQueued",
			"type": "event"
		},
		{
			"anonymous": false,
			"inputs": [
				{
					"indexed": false,
					"internalType": "address",
					"name": "voter",
					"type": "address"
				},
				{
					"indexed": false,
					"internalType": "uint256",
					"name": "proposalId",
					"type": "uint256"
				},
				{
					"indexed": false,
					"internalType": "bool",
					"name": "support",
					"type": "bool"
				},
				{
					"indexed": false,
					"internalType": "uint256",
					"name": "votes",
					"type": "uint256"
				}
			],
			"name": "VoteCast",
			"type": "event"
		},
		{
			"inputs": [],
			"name": "BALLOT_TYPEHASH",
			"outputs": [
				{
					"internalType": "bytes32",
					"name": "",
					"type": "bytes32"
				}
			],
			"stateMutability": "view",
			"type": "function"
		},
		{
			"inputs": [],
			"name": "DOMAIN_TYPEHASH",
			"outputs": [
				{
					"internalType": "bytes32",
					"name": "",
					"type": "bytes32"
				}
			],
			"stateMutability": "view",
			"type": "function"
		},
		{
			"inputs": [],
			"name": "__abdicate",
			"outputs": [],
			"stateMutability": "nonpayable",
			"type": "function"
		},
		{
			"inputs": [],
			"name": "__acceptAdmin",
			"outputs": [],
			"stateMutability": "nonpayable",
			"type": "function"
		},
		{
			"inputs": [
				{
					"internalType": "address",
					"name": "newPendingAdmin",
					"type": "address"
				},
				{
					"internalType": "uint256",
					"name": "eta",
					"type": "uint256"
				}
			],
			"name": "__executeSetTimelockPendingAdmin",
			"outputs": [],
			"stateMutability": "nonpayable",
			"type": "function"
		},
		{
			"inputs": [
				{
					"internalType": "address",
					"name": "newPendingAdmin",
					"type": "address"
				},
				{
					"internalType": "uint256",
					"name": "eta",
					"type": "uint256"
				}
			],
			"name": "__queueSetTimelockPendingAdmin",
			"outputs": [],
			"stateMutability": "nonpayable",
			"type": "function"
		},
		{
			"inputs": [
				{
					"internalType": "uint256",
					"name": "proposalId",
					"type": "uint256"
				}
			],
			"name": "cancel",
			"outputs": [],
			"stateMutability": "nonpayable",
			"type": "function"
		},
		{
			"inputs": [
				{
					"internalType": "uint256",
					"name": "proposalId",
					"type": "uint256"
				},
				{
					"internalType": "bool",
					"name": "support",
					"type": "bool"
				}
			],
			"name": "castVote",
			"outputs": [],
			"stateMutability": "nonpayable",
			"type": "function"
		},
		{
			"inputs": [
				{
					"internalType": "uint256",
					"name": "proposalId",
					"type": "uint256"
				},
				{
					"internalType": "bool",
					"name": "support",
					"type": "bool"
				},
				{
					"internalType": "uint8",
					"name": "v",
					"type": "uint8"
				},
				{
					"internalType": "bytes32",
					"name": "r",
					"type": "bytes32"
				},
				{
					"internalType": "bytes32",
					"name": "s",
					"type": "bytes32"
				}
			],
			"name": "castVoteBySig",
			"outputs": [],
			"stateMutability": "nonpayable",
			"type": "function"
		},
		{
			"inputs": [
				{
					"internalType": "uint256",
					"name": "proposalId",
					"type": "uint256"
				}
			],
			"name": "execute",
			"outputs": [],
			"stateMutability": "payable",
			"type": "function"
		},
		{
			"inputs": [
				{
					"internalType": "uint256",
					"name": "proposalId",
					"type": "uint256"
				}
			],
			"name": "getActions",
			"outputs": [
				{
					"internalType": "address[]",
					"name": "targets",
					"type": "address[]"
				},
				{
					"internalType": "uint256[]",
					"name": "values",
					"type": "uint256[]"
				},
				{
					"internalType": "string[]",
					"name": "signatures",
					"type": "string[]"
				},
				{
					"internalType": "bytes[]",
					"name": "calldatas",
					"type": "bytes[]"
				}
			],
			"stateMutability": "view",
			"type": "function"
		},
		{
			"inputs": [
				{
					"internalType": "uint256",
					"name": "proposalId",
					"type": "uint256"
				},
				{
					"internalType": "address",
					"name": "voter",
					"type": "address"
				}
			],
			"name": "getReceipt",
			"outputs": [
				{
					"components": [
						{
							"internalType": "bool",
							"name": "hasVoted",
							"type": "bool"
						},
						{
							"internalType": "bool",
							"name": "support",
							"type": "bool"
						},
						{
							"internalType": "uint256",
							"name": "votes",
							"type": "uint256"
						}
					],
					"internalType": "struct GovernorAlpha.Receipt",
					"name": "",
					"type": "tuple"
				}
			],
			"stateMutability": "view",
			"type": "function"
		},
		{
			"inputs": [],
			"name": "guardian",
			"outputs": [
				{
					"internalType": "address",
					"name": "",
					"type": "address"
				}
			],
			"stateMutability": "view",
			"type": "function"
		},
		{
			"inputs": [
				{
					"internalType": "address",
					"name": "",
					"type": "address"
				}
			],
			"name": "latestProposalIds",
			"outputs": [
				{
					"internalType": "uint256",
					"name": "",
					"type": "uint256"
				}
			],
			"stateMutability": "view",
			"type": "function"
		},
		{
			"inputs": [],
			"name": "name",
			"outputs": [
				{
					"internalType": "string",
					"name": "",
					"type": "string"
				}
			],
			"stateMutability": "view",
			"type": "function"
		},
		{
			"inputs": [],
			"name": "proposalCount",
			"outputs": [
				{
					"internalType": "uint256",
					"name": "",
					"type": "uint256"
				}
			],
			"stateMutability": "view",
			"type": "function"
		},
		{
			"inputs": [],
			"name": "proposalMaxOperations",
			"outputs": [
				{
					"internalType": "uint256",
					"name": "",
					"type": "uint256"
				}
			],
			"stateMutability": "pure",
			"type": "function"
		},
		{
			"inputs": [],
			"name": "proposalThreshold",
			"outputs": [
				{
					"internalType": "uint256",
					"name": "",
					"type": "uint256"
				}
			],
			"stateMutability": "view",
			"type": "function"
		},
		{
			"inputs": [
				{
					"internalType": "uint256",
					"name": "",
					"type": "uint256"
				}
			],
			"name": "proposals",
			"outputs": [
				{
					"internalType": "uint256",
					"name": "id",
					"type": "uint256"
				},
				{
					"internalType": "address",
					"name": "proposer",
					"type": "address"
				},
				{
					"internalType": "uint256",
					"name": "eta",
					"type": "uint256"
				},
				{
					"internalType": "uint256",
					"name": "startBlock",
					"type": "uint256"
				},
				{
					"internalType": "uint256",
					"name": "endBlock",
					"type": "uint256"
				},
				{
					"internalType": "uint256",
					"name": "forVotes",
					"type": "uint256"
				},
				{
					"internalType": "uint256",
					"name": "againstVotes",
					"type": "uint256"
				},
				{
					"internalType": "bool",
					"name": "canceled",
					"type": "bool"
				},
				{
					"internalType": "bool",
					"name": "executed",
					"type": "bool"
				}
			],
			"stateMutability": "view",
			"type": "function"
		},
		{
			"inputs": [
				{
					"internalType": "address[]",
					"name": "targets",
					"type": "address[]"
				},
				{
					"internalType": "uint256[]",
					"name": "values",
					"type": "uint256[]"
				},
				{
					"internalType": "string[]",
					"name": "signatures",
					"type": "string[]"
				},
				{
					"internalType": "bytes[]",
					"name": "calldatas",
					"type": "bytes[]"
				},
				{
					"internalType": "string",
					"name": "description",
					"type": "string"
				}
			],
			"name": "propose",
			"outputs": [
				{
					"internalType": "uint256",
					"name": "",
					"type": "uint256"
				}
			],
			"stateMutability": "nonpayable",
			"type": "function"
		},
		{
			"inputs": [
				{
					"internalType": "uint256",
					"name": "proposalId",
					"type": "uint256"
				}
			],
			"name": "queue",
			"outputs": [],
			"stateMutability": "nonpayable",
			"type": "function"
		},
		{
			"inputs": [],
			"name": "quorumVotes",
			"outputs": [
				{
					"internalType": "uint256",
					"name": "",
					"type": "uint256"
				}
			],
			"stateMutability": "view",
			"type": "function"
		},
		{
			"inputs": [
				{
					"internalType": "uint256",
					"name": "proposalId",
					"type": "uint256"
				}
			],
			"name": "state",
			"outputs": [
				{
					"internalType": "enum GovernorAlpha.ProposalState",
					"name": "",
					"type": "uint8"
				}
			],
			"stateMutability": "view",
			"type": "function"
		},
		{
			"inputs": [],
			"name": "sushi",
			"outputs": [
				{
					"internalType": "contract SushiToken",
					"name": "",
					"type": "address"
				}
			],
			"stateMutability": "view",
			"type": "function"
		},
		{
			"inputs": [],
			"name": "timelock",
			"outputs": [
				{
					"internalType": "contract TimelockInterface",
					"name": "",
					"type": "address"
				}
			],
			"stateMutability": "view",
			"type": "function"
		},
		{
			"inputs": [],
			"name": "votingDelay",
			"outputs": [
				{
					"internalType": "uint256",
					"name": "",
					"type": "uint256"
				}
			],
			"stateMutability": "pure",
			"type": "function"
		},
		{
			"inputs": [],
			"name": "votingPeriod",
			"outputs": [
				{
					"internalType": "uint256",
					"name": "",
					"type": "uint256"
				}
			],
			"stateMutability": "pure",
			"type": "function"
		}
	]
}